{
  "_format": "hh-sol-artifact-1",
  "contractName": "HumbleDonations",
  "sourceName": "contracts/HumbleDonations.sol",
  "abi": [
    {
      "inputs": [],
      "stateMutability": "nonpayable",
      "type": "constructor"
    },
    {
      "inputs": [
        {
          "internalType": "address",
          "name": "target",
          "type": "address"
        }
      ],
      "name": "AddressEmptyCode",
      "type": "error"
    },
    {
      "inputs": [
        {
          "internalType": "address",
          "name": "account",
          "type": "address"
        }
      ],
      "name": "AddressInsufficientBalance",
      "type": "error"
    },
    {
      "inputs": [
        {
          "internalType": "address",
          "name": "implementation",
          "type": "address"
        }
      ],
      "name": "ERC1967InvalidImplementation",
      "type": "error"
    },
    {
      "inputs": [],
      "name": "ERC1967NonPayable",
      "type": "error"
    },
    {
      "inputs": [
        {
          "internalType": "address",
          "name": "sender",
          "type": "address"
        },
        {
          "internalType": "uint256",
          "name": "tokenId",
          "type": "uint256"
        },
        {
          "internalType": "address",
          "name": "owner",
          "type": "address"
        }
      ],
      "name": "ERC721IncorrectOwner",
      "type": "error"
    },
    {
      "inputs": [
        {
          "internalType": "address",
          "name": "operator",
          "type": "address"
        },
        {
          "internalType": "uint256",
          "name": "tokenId",
          "type": "uint256"
        }
      ],
      "name": "ERC721InsufficientApproval",
      "type": "error"
    },
    {
      "inputs": [
        {
          "internalType": "address",
          "name": "approver",
          "type": "address"
        }
      ],
      "name": "ERC721InvalidApprover",
      "type": "error"
    },
    {
      "inputs": [
        {
          "internalType": "address",
          "name": "operator",
          "type": "address"
        }
      ],
      "name": "ERC721InvalidOperator",
      "type": "error"
    },
    {
      "inputs": [
        {
          "internalType": "address",
          "name": "owner",
          "type": "address"
        }
      ],
      "name": "ERC721InvalidOwner",
      "type": "error"
    },
    {
      "inputs": [
        {
          "internalType": "address",
          "name": "receiver",
          "type": "address"
        }
      ],
      "name": "ERC721InvalidReceiver",
      "type": "error"
    },
    {
      "inputs": [
        {
          "internalType": "address",
          "name": "sender",
          "type": "address"
        }
      ],
      "name": "ERC721InvalidSender",
      "type": "error"
    },
    {
      "inputs": [
        {
          "internalType": "uint256",
          "name": "tokenId",
          "type": "uint256"
        }
      ],
      "name": "ERC721NonexistentToken",
      "type": "error"
    },
    {
      "inputs": [],
      "name": "FailedInnerCall",
      "type": "error"
    },
    {
      "inputs": [],
      "name": "InvalidInitialization",
      "type": "error"
    },
    {
      "inputs": [],
      "name": "NotInitializing",
      "type": "error"
    },
    {
      "inputs": [
        {
          "internalType": "address",
          "name": "owner",
          "type": "address"
        }
      ],
      "name": "OwnableInvalidOwner",
      "type": "error"
    },
    {
      "inputs": [
        {
          "internalType": "address",
          "name": "account",
          "type": "address"
        }
      ],
      "name": "OwnableUnauthorizedAccount",
      "type": "error"
    },
    {
      "inputs": [],
      "name": "ReentrancyGuardReentrantCall",
      "type": "error"
    },
    {
      "inputs": [
        {
          "internalType": "address",
          "name": "token",
          "type": "address"
        }
      ],
      "name": "SafeERC20FailedOperation",
      "type": "error"
    },
    {
      "inputs": [],
      "name": "UUPSUnauthorizedCallContext",
      "type": "error"
    },
    {
      "inputs": [
        {
          "internalType": "bytes32",
          "name": "slot",
          "type": "bytes32"
        }
      ],
      "name": "UUPSUnsupportedProxiableUUID",
      "type": "error"
    },
    {
      "anonymous": false,
      "inputs": [
        {
          "indexed": true,
          "internalType": "address",
          "name": "owner",
          "type": "address"
        },
        {
          "indexed": true,
          "internalType": "address",
          "name": "approved",
          "type": "address"
        },
        {
          "indexed": true,
          "internalType": "uint256",
          "name": "tokenId",
          "type": "uint256"
        }
      ],
      "name": "Approval",
      "type": "event"
    },
    {
      "anonymous": false,
      "inputs": [
        {
          "indexed": true,
          "internalType": "address",
          "name": "owner",
          "type": "address"
        },
        {
          "indexed": true,
          "internalType": "address",
          "name": "operator",
          "type": "address"
        },
        {
          "indexed": false,
          "internalType": "bool",
          "name": "approved",
          "type": "bool"
        }
      ],
      "name": "ApprovalForAll",
      "type": "event"
    },
    {
      "anonymous": false,
      "inputs": [
        {
          "indexed": false,
          "internalType": "uint256",
          "name": "_fromTokenId",
          "type": "uint256"
        },
        {
          "indexed": false,
          "internalType": "uint256",
          "name": "_toTokenId",
          "type": "uint256"
        }
      ],
      "name": "BatchMetadataUpdate",
      "type": "event"
    },
    {
      "anonymous": false,
      "inputs": [
        {
          "indexed": true,
          "internalType": "uint256",
          "name": "tokenId",
          "type": "uint256"
        },
        {
          "indexed": true,
          "internalType": "address",
          "name": "donor",
          "type": "address"
        },
        {
          "indexed": false,
          "internalType": "address",
          "name": "erc20Token",
          "type": "address"
        },
        {
          "indexed": false,
          "internalType": "uint256",
          "name": "amount",
          "type": "uint256"
        },
        {
          "indexed": false,
          "internalType": "uint256",
          "name": "timestamp",
          "type": "uint256"
        }
      ],
      "name": "DonationMade",
      "type": "event"
    },
    {
      "anonymous": false,
      "inputs": [
        {
          "indexed": false,
          "internalType": "uint64",
          "name": "version",
          "type": "uint64"
        }
      ],
      "name": "Initialized",
      "type": "event"
    },
    {
      "anonymous": false,
      "inputs": [
        {
          "indexed": false,
          "internalType": "uint256",
          "name": "_tokenId",
          "type": "uint256"
        }
      ],
      "name": "MetadataUpdate",
      "type": "event"
    },
    {
      "anonymous": false,
      "inputs": [
        {
          "indexed": true,
          "internalType": "address",
          "name": "previousOwner",
          "type": "address"
        },
        {
          "indexed": true,
          "internalType": "address",
          "name": "newOwner",
          "type": "address"
        }
      ],
      "name": "OwnershipTransferred",
      "type": "event"
    },
    {
      "anonymous": false,
      "inputs": [
        {
          "indexed": true,
          "internalType": "uint256",
          "name": "tokenId",
          "type": "uint256"
        },
        {
          "indexed": true,
          "internalType": "address",
          "name": "owner",
          "type": "address"
        },
        {
          "indexed": false,
          "internalType": "string",
          "name": "projectTitle",
          "type": "string"
        },
        {
          "indexed": false,
          "internalType": "string",
          "name": "uri",
          "type": "string"
        },
        {
          "indexed": false,
          "internalType": "uint256",
          "name": "timestamp",
          "type": "uint256"
        }
      ],
      "name": "ProjectCreated",
      "type": "event"
    },
    {
      "anonymous": false,
      "inputs": [
        {
          "indexed": true,
          "internalType": "uint256",
          "name": "tokenId",
          "type": "uint256"
        },
        {
          "indexed": true,
          "internalType": "address",
          "name": "previousOwner",
          "type": "address"
        },
        {
          "indexed": true,
          "internalType": "address",
          "name": "burnAddress",
          "type": "address"
        },
        {
          "indexed": false,
          "internalType": "uint256",
          "name": "timestamp",
          "type": "uint256"
        }
      ],
      "name": "ProjectDeleted",
      "type": "event"
    },
    {
      "anonymous": false,
      "inputs": [
        {
          "indexed": true,
          "internalType": "address",
          "name": "from",
          "type": "address"
        },
        {
          "indexed": true,
          "internalType": "address",
          "name": "to",
          "type": "address"
        },
        {
          "indexed": true,
          "internalType": "uint256",
          "name": "tokenId",
          "type": "uint256"
        }
      ],
      "name": "Transfer",
      "type": "event"
    },
    {
      "anonymous": false,
      "inputs": [
        {
          "indexed": true,
          "internalType": "address",
          "name": "implementation",
          "type": "address"
        }
      ],
      "name": "Upgraded",
      "type": "event"
    },
    {
      "inputs": [],
      "name": "HDT",
      "outputs": [
        {
          "internalType": "address",
          "name": "",
          "type": "address"
        }
      ],
      "stateMutability": "view",
      "type": "function"
    },
    {
      "inputs": [],
      "name": "UPGRADE_INTERFACE_VERSION",
      "outputs": [
        {
          "internalType": "string",
          "name": "",
          "type": "string"
        }
      ],
      "stateMutability": "view",
      "type": "function"
    },
    {
      "inputs": [],
      "name": "WETH",
      "outputs": [
        {
          "internalType": "address",
          "name": "",
          "type": "address"
        }
      ],
      "stateMutability": "view",
      "type": "function"
    },
    {
      "inputs": [
        {
          "internalType": "address",
          "name": "to",
          "type": "address"
        },
        {
          "internalType": "uint256",
          "name": "tokenId",
          "type": "uint256"
        }
      ],
      "name": "approve",
      "outputs": [],
      "stateMutability": "nonpayable",
      "type": "function"
    },
    {
      "inputs": [
        {
          "internalType": "address",
          "name": "owner",
          "type": "address"
        }
      ],
      "name": "balanceOf",
      "outputs": [
        {
          "internalType": "uint256",
          "name": "",
          "type": "uint256"
        }
      ],
      "stateMutability": "view",
      "type": "function"
    },
    {
      "inputs": [
        {
          "internalType": "uint256",
          "name": "tokenId",
          "type": "uint256"
        }
      ],
      "name": "burn",
      "outputs": [],
      "stateMutability": "nonpayable",
      "type": "function"
    },
    {
      "inputs": [
        {
          "internalType": "uint256",
          "name": "tokenId",
          "type": "uint256"
        }
      ],
      "name": "burnToken",
      "outputs": [],
      "stateMutability": "nonpayable",
      "type": "function"
    },
    {
      "inputs": [
        {
          "internalType": "uint256",
          "name": "tokenId",
          "type": "uint256"
        },
        {
          "internalType": "address",
          "name": "erc20Token",
          "type": "address"
        },
        {
          "internalType": "uint256",
          "name": "amount",
          "type": "uint256"
        },
        {
          "internalType": "uint256",
          "name": "slippageWETH",
          "type": "uint256"
        },
        {
          "internalType": "uint256",
          "name": "slippageHDT",
          "type": "uint256"
        },
        {
          "internalType": "bytes32[]",
          "name": "proof",
          "type": "bytes32[]"
        }
      ],
      "name": "donate",
      "outputs": [],
      "stateMutability": "payable",
      "type": "function"
    },
    {
      "inputs": [],
      "name": "fees",
      "outputs": [
        {
          "internalType": "uint256",
          "name": "",
          "type": "uint256"
        }
      ],
      "stateMutability": "view",
      "type": "function"
    },
    {
      "inputs": [
        {
          "internalType": "uint256",
          "name": "tokenId",
          "type": "uint256"
        }
      ],
      "name": "getApproved",
      "outputs": [
        {
          "internalType": "address",
          "name": "",
          "type": "address"
        }
      ],
      "stateMutability": "view",
      "type": "function"
    },
    {
      "inputs": [],
      "name": "getHDT",
      "outputs": [
        {
          "internalType": "address",
          "name": "",
          "type": "address"
        }
      ],
      "stateMutability": "view",
      "type": "function"
    },
    {
      "inputs": [
        {
          "internalType": "string",
          "name": "projectTitle",
          "type": "string"
        }
      ],
      "name": "getOwnerByProjectTitle",
      "outputs": [
        {
          "internalType": "address",
          "name": "",
          "type": "address"
        }
      ],
      "stateMutability": "view",
      "type": "function"
    },
    {
      "inputs": [],
      "name": "getPercentage",
      "outputs": [
        {
          "internalType": "uint256",
          "name": "",
          "type": "uint256"
        }
      ],
      "stateMutability": "view",
      "type": "function"
    },
    {
      "inputs": [
        {
          "internalType": "string",
          "name": "projectTitle",
          "type": "string"
        }
      ],
      "name": "getTokenId",
      "outputs": [
        {
          "internalType": "uint256",
          "name": "",
          "type": "uint256"
        }
      ],
      "stateMutability": "view",
      "type": "function"
    },
    {
      "inputs": [],
      "name": "getUpgradeCount",
      "outputs": [
        {
          "internalType": "uint256",
          "name": "",
          "type": "uint256"
        }
      ],
      "stateMutability": "view",
      "type": "function"
    },
    {
      "inputs": [],
      "name": "getWETH",
      "outputs": [
        {
          "internalType": "address",
          "name": "",
          "type": "address"
        }
      ],
      "stateMutability": "view",
      "type": "function"
    },
    {
      "inputs": [],
      "name": "get_mintRate",
      "outputs": [
        {
          "internalType": "uint256",
          "name": "",
          "type": "uint256"
        }
      ],
      "stateMutability": "view",
      "type": "function"
    },
    {
      "inputs": [
        {
          "internalType": "address",
          "name": "initialOwner",
          "type": "address"
        }
      ],
      "name": "initialize",
      "outputs": [],
      "stateMutability": "nonpayable",
      "type": "function"
    },
    {
      "inputs": [
        {
          "internalType": "address",
          "name": "owner",
          "type": "address"
        },
        {
          "internalType": "address",
          "name": "operator",
          "type": "address"
        }
      ],
      "name": "isApprovedForAll",
      "outputs": [
        {
          "internalType": "bool",
          "name": "",
          "type": "bool"
        }
      ],
      "stateMutability": "view",
      "type": "function"
    },
    {
      "inputs": [
        {
          "internalType": "address",
          "name": "erc20Token",
          "type": "address"
        },
        {
          "internalType": "bytes32[]",
          "name": "proof",
          "type": "bytes32[]"
        }
      ],
      "name": "isTokenWhitelisted",
      "outputs": [
        {
          "internalType": "bool",
          "name": "",
          "type": "bool"
        }
      ],
      "stateMutability": "view",
      "type": "function"
    },
    {
      "inputs": [],
      "name": "latestTokenId",
      "outputs": [
        {
          "internalType": "uint256",
          "name": "",
          "type": "uint256"
        }
      ],
      "stateMutability": "view",
      "type": "function"
    },
    {
      "inputs": [],
      "name": "merkleRoot",
      "outputs": [
        {
          "internalType": "bytes32",
          "name": "",
          "type": "bytes32"
        }
      ],
      "stateMutability": "view",
      "type": "function"
    },
    {
      "inputs": [],
      "name": "mintRate",
      "outputs": [
        {
          "internalType": "uint256",
          "name": "",
          "type": "uint256"
        }
      ],
      "stateMutability": "view",
      "type": "function"
    },
    {
      "inputs": [],
      "name": "name",
      "outputs": [
        {
          "internalType": "string",
          "name": "",
          "type": "string"
        }
      ],
      "stateMutability": "view",
      "type": "function"
    },
    {
      "inputs": [],
      "name": "owner",
      "outputs": [
        {
          "internalType": "address",
          "name": "",
          "type": "address"
        }
      ],
      "stateMutability": "view",
      "type": "function"
    },
    {
      "inputs": [
        {
          "internalType": "uint256",
          "name": "tokenId",
          "type": "uint256"
        }
      ],
      "name": "ownerOf",
      "outputs": [
        {
          "internalType": "address",
          "name": "",
          "type": "address"
        }
      ],
      "stateMutability": "view",
      "type": "function"
    },
    {
      "inputs": [],
      "name": "poolFee",
      "outputs": [
        {
          "internalType": "uint24",
          "name": "",
          "type": "uint24"
        }
      ],
      "stateMutability": "view",
      "type": "function"
    },
    {
      "inputs": [
        {
          "internalType": "string",
          "name": "",
          "type": "string"
        }
      ],
      "name": "projectTitleToTokenId",
      "outputs": [
        {
          "internalType": "uint256",
          "name": "",
          "type": "uint256"
        }
      ],
      "stateMutability": "view",
      "type": "function"
    },
    {
      "inputs": [],
      "name": "proxiableUUID",
      "outputs": [
        {
          "internalType": "bytes32",
          "name": "",
          "type": "bytes32"
        }
      ],
      "stateMutability": "view",
      "type": "function"
    },
    {
      "inputs": [],
      "name": "renounceOwnership",
      "outputs": [],
      "stateMutability": "nonpayable",
      "type": "function"
    },
    {
      "inputs": [
        {
          "internalType": "address",
          "name": "to",
          "type": "address"
        },
        {
          "internalType": "string",
          "name": "uri",
          "type": "string"
        },
        {
          "internalType": "string",
          "name": "projectTitle",
          "type": "string"
        }
      ],
      "name": "safeMint",
      "outputs": [],
      "stateMutability": "payable",
      "type": "function"
    },
    {
      "inputs": [
        {
          "internalType": "address",
          "name": "from",
          "type": "address"
        },
        {
          "internalType": "address",
          "name": "to",
          "type": "address"
        },
        {
          "internalType": "uint256",
          "name": "tokenId",
          "type": "uint256"
        }
      ],
      "name": "safeTransferFrom",
      "outputs": [],
      "stateMutability": "nonpayable",
      "type": "function"
    },
    {
      "inputs": [
        {
          "internalType": "address",
          "name": "from",
          "type": "address"
        },
        {
          "internalType": "address",
          "name": "to",
          "type": "address"
        },
        {
          "internalType": "uint256",
          "name": "tokenId",
          "type": "uint256"
        },
        {
          "internalType": "bytes",
          "name": "data",
          "type": "bytes"
        }
      ],
      "name": "safeTransferFrom",
      "outputs": [],
      "stateMutability": "nonpayable",
      "type": "function"
    },
    {
      "inputs": [
        {
          "internalType": "address",
          "name": "operator",
          "type": "address"
        },
        {
          "internalType": "bool",
          "name": "approved",
          "type": "bool"
        }
      ],
      "name": "setApprovalForAll",
      "outputs": [],
      "stateMutability": "nonpayable",
      "type": "function"
    },
    {
      "inputs": [
        {
          "internalType": "address",
          "name": "_HDT",
          "type": "address"
        }
      ],
      "name": "setHDT",
      "outputs": [],
      "stateMutability": "nonpayable",
      "type": "function"
    },
    {
      "inputs": [
        {
          "internalType": "bytes32",
          "name": "_merkleRoot",
          "type": "bytes32"
        }
      ],
      "name": "setMerkleRoot",
      "outputs": [],
      "stateMutability": "nonpayable",
      "type": "function"
    },
    {
      "inputs": [
        {
          "internalType": "uint256",
          "name": "tax",
          "type": "uint256"
        }
      ],
      "name": "setTaxPercentage",
      "outputs": [],
      "stateMutability": "nonpayable",
      "type": "function"
    },
    {
      "inputs": [
        {
          "internalType": "address",
          "name": "_WETH",
          "type": "address"
        }
      ],
      "name": "setWETH",
      "outputs": [],
      "stateMutability": "nonpayable",
      "type": "function"
    },
    {
      "inputs": [
        {
          "internalType": "uint256",
          "name": "_mintRate",
          "type": "uint256"
        }
      ],
      "name": "set_mintRate",
      "outputs": [],
      "stateMutability": "nonpayable",
      "type": "function"
    },
    {
      "inputs": [
        {
          "internalType": "bytes4",
          "name": "interfaceId",
          "type": "bytes4"
        }
      ],
      "name": "supportsInterface",
      "outputs": [
        {
          "internalType": "bool",
          "name": "",
          "type": "bool"
        }
      ],
      "stateMutability": "view",
      "type": "function"
    },
    {
      "inputs": [],
      "name": "swapRouter",
      "outputs": [
        {
          "internalType": "contract IV3SwapRouter",
          "name": "",
          "type": "address"
        }
      ],
      "stateMutability": "view",
      "type": "function"
    },
    {
      "inputs": [],
      "name": "symbol",
      "outputs": [
        {
          "internalType": "string",
          "name": "",
          "type": "string"
        }
      ],
      "stateMutability": "view",
      "type": "function"
    },
    {
      "inputs": [],
      "name": "taxPercentage",
      "outputs": [
        {
          "internalType": "uint256",
          "name": "",
          "type": "uint256"
        }
      ],
      "stateMutability": "view",
      "type": "function"
    },
    {
      "inputs": [
        {
          "internalType": "uint256",
          "name": "",
          "type": "uint256"
        }
      ],
      "name": "tokenIdToProjectTitle",
      "outputs": [
        {
          "internalType": "string",
          "name": "",
          "type": "string"
        }
      ],
      "stateMutability": "view",
      "type": "function"
    },
    {
      "inputs": [
        {
          "internalType": "uint256",
          "name": "tokenId",
          "type": "uint256"
        }
      ],
      "name": "tokenURI",
      "outputs": [
        {
          "internalType": "string",
          "name": "",
          "type": "string"
        }
      ],
      "stateMutability": "view",
      "type": "function"
    },
    {
      "inputs": [
        {
          "internalType": "address",
          "name": "from",
          "type": "address"
        },
        {
          "internalType": "address",
          "name": "to",
          "type": "address"
        },
        {
          "internalType": "uint256",
          "name": "tokenId",
          "type": "uint256"
        }
      ],
      "name": "transferFrom",
      "outputs": [],
      "stateMutability": "nonpayable",
      "type": "function"
    },
    {
      "inputs": [
        {
          "internalType": "address",
          "name": "newOwner",
          "type": "address"
        }
      ],
      "name": "transferOwnership",
      "outputs": [],
      "stateMutability": "nonpayable",
      "type": "function"
    },
    {
      "inputs": [],
      "name": "upgradeCount",
      "outputs": [
        {
          "internalType": "uint256",
          "name": "",
          "type": "uint256"
        }
      ],
      "stateMutability": "view",
      "type": "function"
    },
    {
      "inputs": [
        {
          "internalType": "address",
          "name": "newImplementation",
          "type": "address"
        },
        {
          "internalType": "bytes",
          "name": "data",
          "type": "bytes"
        }
      ],
      "name": "upgradeToAndCall",
      "outputs": [],
      "stateMutability": "payable",
      "type": "function"
    },
    {
      "inputs": [],
      "name": "withdraw",
      "outputs": [],
      "stateMutability": "nonpayable",
      "type": "function"
    },
    {
      "inputs": [
        {
          "internalType": "address",
          "name": "erc20Token",
          "type": "address"
        },
        {
          "internalType": "uint256",
          "name": "amount",
          "type": "uint256"
        }
      ],
      "name": "withdrawToken",
      "outputs": [],
      "stateMutability": "nonpayable",
      "type": "function"
    }
  ],
  "bytecode": "0x60c060405230608052733bfa4769fb09eefc5a80d6e87c3b9c650f7ae48e60a0523480156200002d57600080fd5b50620000386200003e565b620000f2565b7ff0c57e16840df040f15088dc2f81fe391c3923bec73e23a9662efc9c229c6a00805468010000000000000000900460ff16156200008f5760405163f92ee8a960e01b815260040160405180910390fd5b80546001600160401b0390811614620000ef5780546001600160401b0319166001600160401b0390811782556040519081527fc7f505b2f371ae2175ee4913f4499e1f2633a7b5936321eed1cdaeb6115181d29060200160405180910390a15b50565b60805160a051613c2762000149600039600081816107e701528181611dc301528181611e9001528181611f9a0152818161209901526121180152600081816122500152818161227901526123d20152613c276000f3fe6080604052600436106102e45760003560e01c80637cb6475911610190578063ae7b6d16116100dc578063ca0dcf1611610095578063e8ba1dff1161006f578063e8ba1dff146108cb578063e985e9c5146108e0578063eca81d4214610900578063f2fde38b1461091357600080fd5b8063ca0dcf161461085f578063cae5f11e14610875578063cd99b0101461089357600080fd5b8063ae7b6d161461079f578063b88d4fde146107b5578063c31c9c07146107d5578063c4128b6d14610809578063c4d66de81461081f578063c87b56dd1461083f57600080fd5b80639af1d35a11610149578063a01d371211610123578063a01d37121461070e578063a22cb4651461072e578063ad3cb1cc1461074e578063ad5c46481461077f57600080fd5b80639af1d35a146106b85780639e281a98146106ce5780639f4a7c10146106ee57600080fd5b80637cb64759146105f15780638c0e8349146106115780638da5cb5b1461062657806391f7e39714610663578063930baae81461068357806395d89b41146106a357600080fd5b80634744f6191161024f5780635fea0294116102085780636fa2fd59116101e25780636fa2fd591461058757806370a082311461059c578063715018a6146105bc5780637b47ec1a146105d157600080fd5b80635fea0294146105295780636352211e14610547578063699abb3c1461056757600080fd5b80634744f6191461048e5780634a9957f4146104ae5780634f1ef286146104c157806352d1902d146104d457806356b1ddbb146104e95780635b769f3c1461050957600080fd5b80631e7663bc116102a15780631e7663bc146103e357806323b872dd146104035780632eb4a7ab146104235780633ccfd60b1461043957806342842e0e1461044e57806342966c681461046e57600080fd5b806301ffc9a7146102e957806306fdde031461031e578063081812fc14610340578063089fe6aa14610378578063095ea7b3146103a25780630b2accb2146103c4575b600080fd5b3480156102f557600080fd5b5061030961030436600461337e565b610933565b60405190151581526020015b60405180910390f35b34801561032a57600080fd5b50610333610944565b60405161031591906133eb565b34801561034c57600080fd5b5061036061035b3660046133fe565b6109e8565b6040516001600160a01b039091168152602001610315565b34801561038457600080fd5b5061038e610bb881565b60405162ffffff9091168152602001610315565b3480156103ae57600080fd5b506103c26103bd366004613433565b6109fd565b005b3480156103d057600080fd5b506005545b604051908152602001610315565b3480156103ef57600080fd5b506103d56103fe366004613500565b610a0c565b34801561040f57600080fd5b506103c261041e366004613535565b610a34565b34801561042f57600080fd5b506103d560095481565b34801561044557600080fd5b506103c2610ac4565b34801561045a57600080fd5b506103c2610469366004613535565b610b59565b34801561047a57600080fd5b506103c26104893660046133fe565b610b79565b34801561049a57600080fd5b506103c26104a93660046133fe565b610b85565b6103c26104bc3660046135bd565b610b92565b6103c26104cf366004613638565b610fb2565b3480156104e057600080fd5b506103d5610fcd565b3480156104f557600080fd5b50600354610360906001600160a01b031681565b34801561051557600080fd5b506103c2610524366004613686565b610fea565b34801561053557600080fd5b506003546001600160a01b0316610360565b34801561055357600080fd5b506103606105623660046133fe565b611014565b34801561057357600080fd5b506103c26105823660046133fe565b61101f565b34801561059357600080fd5b506002546103d5565b3480156105a857600080fd5b506103d56105b7366004613686565b61102c565b3480156105c857600080fd5b506103c2611088565b3480156105dd57600080fd5b506103c26105ec3660046133fe565b61109c565b3480156105fd57600080fd5b506103c261060c3660046133fe565b611165565b34801561061d57600080fd5b506008546103d5565b34801561063257600080fd5b507f9016d09d72d40fdae2fd8ceac6b6234c7706214fd39c1cd1e609a0528c199300546001600160a01b0316610360565b34801561066f57600080fd5b5061036061067e366004613500565b611172565b34801561068f57600080fd5b506103c261069e366004613686565b6111b7565b3480156106af57600080fd5b506103336111e1565b3480156106c457600080fd5b506103d560075481565b3480156106da57600080fd5b506103c26106e9366004613433565b611220565b3480156106fa57600080fd5b506103336107093660046133fe565b6113ed565b34801561071a57600080fd5b506103096107293660046136a1565b611487565b34801561073a57600080fd5b506103c2610749366004613702565b61150d565b34801561075a57600080fd5b50610333604051806040016040528060058152602001640352e302e360dc1b81525081565b34801561078b57600080fd5b50600454610360906001600160a01b031681565b3480156107ab57600080fd5b506103d560055481565b3480156107c157600080fd5b506103c26107d0366004613739565b611518565b3480156107e157600080fd5b506103607f000000000000000000000000000000000000000000000000000000000000000081565b34801561081557600080fd5b506103d560025481565b34801561082b57600080fd5b506103c261083a366004613686565b61152f565b34801561084b57600080fd5b5061033361085a3660046133fe565b6116c5565b34801561086b57600080fd5b506103d560065481565b34801561088157600080fd5b506004546001600160a01b0316610360565b34801561089f57600080fd5b506103d56108ae366004613500565b805160208183018101805160018252928201919093012091525481565b3480156108d757600080fd5b506006546103d5565b3480156108ec57600080fd5b506103096108fb3660046137a1565b6116d0565b6103c261090e3660046137d4565b61171d565b34801561091f57600080fd5b506103c261092e366004613686565b611945565b600061093e82611980565b92915050565b600080516020613b92833981519152805460609190819061096490613848565b80601f016020809104026020016040519081016040528092919081815260200182805461099090613848565b80156109dd5780601f106109b2576101008083540402835291602001916109dd565b820191906000526020600020905b8154815290600101906020018083116109c057829003601f168201915b505050505091505090565b60006109f3826119a5565b5061093e826119dd565b610a08828233611a17565b5050565b6000600182604051610a1e9190613882565b9081526020016040518091039020549050919050565b6001600160a01b038216610a6357604051633250574960e11b8152600060048201526024015b60405180910390fd5b6000610a70838333611a24565b9050836001600160a01b0316816001600160a01b031614610abe576040516364283d7b60e01b81526001600160a01b0380861660048301526024820184905282166044820152606401610a5a565b50505050565b610acc611b2e565b604051600090339047908381818185875af1925050503d8060008114610b0e576040519150601f19603f3d011682016040523d82523d6000602084013e610b13565b606091505b5050905080610b565760405162461bcd60e51b815260206004820152600f60248201526e151c985b9cd9995c8811985a5b1959608a1b6044820152606401610a5a565b50565b610b7483838360405180602001604052806000815250611518565b505050565b610a0860008233611a24565b610b8d611b2e565b600655565b610b9a611b89565b6000610ba588611014565b90506001600160a01b0381163303610bf55760405162461bcd60e51b815260206004820152601360248201527221b0b73737ba103830bc903cb7bab939b2b63360691b6044820152606401610a5a565b60008881526020819052604081208054610c0e90613848565b905011610c555760405162461bcd60e51b8152602060048201526015602482015274141c9bda9958dd081d1a5d1b19481b9bdd081cd95d605a1b6044820152606401610a5a565b6000806103e860055489610c6991906138b4565b610c7391906138cb565b60035490915089906001600160a01b03808316911614610e7357610c97828a6138ed565b92506001600160a01b038a16610d3e5788341015610cf75760405162461bcd60e51b815260206004820152601c60248201527f496e636f727265637420616d6f756e74206f66204554482073656e74000000006044820152606401610a5a565b610d018288611bc1565b506040516001600160a01b0385169084156108fc029085906000818181858888f19350505050158015610d38573d6000803e3d6000fd5b50610f42565b610d498a8787611487565b610d955760405162461bcd60e51b815260206004820152601860248201527f546f6b656e206973206e6f742077686974656c697374656400000000000000006044820152606401610a5a565b604051636eb1769f60e11b815233600482015230602482015289906001600160a01b0383169063dd62ed3e90604401602060405180830381865afa158015610de1573d6000803e3d6000fd5b505050506040513d601f19601f82011682018060405250810190610e059190613900565b1015610e4c5760405162461bcd60e51b8152602060048201526016602482015275496e73756666696369656e7420616c6c6f77616e636560501b6044820152606401610a5a565b610e588a838a8a611e73565b50610e6e6001600160a01b0382163386866121ca565b610f42565b604051636eb1769f60e11b815233600482015230602482015289935083906001600160a01b0383169063dd62ed3e90604401602060405180830381865afa158015610ec2573d6000803e3d6000fd5b505050506040513d601f19601f82011682018060405250810190610ee69190613900565b1015610f2d5760405162461bcd60e51b8152602060048201526016602482015275496e73756666696369656e7420616c6c6f77616e636560501b6044820152606401610a5a565b610f426001600160a01b0382163386866121ca565b604080516001600160a01b038c168152602081018590524281830152905133918d917fda38851157f2984cc47615155e6daa02931c36f0ecaa4822d8b631b5b368eb6e9181900360600190a350505050610fa96001600080516020613bd283398151915255565b50505050505050565b610fba612245565b610fc3826122ea565b610a08828261230a565b6000610fd76123c7565b50600080516020613bb283398151915290565b610ff2611b2e565b600480546001600160a01b0319166001600160a01b0392909216919091179055565b600061093e826119a5565b611027611b2e565b600555565b6000600080516020613b928339815191526001600160a01b038316611067576040516322718ad960e21b815260006004820152602401610a5a565b6001600160a01b039092166000908152600390920160205250604090205490565b611090611b2e565b61109a6000612410565b565b60006110a782611014565b9050336110b383611014565b6001600160a01b0316146111095760405162461bcd60e51b815260206004820152601760248201527f43616c6c6572206973206e6f7420746865206f776e65720000000000000000006044820152606401610a5a565b61111282612481565b60006001600160a01b0316816001600160a01b0316837f4ef8c0478b7cb23d7c76bbb226f7898438ece317e83af2b79f9a015974efcc7f4260405161115991815260200190565b60405180910390a45050565b61116d611b2e565b600955565b6000806001836040516111859190613882565b9081526020016040518091039020549050806000146111ae576111a781611014565b9392505050565b50600092915050565b6111bf611b2e565b600380546001600160a01b0319166001600160a01b0392909216919091179055565b7f80bb2b638cc20bc4d0a60d66940f3ab4a00c1d7b313497ca82fb0b4ab00793018054606091600080516020613b928339815191529161096490613848565b611228611b2e565b6001600160a01b03821661127e5760405162461bcd60e51b815260206004820152601c60248201527f496e76616c6964204552432d323020746f6b656e2061646472657373000000006044820152606401610a5a565b6040516370a0823160e01b8152306004820152829082906001600160a01b038316906370a0823190602401602060405180830381865afa1580156112c6573d6000803e3d6000fd5b505050506040513d601f19601f820116820180604052508101906112ea9190613900565b10156113385760405162461bcd60e51b815260206004820152601a60248201527f496e73756666696369656e7420746f6b656e2062616c616e63650000000000006044820152606401610a5a565b60405163a9059cbb60e01b8152336004820152602481018390526001600160a01b0382169063a9059cbb906044016020604051808303816000875af1158015611385573d6000803e3d6000fd5b505050506040513d601f19601f820116820180604052508101906113a99190613919565b610b745760405162461bcd60e51b8152602060048201526015602482015274151bdad95b881d1c985b9cd9995c8819985a5b1959605a1b6044820152606401610a5a565b6000602081905290815260409020805461140690613848565b80601f016020809104026020016040519081016040528092919081815260200182805461143290613848565b801561147f5780601f106114545761010080835404028352916020019161147f565b820191906000526020600020905b81548152906001019060200180831161146257829003601f168201915b505050505081565b6040516bffffffffffffffffffffffff19606085901b16602082015260009081906034016040516020818303038152906040528051906020012090506115048484808060200260200160405190810160405280939291908181526020018383602002808284376000920191909152505060095491508490506124bc565b95945050505050565b610a083383836124d2565b611523848484610a34565b610abe84848484612583565b7ff0c57e16840df040f15088dc2f81fe391c3923bec73e23a9662efc9c229c6a008054600160401b810460ff16159067ffffffffffffffff166000811580156115755750825b905060008267ffffffffffffffff1660011480156115925750303b155b9050811580156115a0575080155b156115be5760405163f92ee8a960e01b815260040160405180910390fd5b845467ffffffffffffffff1916600117855583156115e857845460ff60401b1916600160401b1785555b61163a6040518060400160405280600f81526020016e48756d626c65446f6e6174696f6e7360881b8152506040518060400160405280600981526020016812111c1c9bda9958dd60ba1b8152506126ac565b6116426126be565b61164a6126be565b611653866126c6565b61165b6126be565b6116636126d7565b600f600555655af3107a4000600655600060025583156116bd57845460ff60401b19168555604051600181527fc7f505b2f371ae2175ee4913f4499e1f2633a7b5936321eed1cdaeb6115181d29060200160405180910390a15b505050505050565b606061093e826126e7565b6001600160a01b0391821660009081527f80bb2b638cc20bc4d0a60d66940f3ab4a00c1d7b313497ca82fb0b4ab00793056020908152604080832093909416825291909152205460ff1690565b611725611b89565b6006546007546117359190613936565b34101561177a5760405162461bcd60e51b8152602060048201526013602482015272139bdd08195b9bdd59da08115512081cd95b9d606a1b6044820152606401610a5a565b6117838361102c565b156117d05760405162461bcd60e51b815260206004820152601c60248201527f4164647265737320616c7265616479206f776e73206120746f6b656e000000006044820152606401610a5a565b6001816040516117e09190613882565b90815260200160405180910390205460001461183e5760405162461bcd60e51b815260206004820152601c60248201527f50726f6a656374207469746c6520616c726561647920657869737473000000006044820152606401610a5a565b60088054908190600061185083613949565b919050555061185f8482612813565b611869818461282d565b600081815260208190526040902061188183826139a8565b50806001836040516118939190613882565b908152604051908190036020018120919091556006547388b944e7e3d495b88caa62fb0158f697c9a1561d9181156108fc0291906000818181858888f193505050501580156118e6573d6000803e3d6000fd5b50836001600160a01b0316817f3c3fbb6a154e75fbef89d966d453c10b2ecc4dba66a0b8a755d720fae33a8fda84864260405161192593929190613a68565b60405180910390a350610b746001600080516020613bd283398151915255565b61194d611b2e565b6001600160a01b03811661197757604051631e4fbdf760e01b815260006004820152602401610a5a565b610b5681612410565b60006001600160e01b03198216632483248360e11b148061093e575061093e826128a0565b6000806119b1836128f0565b90506001600160a01b03811661093e57604051637e27328960e01b815260048101849052602401610a5a565b60009081527f80bb2b638cc20bc4d0a60d66940f3ab4a00c1d7b313497ca82fb0b4ab007930460205260409020546001600160a01b031690565b610b74838383600161292a565b6000600080516020613b9283398151915281611a3f856128f0565b90506001600160a01b03841615611a5b57611a5b818587612a40565b6001600160a01b03811615611a9b57611a7860008660008061292a565b6001600160a01b0381166000908152600383016020526040902080546000190190555b6001600160a01b03861615611acc576001600160a01b03861660009081526003830160205260409020805460010190555b600085815260028301602052604080822080546001600160a01b0319166001600160a01b038a811691821790925591518893918516917fddf252ad1be2c89b69c2b068fc378daa952ba7f163c4a11628f55a4df523b3ef91a495945050505050565b33611b607f9016d09d72d40fdae2fd8ceac6b6234c7706214fd39c1cd1e609a0528c199300546001600160a01b031690565b6001600160a01b03161461109a5760405163118cdaa760e01b8152336004820152602401610a5a565b600080516020613bd2833981519152805460011901611bbb57604051633ee5aeb560e01b815260040160405180910390fd5b60029055565b6000808311611c125760405162461bcd60e51b815260206004820181905260248201527f416d6f756e7420696e206d7573742062652067726561746572207468616e20306044820152606401610a5a565b60006004611c218560036138b4565b611c2b91906138cb565b905060008111611c975760405162461bcd60e51b815260206004820152603160248201527f5468726565207175617274657273206f6620616d6f756e74496e206d75737420604482015270062652067726561746572207468616e203607c1b6064820152608401610a5a565b6004805460408051630d0e30db60e41b815290516001600160a01b039092169263d0e30db0928592808301926000929182900301818588803b158015611cdc57600080fd5b505af1158015611cf0573d6000803e3d6000fd5b50505050506000600285611d0491906138cb565b90506000611d136004876138cb565b600454909150611d41906001600160a01b03167388b944e7e3d495b88caa62fb0158f697c9a1561d84612aa4565b600454611d6c906001600160a01b031673fda30f9d6a3864f092586cf755fc8fcdaf8bb5ae83612aa4565b6040805160e081018252600480546001600160a01b03908116835260035481166020840152610bb8838501523060608401526080830185905260a08301899052600060c084015292516304e45aaf60e01b815291927f000000000000000000000000000000000000000000000000000000000000000016916304e45aaf918591611df891869101613a9e565b60206040518083038185885af1158015611e16573d6000803e3d6000fd5b50505050506040513d601f19601f82011682018060405250810190611e3b9190613900565b600354909550611e69906001600160a01b031673fda30f9d6a3864f092586cf755fc8fcdaf8bb5ae87612aa4565b5050505092915050565b6000611e8a6001600160a01b0386163330876121ca565b611eb5857f000000000000000000000000000000000000000000000000000000000000000086612b9d565b60045460009081906001600160a01b0390811690881603611f4657611edb6002876138cb565b9150611ee86004876138cb565b600454909150611f16906001600160a01b03167388b944e7e3d495b88caa62fb0158f697c9a1561d84612c96565b600454611f41906001600160a01b031673fda30f9d6a3864f092586cf755fc8fcdaf8bb5ae83612c96565b612087565b6040805160e0810182526001600160a01b03808a1682526004805482166020840152610bb883850152306060840152608083018a905260a08301899052600060c084015292516304e45aaf60e01b815291927f0000000000000000000000000000000000000000000000000000000000000000909116916304e45aaf91611fcf91859101613a9e565b6020604051808303816000875af1158015611fee573d6000803e3d6000fd5b505050506040513d601f19601f820116820180604052508101906120129190613900565b935061201f6002856138cb565b925061202c6004856138cb565b60045490925061205a906001600160a01b03167388b944e7e3d495b88caa62fb0158f697c9a1561d85612c96565b600454612085906001600160a01b031673fda30f9d6a3864f092586cf755fc8fcdaf8bb5ae84612c96565b505b6004546120be906001600160a01b03167f000000000000000000000000000000000000000000000000000000000000000083612b9d565b6040805160e081018252600480546001600160a01b03908116835260035481166020840152610bb8838501523060608401526080830185905260a08301889052600060c0840181905293516304e45aaf60e01b81529293927f0000000000000000000000000000000000000000000000000000000000000000909116916304e45aaf9161214d91869101613a9e565b6020604051808303816000875af115801561216c573d6000803e3d6000fd5b505050506040513d601f19601f820116820180604052508101906121909190613900565b6003549091506121be906001600160a01b031673fda30f9d6a3864f092586cf755fc8fcdaf8bb5ae83612c96565b50505050949350505050565b6040516001600160a01b038481166024830152838116604483015260648201839052610abe9186918216906323b872dd906084015b604051602081830303815290604052915060e01b6020820180516001600160e01b038381831617835250505050612cc7565b6001600080516020613bd283398151915255565b306001600160a01b037f00000000000000000000000000000000000000000000000000000000000000001614806122cc57507f00000000000000000000000000000000000000000000000000000000000000006001600160a01b03166122c0600080516020613bb2833981519152546001600160a01b031690565b6001600160a01b031614155b1561109a5760405163703e46dd60e11b815260040160405180910390fd5b6122f2611b2e565b6002805490600061230283613949565b919050555050565b816001600160a01b03166352d1902d6040518163ffffffff1660e01b8152600401602060405180830381865afa925050508015612364575060408051601f3d908101601f1916820190925261236191810190613900565b60015b61238c57604051634c9c8ce360e01b81526001600160a01b0383166004820152602401610a5a565b600080516020613bb283398151915281146123bd57604051632a87526960e21b815260048101829052602401610a5a565b610b748383612d2a565b306001600160a01b037f0000000000000000000000000000000000000000000000000000000000000000161461109a5760405163703e46dd60e11b815260040160405180910390fd5b7f9016d09d72d40fdae2fd8ceac6b6234c7706214fd39c1cd1e609a0528c19930080546001600160a01b031981166001600160a01b03848116918217845560405192169182907f8be0079c531659141344cd1fd0a4f28419497f9722a3daafe3b4186f6b6457e090600090a3505050565b60006124906000836000611a24565b90506001600160a01b038116610a0857604051637e27328960e01b815260048101839052602401610a5a565b6000826124c98584612d80565b14949350505050565b600080516020613b928339815191526001600160a01b03831661251357604051630b61174360e31b81526001600160a01b0384166004820152602401610a5a565b6001600160a01b038481166000818152600584016020908152604080832094881680845294825291829020805460ff191687151590811790915591519182527f17307eab39ab6107e8899845ad3d59bd9653f200f220920489ca2b5937696c31910160405180910390a350505050565b6001600160a01b0383163b15610abe57604051630a85bd0160e11b81526001600160a01b0384169063150b7a02906125c5903390889087908790600401613afc565b6020604051808303816000875af1925050508015612600575060408051601f3d908101601f191682019092526125fd91810190613b2f565b60015b612669573d80801561262e576040519150601f19603f3d011682016040523d82523d6000602084013e612633565b606091505b50805160000361266157604051633250574960e11b81526001600160a01b0385166004820152602401610a5a565b805181602001fd5b6001600160e01b03198116630a85bd0160e11b146126a557604051633250574960e11b81526001600160a01b0385166004820152602401610a5a565b5050505050565b6126b4612dcd565b610a088282612e16565b61109a612dcd565b6126ce612dcd565b610b5681612e47565b6126df612dcd565b61109a612e4f565b60607f0542a41881ee128a365a727b282c86fa859579490b9bb45aab8503648c8e7900612713836119a5565b506000838152602082905260408120805461272d90613848565b80601f016020809104026020016040519081016040528092919081815260200182805461275990613848565b80156127a65780601f1061277b576101008083540402835291602001916127a6565b820191906000526020600020905b81548152906001019060200180831161278957829003601f168201915b5050505050905060006127c460408051602081019091526000815290565b905080516000036127d757509392505050565b81511561280a5780826040516020016127f1929190613b4c565b6040516020818303038152906040529350505050919050565b61150485612e57565b610a08828260405180602001604052806000815250612ecb565b60008281527f0542a41881ee128a365a727b282c86fa859579490b9bb45aab8503648c8e79006020819052604090912061286783826139a8565b506040518381527ff8e1a15aba9398e019f0b49df1a4fde98ee17ae345cb5f6b5e2c27f5033e8ce79060200160405180910390a1505050565b60006001600160e01b031982166380ac58cd60e01b14806128d157506001600160e01b03198216635b5e139f60e01b145b8061093e57506301ffc9a760e01b6001600160e01b031983161461093e565b60009081527f80bb2b638cc20bc4d0a60d66940f3ab4a00c1d7b313497ca82fb0b4ab007930260205260409020546001600160a01b031690565b600080516020613b92833981519152818061294d57506001600160a01b03831615155b15612a0f57600061295d856119a5565b90506001600160a01b038416158015906129895750836001600160a01b0316816001600160a01b031614155b801561299c575061299a81856116d0565b155b156129c55760405163a9fbf51f60e01b81526001600160a01b0385166004820152602401610a5a565b8215612a0d5784866001600160a01b0316826001600160a01b03167f8c5be1e5ebec7d5bd14f71427d1e84f3dd0314c0f7b2291e5b200ac8c7c3b92560405160405180910390a45b505b600093845260040160205250506040902080546001600160a01b0319166001600160a01b0392909216919091179055565b612a4b838383612ee2565b610b74576001600160a01b038316612a7957604051637e27328960e01b815260048101829052602401610a5a565b60405163177e802f60e01b81526001600160a01b038316600482015260248101829052604401610a5a565b604080516001600160a01b038481166024830152604480830185905283518084039091018152606490920183526020820180516001600160e01b031663a9059cbb60e01b1790529151600092839290871691612b009190613882565b6000604051808303816000865af19150503d8060008114612b3d576040519150601f19603f3d011682016040523d82523d6000602084013e612b42565b606091505b5091509150818015612b6c575080511580612b6c575080806020019051810190612b6c9190613919565b6126a55760405162461bcd60e51b815260206004820152600260248201526114d560f21b6044820152606401610a5a565b604080516001600160a01b038481166024830152604480830185905283518084039091018152606490920183526020820180516001600160e01b031663095ea7b360e01b1790529151600092839290871691612bf99190613882565b6000604051808303816000865af19150503d8060008114612c36576040519150601f19603f3d011682016040523d82523d6000602084013e612c3b565b606091505b5091509150818015612c65575080511580612c65575080806020019051810190612c659190613919565b6126a55760405162461bcd60e51b8152602060048201526002602482015261534160f01b6044820152606401610a5a565b6040516001600160a01b03838116602483015260448201839052610b7491859182169063a9059cbb906064016121ff565b6000612cdc6001600160a01b03841683612f48565b90508051600014158015612d01575080806020019051810190612cff9190613919565b155b15610b7457604051635274afe760e01b81526001600160a01b0384166004820152602401610a5a565b612d3382612f56565b6040516001600160a01b038316907fbc7cd75a20ee27fd9adebab32041f755214dbc6bffa90cc0225b39da2e5c2d3b90600090a2805115612d7857610b748282612fbb565b610a08613028565b600081815b8451811015612dc557612db182868381518110612da457612da4613b7b565b6020026020010151613047565b915080612dbd81613949565b915050612d85565b509392505050565b7ff0c57e16840df040f15088dc2f81fe391c3923bec73e23a9662efc9c229c6a0054600160401b900460ff1661109a57604051631afcd79f60e31b815260040160405180910390fd5b612e1e612dcd565b600080516020613b9283398151915280612e3884826139a8565b5060018101610abe83826139a8565b61194d612dcd565b612231612dcd565b6060612e62826119a5565b506000612e7a60408051602081019091526000815290565b90506000815111612e9a57604051806020016040528060008152506111a7565b80612ea484613076565b604051602001612eb5929190613b4c565b6040516020818303038152906040529392505050565b612ed58383613109565b610b746000848484612583565b60006001600160a01b03831615801590612f405750826001600160a01b0316846001600160a01b03161480612f1c5750612f1c84846116d0565b80612f405750826001600160a01b0316612f35836119dd565b6001600160a01b0316145b949350505050565b60606111a78383600061316e565b806001600160a01b03163b600003612f8c57604051634c9c8ce360e01b81526001600160a01b0382166004820152602401610a5a565b600080516020613bb283398151915280546001600160a01b0319166001600160a01b0392909216919091179055565b6060600080846001600160a01b031684604051612fd89190613882565b600060405180830381855af49150503d8060008114613013576040519150601f19603f3d011682016040523d82523d6000602084013e613018565b606091505b509150915061150485838361320b565b341561109a5760405163b398979f60e01b815260040160405180910390fd5b60008183106130635760008281526020849052604090206111a7565b60008381526020839052604090206111a7565b6060600061308383613267565b600101905060008167ffffffffffffffff8111156130a3576130a361345d565b6040519080825280601f01601f1916602001820160405280156130cd576020820181803683370190505b5090508181016020015b600019016f181899199a1a9b1b9c1cb0b131b232b360811b600a86061a8153600a85049450846130d757509392505050565b6001600160a01b03821661313357604051633250574960e11b815260006004820152602401610a5a565b600061314183836000611a24565b90506001600160a01b03811615610b74576040516339e3563760e11b815260006004820152602401610a5a565b6060814710156131935760405163cd78605960e01b8152306004820152602401610a5a565b600080856001600160a01b031684866040516131af9190613882565b60006040518083038185875af1925050503d80600081146131ec576040519150601f19603f3d011682016040523d82523d6000602084013e6131f1565b606091505b509150915061320186838361320b565b9695505050505050565b6060826132205761321b8261333f565b6111a7565b815115801561323757506001600160a01b0384163b155b1561326057604051639996b31560e01b81526001600160a01b0385166004820152602401610a5a565b50806111a7565b60008072184f03e93ff9f4daa797ed6e38ed64bf6a1f0160401b83106132a65772184f03e93ff9f4daa797ed6e38ed64bf6a1f0160401b830492506040015b6d04ee2d6d415b85acef810000000083106132d2576d04ee2d6d415b85acef8100000000830492506020015b662386f26fc1000083106132f057662386f26fc10000830492506010015b6305f5e1008310613308576305f5e100830492506008015b612710831061331c57612710830492506004015b6064831061332e576064830492506002015b600a831061093e5760010192915050565b80511561334f5780518082602001fd5b604051630a12f52160e11b815260040160405180910390fd5b6001600160e01b031981168114610b5657600080fd5b60006020828403121561339057600080fd5b81356111a781613368565b60005b838110156133b657818101518382015260200161339e565b50506000910152565b600081518084526133d781602086016020860161339b565b601f01601f19169290920160200192915050565b6020815260006111a760208301846133bf565b60006020828403121561341057600080fd5b5035919050565b80356001600160a01b038116811461342e57600080fd5b919050565b6000806040838503121561344657600080fd5b61344f83613417565b946020939093013593505050565b634e487b7160e01b600052604160045260246000fd5b600082601f83011261348457600080fd5b813567ffffffffffffffff8082111561349f5761349f61345d565b604051601f8301601f19908116603f011681019082821181831017156134c7576134c761345d565b816040528381528660208588010111156134e057600080fd5b836020870160208301376000602085830101528094505050505092915050565b60006020828403121561351257600080fd5b813567ffffffffffffffff81111561352957600080fd5b612f4084828501613473565b60008060006060848603121561354a57600080fd5b61355384613417565b925061356160208501613417565b9150604084013590509250925092565b60008083601f84011261358357600080fd5b50813567ffffffffffffffff81111561359b57600080fd5b6020830191508360208260051b85010111156135b657600080fd5b9250929050565b600080600080600080600060c0888a0312156135d857600080fd5b873596506135e860208901613417565b955060408801359450606088013593506080880135925060a088013567ffffffffffffffff81111561361957600080fd5b6136258a828b01613571565b989b979a50959850939692959293505050565b6000806040838503121561364b57600080fd5b61365483613417565b9150602083013567ffffffffffffffff81111561367057600080fd5b61367c85828601613473565b9150509250929050565b60006020828403121561369857600080fd5b6111a782613417565b6000806000604084860312156136b657600080fd5b6136bf84613417565b9250602084013567ffffffffffffffff8111156136db57600080fd5b6136e786828701613571565b9497909650939450505050565b8015158114610b5657600080fd5b6000806040838503121561371557600080fd5b61371e83613417565b9150602083013561372e816136f4565b809150509250929050565b6000806000806080858703121561374f57600080fd5b61375885613417565b935061376660208601613417565b925060408501359150606085013567ffffffffffffffff81111561378957600080fd5b61379587828801613473565b91505092959194509250565b600080604083850312156137b457600080fd5b6137bd83613417565b91506137cb60208401613417565b90509250929050565b6000806000606084860312156137e957600080fd5b6137f284613417565b9250602084013567ffffffffffffffff8082111561380f57600080fd5b61381b87838801613473565b9350604086013591508082111561383157600080fd5b5061383e86828701613473565b9150509250925092565b600181811c9082168061385c57607f821691505b60208210810361387c57634e487b7160e01b600052602260045260246000fd5b50919050565b6000825161389481846020870161339b565b9190910192915050565b634e487b7160e01b600052601160045260246000fd5b808202811582820484141761093e5761093e61389e565b6000826138e857634e487b7160e01b600052601260045260246000fd5b500490565b8181038181111561093e5761093e61389e565b60006020828403121561391257600080fd5b5051919050565b60006020828403121561392b57600080fd5b81516111a7816136f4565b8082018082111561093e5761093e61389e565b60006001820161395b5761395b61389e565b5060010190565b601f821115610b7457600081815260208120601f850160051c810160208610156139895750805b601f850160051c820191505b818110156116bd57828155600101613995565b815167ffffffffffffffff8111156139c2576139c261345d565b6139d6816139d08454613848565b84613962565b602080601f831160018114613a0b57600084156139f35750858301515b600019600386901b1c1916600185901b1785556116bd565b600085815260208120601f198616915b82811015613a3a57888601518255948401946001909101908401613a1b565b5085821015613a585787850151600019600388901b60f8161c191681555b5050505050600190811b01905550565b606081526000613a7b60608301866133bf565b8281036020840152613a8d81866133bf565b915050826040830152949350505050565b81516001600160a01b03908116825260208084015182169083015260408084015162ffffff16908301526060808401518216908301526080808401519083015260a0838101519083015260c092830151169181019190915260e00190565b6001600160a01b0385811682528416602082015260408101839052608060608201819052600090613201908301846133bf565b600060208284031215613b4157600080fd5b81516111a781613368565b60008351613b5e81846020880161339b565b835190830190613b7281836020880161339b565b01949350505050565b634e487b7160e01b600052603260045260246000fdfe80bb2b638cc20bc4d0a60d66940f3ab4a00c1d7b313497ca82fb0b4ab0079300360894a13ba1a3210667c828492db98dca3e2076cc3735a920a3ca505d382bbc9b779b17422d0df92223018b32b4d1fa46e071723d6817e2486d003becc55f00a26469706673582212202a5dd536f42568c5738a730227d3b6d0685709a2d4d1bd2e5ed9bf971a9ddb5164736f6c63430008140033",
  "linkReferences": {},
  "deployedLinkReferences": {}
}