{
  "_format": "hh-sol-artifact-1",
  "contractName": "HumbleDonations",
  "sourceName": "contracts/HumbleDonations.sol",
  "abi": [
    {
      "inputs": [],
      "stateMutability": "nonpayable",
      "type": "constructor"
    },
    {
      "inputs": [
        {
          "internalType": "address",
          "name": "target",
          "type": "address"
        }
      ],
      "name": "AddressEmptyCode",
      "type": "error"
    },
    {
      "inputs": [
        {
          "internalType": "address",
          "name": "implementation",
          "type": "address"
        }
      ],
      "name": "ERC1967InvalidImplementation",
      "type": "error"
    },
    {
      "inputs": [],
      "name": "ERC1967NonPayable",
      "type": "error"
    },
    {
      "inputs": [
        {
          "internalType": "address",
          "name": "sender",
          "type": "address"
        },
        {
          "internalType": "uint256",
          "name": "tokenId",
          "type": "uint256"
        },
        {
          "internalType": "address",
          "name": "owner",
          "type": "address"
        }
      ],
      "name": "ERC721IncorrectOwner",
      "type": "error"
    },
    {
      "inputs": [
        {
          "internalType": "address",
          "name": "operator",
          "type": "address"
        },
        {
          "internalType": "uint256",
          "name": "tokenId",
          "type": "uint256"
        }
      ],
      "name": "ERC721InsufficientApproval",
      "type": "error"
    },
    {
      "inputs": [
        {
          "internalType": "address",
          "name": "approver",
          "type": "address"
        }
      ],
      "name": "ERC721InvalidApprover",
      "type": "error"
    },
    {
      "inputs": [
        {
          "internalType": "address",
          "name": "operator",
          "type": "address"
        }
      ],
      "name": "ERC721InvalidOperator",
      "type": "error"
    },
    {
      "inputs": [
        {
          "internalType": "address",
          "name": "owner",
          "type": "address"
        }
      ],
      "name": "ERC721InvalidOwner",
      "type": "error"
    },
    {
      "inputs": [
        {
          "internalType": "address",
          "name": "receiver",
          "type": "address"
        }
      ],
      "name": "ERC721InvalidReceiver",
      "type": "error"
    },
    {
      "inputs": [
        {
          "internalType": "address",
          "name": "sender",
          "type": "address"
        }
      ],
      "name": "ERC721InvalidSender",
      "type": "error"
    },
    {
      "inputs": [
        {
          "internalType": "uint256",
          "name": "tokenId",
          "type": "uint256"
        }
      ],
      "name": "ERC721NonexistentToken",
      "type": "error"
    },
    {
      "inputs": [],
      "name": "FailedInnerCall",
      "type": "error"
    },
    {
      "inputs": [],
      "name": "InvalidInitialization",
      "type": "error"
    },
    {
      "inputs": [],
      "name": "NotInitializing",
      "type": "error"
    },
    {
      "inputs": [
        {
          "internalType": "address",
          "name": "owner",
          "type": "address"
        }
      ],
      "name": "OwnableInvalidOwner",
      "type": "error"
    },
    {
      "inputs": [
        {
          "internalType": "address",
          "name": "account",
          "type": "address"
        }
      ],
      "name": "OwnableUnauthorizedAccount",
      "type": "error"
    },
    {
      "inputs": [],
      "name": "ReentrancyGuardReentrantCall",
      "type": "error"
    },
    {
      "inputs": [],
      "name": "UUPSUnauthorizedCallContext",
      "type": "error"
    },
    {
      "inputs": [
        {
          "internalType": "bytes32",
          "name": "slot",
          "type": "bytes32"
        }
      ],
      "name": "UUPSUnsupportedProxiableUUID",
      "type": "error"
    },
    {
      "anonymous": false,
      "inputs": [
        {
          "indexed": true,
          "internalType": "address",
          "name": "owner",
          "type": "address"
        },
        {
          "indexed": true,
          "internalType": "address",
          "name": "approved",
          "type": "address"
        },
        {
          "indexed": true,
          "internalType": "uint256",
          "name": "tokenId",
          "type": "uint256"
        }
      ],
      "name": "Approval",
      "type": "event"
    },
    {
      "anonymous": false,
      "inputs": [
        {
          "indexed": true,
          "internalType": "address",
          "name": "owner",
          "type": "address"
        },
        {
          "indexed": true,
          "internalType": "address",
          "name": "operator",
          "type": "address"
        },
        {
          "indexed": false,
          "internalType": "bool",
          "name": "approved",
          "type": "bool"
        }
      ],
      "name": "ApprovalForAll",
      "type": "event"
    },
    {
      "anonymous": false,
      "inputs": [
        {
          "indexed": false,
          "internalType": "uint256",
          "name": "_fromTokenId",
          "type": "uint256"
        },
        {
          "indexed": false,
          "internalType": "uint256",
          "name": "_toTokenId",
          "type": "uint256"
        }
      ],
      "name": "BatchMetadataUpdate",
      "type": "event"
    },
    {
      "anonymous": false,
      "inputs": [
        {
          "indexed": true,
          "internalType": "uint256",
          "name": "tokenId",
          "type": "uint256"
        },
        {
          "indexed": true,
          "internalType": "address",
          "name": "donor",
          "type": "address"
        },
        {
          "indexed": false,
          "internalType": "address",
          "name": "erc20Token",
          "type": "address"
        },
        {
          "indexed": false,
          "internalType": "uint256",
          "name": "amount",
          "type": "uint256"
        },
        {
          "indexed": false,
          "internalType": "uint256",
          "name": "timestamp",
          "type": "uint256"
        }
      ],
      "name": "DonationMade",
      "type": "event"
    },
    {
      "anonymous": false,
      "inputs": [
        {
          "indexed": false,
          "internalType": "uint64",
          "name": "version",
          "type": "uint64"
        }
      ],
      "name": "Initialized",
      "type": "event"
    },
    {
      "anonymous": false,
      "inputs": [
        {
          "indexed": false,
          "internalType": "uint256",
          "name": "_tokenId",
          "type": "uint256"
        }
      ],
      "name": "MetadataUpdate",
      "type": "event"
    },
    {
      "anonymous": false,
      "inputs": [
        {
          "indexed": true,
          "internalType": "address",
          "name": "previousOwner",
          "type": "address"
        },
        {
          "indexed": true,
          "internalType": "address",
          "name": "newOwner",
          "type": "address"
        }
      ],
      "name": "OwnershipTransferred",
      "type": "event"
    },
    {
      "anonymous": false,
      "inputs": [
        {
          "indexed": true,
          "internalType": "uint256",
          "name": "tokenId",
          "type": "uint256"
        },
        {
          "indexed": true,
          "internalType": "address",
          "name": "owner",
          "type": "address"
        },
        {
          "indexed": false,
          "internalType": "string",
          "name": "projectTitle",
          "type": "string"
        },
        {
          "indexed": false,
          "internalType": "string",
          "name": "uri",
          "type": "string"
        },
        {
          "indexed": false,
          "internalType": "uint256",
          "name": "timestamp",
          "type": "uint256"
        }
      ],
      "name": "ProjectCreated",
      "type": "event"
    },
    {
      "anonymous": false,
      "inputs": [
        {
          "indexed": true,
          "internalType": "uint256",
          "name": "tokenId",
          "type": "uint256"
        },
        {
          "indexed": true,
          "internalType": "address",
          "name": "previousOwner",
          "type": "address"
        },
        {
          "indexed": true,
          "internalType": "address",
          "name": "burnAddress",
          "type": "address"
        },
        {
          "indexed": false,
          "internalType": "uint256",
          "name": "timestamp",
          "type": "uint256"
        }
      ],
      "name": "ProjectDeleted",
      "type": "event"
    },
    {
      "anonymous": false,
      "inputs": [
        {
          "indexed": true,
          "internalType": "address",
          "name": "from",
          "type": "address"
        },
        {
          "indexed": true,
          "internalType": "address",
          "name": "to",
          "type": "address"
        },
        {
          "indexed": true,
          "internalType": "uint256",
          "name": "tokenId",
          "type": "uint256"
        }
      ],
      "name": "Transfer",
      "type": "event"
    },
    {
      "anonymous": false,
      "inputs": [
        {
          "indexed": true,
          "internalType": "address",
          "name": "implementation",
          "type": "address"
        }
      ],
      "name": "Upgraded",
      "type": "event"
    },
    {
      "inputs": [],
      "name": "HDT",
      "outputs": [
        {
          "internalType": "address",
          "name": "",
          "type": "address"
        }
      ],
      "stateMutability": "view",
      "type": "function"
    },
    {
      "inputs": [],
      "name": "UPGRADE_INTERFACE_VERSION",
      "outputs": [
        {
          "internalType": "string",
          "name": "",
          "type": "string"
        }
      ],
      "stateMutability": "view",
      "type": "function"
    },
    {
      "inputs": [],
      "name": "WETH",
      "outputs": [
        {
          "internalType": "address",
          "name": "",
          "type": "address"
        }
      ],
      "stateMutability": "view",
      "type": "function"
    },
    {
      "inputs": [
        {
          "internalType": "address",
          "name": "to",
          "type": "address"
        },
        {
          "internalType": "uint256",
          "name": "tokenId",
          "type": "uint256"
        }
      ],
      "name": "approve",
      "outputs": [],
      "stateMutability": "nonpayable",
      "type": "function"
    },
    {
      "inputs": [
        {
          "internalType": "address",
          "name": "owner",
          "type": "address"
        }
      ],
      "name": "balanceOf",
      "outputs": [
        {
          "internalType": "uint256",
          "name": "",
          "type": "uint256"
        }
      ],
      "stateMutability": "view",
      "type": "function"
    },
    {
      "inputs": [
        {
          "internalType": "uint256",
          "name": "tokenId",
          "type": "uint256"
        }
      ],
      "name": "burn",
      "outputs": [],
      "stateMutability": "nonpayable",
      "type": "function"
    },
    {
      "inputs": [
        {
          "internalType": "uint256",
          "name": "tokenId",
          "type": "uint256"
        }
      ],
      "name": "burnToken",
      "outputs": [],
      "stateMutability": "nonpayable",
      "type": "function"
    },
    {
      "inputs": [
        {
          "internalType": "uint256",
          "name": "tokenId",
          "type": "uint256"
        },
        {
          "internalType": "address",
          "name": "erc20Token",
          "type": "address"
        },
        {
          "internalType": "uint256",
          "name": "amount",
          "type": "uint256"
        }
      ],
      "name": "donate",
      "outputs": [],
      "stateMutability": "payable",
      "type": "function"
    },
    {
      "inputs": [],
      "name": "fees",
      "outputs": [
        {
          "internalType": "uint256",
          "name": "",
          "type": "uint256"
        }
      ],
      "stateMutability": "view",
      "type": "function"
    },
    {
      "inputs": [
        {
          "internalType": "uint256",
          "name": "tokenId",
          "type": "uint256"
        }
      ],
      "name": "getApproved",
      "outputs": [
        {
          "internalType": "address",
          "name": "",
          "type": "address"
        }
      ],
      "stateMutability": "view",
      "type": "function"
    },
    {
      "inputs": [],
      "name": "getHDT",
      "outputs": [
        {
          "internalType": "address",
          "name": "",
          "type": "address"
        }
      ],
      "stateMutability": "view",
      "type": "function"
    },
    {
      "inputs": [
        {
          "internalType": "string",
          "name": "projectTitle",
          "type": "string"
        }
      ],
      "name": "getOwnerByProjectTitle",
      "outputs": [
        {
          "internalType": "address",
          "name": "",
          "type": "address"
        }
      ],
      "stateMutability": "view",
      "type": "function"
    },
    {
      "inputs": [],
      "name": "getPercentage",
      "outputs": [
        {
          "internalType": "uint256",
          "name": "",
          "type": "uint256"
        }
      ],
      "stateMutability": "view",
      "type": "function"
    },
    {
      "inputs": [
        {
          "internalType": "string",
          "name": "projectTitle",
          "type": "string"
        }
      ],
      "name": "getTokenId",
      "outputs": [
        {
          "internalType": "uint256",
          "name": "",
          "type": "uint256"
        }
      ],
      "stateMutability": "view",
      "type": "function"
    },
    {
      "inputs": [],
      "name": "getUpgradeCount",
      "outputs": [
        {
          "internalType": "uint256",
          "name": "",
          "type": "uint256"
        }
      ],
      "stateMutability": "view",
      "type": "function"
    },
    {
      "inputs": [],
      "name": "getWETH",
      "outputs": [
        {
          "internalType": "address",
          "name": "",
          "type": "address"
        }
      ],
      "stateMutability": "view",
      "type": "function"
    },
    {
      "inputs": [],
      "name": "get_mintRate",
      "outputs": [
        {
          "internalType": "uint256",
          "name": "",
          "type": "uint256"
        }
      ],
      "stateMutability": "view",
      "type": "function"
    },
    {
      "inputs": [
        {
          "internalType": "address",
          "name": "initialOwner",
          "type": "address"
        }
      ],
      "name": "initialize",
      "outputs": [],
      "stateMutability": "nonpayable",
      "type": "function"
    },
    {
      "inputs": [
        {
          "internalType": "address",
          "name": "owner",
          "type": "address"
        },
        {
          "internalType": "address",
          "name": "operator",
          "type": "address"
        }
      ],
      "name": "isApprovedForAll",
      "outputs": [
        {
          "internalType": "bool",
          "name": "",
          "type": "bool"
        }
      ],
      "stateMutability": "view",
      "type": "function"
    },
    {
      "inputs": [],
      "name": "latestTokenId",
      "outputs": [
        {
          "internalType": "uint256",
          "name": "",
          "type": "uint256"
        }
      ],
      "stateMutability": "view",
      "type": "function"
    },
    {
      "inputs": [],
      "name": "mintRate",
      "outputs": [
        {
          "internalType": "uint256",
          "name": "",
          "type": "uint256"
        }
      ],
      "stateMutability": "view",
      "type": "function"
    },
    {
      "inputs": [],
      "name": "name",
      "outputs": [
        {
          "internalType": "string",
          "name": "",
          "type": "string"
        }
      ],
      "stateMutability": "view",
      "type": "function"
    },
    {
      "inputs": [],
      "name": "owner",
      "outputs": [
        {
          "internalType": "address",
          "name": "",
          "type": "address"
        }
      ],
      "stateMutability": "view",
      "type": "function"
    },
    {
      "inputs": [
        {
          "internalType": "uint256",
          "name": "tokenId",
          "type": "uint256"
        }
      ],
      "name": "ownerOf",
      "outputs": [
        {
          "internalType": "address",
          "name": "",
          "type": "address"
        }
      ],
      "stateMutability": "view",
      "type": "function"
    },
    {
      "inputs": [],
      "name": "poolFee",
      "outputs": [
        {
          "internalType": "uint24",
          "name": "",
          "type": "uint24"
        }
      ],
      "stateMutability": "view",
      "type": "function"
    },
    {
      "inputs": [
        {
          "internalType": "string",
          "name": "",
          "type": "string"
        }
      ],
      "name": "projectTitleToTokenId",
      "outputs": [
        {
          "internalType": "uint256",
          "name": "",
          "type": "uint256"
        }
      ],
      "stateMutability": "view",
      "type": "function"
    },
    {
      "inputs": [],
      "name": "proxiableUUID",
      "outputs": [
        {
          "internalType": "bytes32",
          "name": "",
          "type": "bytes32"
        }
      ],
      "stateMutability": "view",
      "type": "function"
    },
    {
      "inputs": [],
      "name": "renounceOwnership",
      "outputs": [],
      "stateMutability": "nonpayable",
      "type": "function"
    },
    {
      "inputs": [
        {
          "internalType": "address",
          "name": "to",
          "type": "address"
        },
        {
          "internalType": "string",
          "name": "uri",
          "type": "string"
        },
        {
          "internalType": "string",
          "name": "projectTitle",
          "type": "string"
        }
      ],
      "name": "safeMint",
      "outputs": [],
      "stateMutability": "payable",
      "type": "function"
    },
    {
      "inputs": [
        {
          "internalType": "address",
          "name": "from",
          "type": "address"
        },
        {
          "internalType": "address",
          "name": "to",
          "type": "address"
        },
        {
          "internalType": "uint256",
          "name": "tokenId",
          "type": "uint256"
        }
      ],
      "name": "safeTransferFrom",
      "outputs": [],
      "stateMutability": "nonpayable",
      "type": "function"
    },
    {
      "inputs": [
        {
          "internalType": "address",
          "name": "from",
          "type": "address"
        },
        {
          "internalType": "address",
          "name": "to",
          "type": "address"
        },
        {
          "internalType": "uint256",
          "name": "tokenId",
          "type": "uint256"
        },
        {
          "internalType": "bytes",
          "name": "data",
          "type": "bytes"
        }
      ],
      "name": "safeTransferFrom",
      "outputs": [],
      "stateMutability": "nonpayable",
      "type": "function"
    },
    {
      "inputs": [
        {
          "internalType": "address",
          "name": "operator",
          "type": "address"
        },
        {
          "internalType": "bool",
          "name": "approved",
          "type": "bool"
        }
      ],
      "name": "setApprovalForAll",
      "outputs": [],
      "stateMutability": "nonpayable",
      "type": "function"
    },
    {
      "inputs": [
        {
          "internalType": "address",
          "name": "_HDT",
          "type": "address"
        }
      ],
      "name": "setHDT",
      "outputs": [],
      "stateMutability": "nonpayable",
      "type": "function"
    },
    {
      "inputs": [
        {
          "internalType": "uint256",
          "name": "tax",
          "type": "uint256"
        }
      ],
      "name": "setTaxPercentage",
      "outputs": [],
      "stateMutability": "nonpayable",
      "type": "function"
    },
    {
      "inputs": [
        {
          "internalType": "address",
          "name": "_WETH",
          "type": "address"
        }
      ],
      "name": "setWETH",
      "outputs": [],
      "stateMutability": "nonpayable",
      "type": "function"
    },
    {
      "inputs": [
        {
          "internalType": "uint256",
          "name": "_mintRate",
          "type": "uint256"
        }
      ],
      "name": "set_mintRate",
      "outputs": [],
      "stateMutability": "nonpayable",
      "type": "function"
    },
    {
      "inputs": [
        {
          "internalType": "bytes4",
          "name": "interfaceId",
          "type": "bytes4"
        }
      ],
      "name": "supportsInterface",
      "outputs": [
        {
          "internalType": "bool",
          "name": "",
          "type": "bool"
        }
      ],
      "stateMutability": "view",
      "type": "function"
    },
    {
      "inputs": [],
      "name": "swapRouter",
      "outputs": [
        {
          "internalType": "contract IV3SwapRouter",
          "name": "",
          "type": "address"
        }
      ],
      "stateMutability": "view",
      "type": "function"
    },
    {
      "inputs": [],
      "name": "symbol",
      "outputs": [
        {
          "internalType": "string",
          "name": "",
          "type": "string"
        }
      ],
      "stateMutability": "view",
      "type": "function"
    },
    {
      "inputs": [],
      "name": "taxPercentage",
      "outputs": [
        {
          "internalType": "uint256",
          "name": "",
          "type": "uint256"
        }
      ],
      "stateMutability": "view",
      "type": "function"
    },
    {
      "inputs": [
        {
          "internalType": "uint256",
          "name": "",
          "type": "uint256"
        }
      ],
      "name": "tokenIdToProjectTitle",
      "outputs": [
        {
          "internalType": "string",
          "name": "",
          "type": "string"
        }
      ],
      "stateMutability": "view",
      "type": "function"
    },
    {
      "inputs": [
        {
          "internalType": "uint256",
          "name": "tokenId",
          "type": "uint256"
        }
      ],
      "name": "tokenURI",
      "outputs": [
        {
          "internalType": "string",
          "name": "",
          "type": "string"
        }
      ],
      "stateMutability": "view",
      "type": "function"
    },
    {
      "inputs": [
        {
          "internalType": "address",
          "name": "from",
          "type": "address"
        },
        {
          "internalType": "address",
          "name": "to",
          "type": "address"
        },
        {
          "internalType": "uint256",
          "name": "tokenId",
          "type": "uint256"
        }
      ],
      "name": "transferFrom",
      "outputs": [],
      "stateMutability": "nonpayable",
      "type": "function"
    },
    {
      "inputs": [
        {
          "internalType": "address",
          "name": "newOwner",
          "type": "address"
        }
      ],
      "name": "transferOwnership",
      "outputs": [],
      "stateMutability": "nonpayable",
      "type": "function"
    },
    {
      "inputs": [],
      "name": "upgradeCount",
      "outputs": [
        {
          "internalType": "uint256",
          "name": "",
          "type": "uint256"
        }
      ],
      "stateMutability": "view",
      "type": "function"
    },
    {
      "inputs": [
        {
          "internalType": "address",
          "name": "newImplementation",
          "type": "address"
        },
        {
          "internalType": "bytes",
          "name": "data",
          "type": "bytes"
        }
      ],
      "name": "upgradeToAndCall",
      "outputs": [],
      "stateMutability": "payable",
      "type": "function"
    },
    {
      "inputs": [],
      "name": "withdraw",
      "outputs": [],
      "stateMutability": "nonpayable",
      "type": "function"
    },
    {
      "inputs": [
        {
          "internalType": "address",
          "name": "erc20Token",
          "type": "address"
        },
        {
          "internalType": "uint256",
          "name": "amount",
          "type": "uint256"
        }
      ],
      "name": "withdrawToken",
      "outputs": [],
      "stateMutability": "nonpayable",
      "type": "function"
    }
  ],
  "bytecode": "0x60c060405230608052733bfa4769fb09eefc5a80d6e87c3b9c650f7ae48e60a0523480156200002d57600080fd5b50620000386200003e565b620000f2565b7ff0c57e16840df040f15088dc2f81fe391c3923bec73e23a9662efc9c229c6a00805468010000000000000000900460ff16156200008f5760405163f92ee8a960e01b815260040160405180910390fd5b80546001600160401b0390811614620000ef5780546001600160401b0319166001600160401b0390811782556040519081527fc7f505b2f371ae2175ee4913f4499e1f2633a7b5936321eed1cdaeb6115181d29060200160405180910390a15b50565b60805160a0516138f6620001496000396000818161074001528181611c6f01528181611d3401528181611e3e01528181611f3d0152611fbc0152600081816120e60152818161210f015261226801526138f66000f3fe6080604052600436106102935760003560e01c80638c0e83491161015a578063b88d4fde116100c1578063cae5f11e1161007a578063cae5f11e146107ce578063cd99b010146107ec578063e8ba1dff14610824578063e985e9c514610839578063eca81d4214610859578063f2fde38b1461086c57600080fd5b8063b88d4fde1461070e578063c31c9c071461072e578063c4128b6d14610762578063c4d66de814610778578063c87b56dd14610798578063ca0dcf16146107b857600080fd5b80639e281a98116101135780639e281a98146106475780639f4a7c1014610667578063a22cb46514610687578063ad3cb1cc146106a7578063ad5c4648146106d8578063ae7b6d16146106f857600080fd5b80638c0e83491461058a5780638da5cb5b1461059f57806391f7e397146105dc578063930baae8146105fc57806395d89b411461061c5780639af1d35a1461063157600080fd5b80634744f619116101fe5780636352211e116101b75780636352211e146104e0578063699abb3c146105005780636fa2fd591461052057806370a0823114610535578063715018a6146105555780637b47ec1a1461056a57600080fd5b80634744f6191461043a5780634f1ef2861461045a57806352d1902d1461046d57806356b1ddbb146104825780635b769f3c146104a25780635fea0294146104c257600080fd5b80631e7663bc116102505780631e7663bc1461039257806323b872dd146103b257806325fb2680146103d25780633ccfd60b146103e557806342842e0e146103fa57806342966c681461041a57600080fd5b806301ffc9a71461029857806306fdde03146102cd578063081812fc146102ef578063089fe6aa14610327578063095ea7b3146103515780630b2accb214610373575b600080fd5b3480156102a457600080fd5b506102b86102b336600461314e565b61088c565b60405190151581526020015b60405180910390f35b3480156102d957600080fd5b506102e261089d565b6040516102c491906131bb565b3480156102fb57600080fd5b5061030f61030a3660046131ce565b610941565b6040516001600160a01b0390911681526020016102c4565b34801561033357600080fd5b5061033d610bb881565b60405162ffffff90911681526020016102c4565b34801561035d57600080fd5b5061037161036c366004613203565b610956565b005b34801561037f57600080fd5b506005545b6040519081526020016102c4565b34801561039e57600080fd5b506103846103ad3660046132d0565b610965565b3480156103be57600080fd5b506103716103cd366004613305565b61098d565b6103716103e0366004613341565b610a1d565b3480156103f157600080fd5b50610371610f2f565b34801561040657600080fd5b50610371610415366004613305565b610fc4565b34801561042657600080fd5b506103716104353660046131ce565b610fdf565b34801561044657600080fd5b506103716104553660046131ce565b610feb565b610371610468366004613366565b610ff8565b34801561047957600080fd5b50610384611013565b34801561048e57600080fd5b5060035461030f906001600160a01b031681565b3480156104ae57600080fd5b506103716104bd3660046133b4565b611030565b3480156104ce57600080fd5b506003546001600160a01b031661030f565b3480156104ec57600080fd5b5061030f6104fb3660046131ce565b61105a565b34801561050c57600080fd5b5061037161051b3660046131ce565b611065565b34801561052c57600080fd5b50600254610384565b34801561054157600080fd5b506103846105503660046133b4565b611072565b34801561056157600080fd5b506103716110ce565b34801561057657600080fd5b506103716105853660046131ce565b6110e2565b34801561059657600080fd5b50600854610384565b3480156105ab57600080fd5b507f9016d09d72d40fdae2fd8ceac6b6234c7706214fd39c1cd1e609a0528c199300546001600160a01b031661030f565b3480156105e857600080fd5b5061030f6105f73660046132d0565b6111ab565b34801561060857600080fd5b506103716106173660046133b4565b6111f0565b34801561062857600080fd5b506102e261121a565b34801561063d57600080fd5b5061038460075481565b34801561065357600080fd5b50610371610662366004613203565b611259565b34801561067357600080fd5b506102e26106823660046131ce565b611426565b34801561069357600080fd5b506103716106a23660046133dd565b6114c0565b3480156106b357600080fd5b506102e2604051806040016040528060058152602001640352e302e360dc1b81525081565b3480156106e457600080fd5b5060045461030f906001600160a01b031681565b34801561070457600080fd5b5061038460055481565b34801561071a57600080fd5b50610371610729366004613414565b6114cb565b34801561073a57600080fd5b5061030f7f000000000000000000000000000000000000000000000000000000000000000081565b34801561076e57600080fd5b5061038460025481565b34801561078457600080fd5b506103716107933660046133b4565b6114e2565b3480156107a457600080fd5b506102e26107b33660046131ce565b611678565b3480156107c457600080fd5b5061038460065481565b3480156107da57600080fd5b506004546001600160a01b031661030f565b3480156107f857600080fd5b506103846108073660046132d0565b805160208183018101805160018252928201919093012091525481565b34801561083057600080fd5b50600654610384565b34801561084557600080fd5b506102b861085436600461347c565b611683565b6103716108673660046134af565b6116d0565b34801561087857600080fd5b506103716108873660046133b4565b6118f8565b600061089782611933565b92915050565b60008051602061386183398151915280546060919081906108bd90613523565b80601f01602080910402602001604051908101604052809291908181526020018280546108e990613523565b80156109365780601f1061090b57610100808354040283529160200191610936565b820191906000526020600020905b81548152906001019060200180831161091957829003601f168201915b505050505091505090565b600061094c82611958565b5061089782611990565b6109618282336119ca565b5050565b6000600182604051610977919061355d565b9081526020016040518091039020549050919050565b6001600160a01b0382166109bc57604051633250574960e11b8152600060048201526024015b60405180910390fd5b60006109c98383336119d7565b9050836001600160a01b0316816001600160a01b031614610a17576040516364283d7b60e01b81526001600160a01b03808616600483015260248201849052821660448201526064016109b3565b50505050565b610a25611ae1565b6000610a308461105a565b90506001600160a01b0381163303610a805760405162461bcd60e51b815260206004820152601360248201527221b0b73737ba103830bc903cb7bab939b2b63360691b60448201526064016109b3565b60008481526020819052604081208054610a9990613523565b905011610ae05760405162461bcd60e51b8152602060048201526015602482015274141c9bda9958dd081d1a5d1b19481b9bdd081cd95d605a1b60448201526064016109b3565b6000806103e860055485610af4919061358f565b610afe91906135a6565b60035490915085906001600160a01b03808316911614610d4c57610b2282866135c8565b92506001600160a01b038616610bc85784341015610b825760405162461bcd60e51b815260206004820152601c60248201527f496e636f727265637420616d6f756e74206f66204554482073656e740000000060448201526064016109b3565b610b8b82611b19565b506040516001600160a01b0385169084156108fc029085906000818181858888f19350505050158015610bc2573d6000803e3d6000fd5b50610ec3565b604051636eb1769f60e11b815233600482015230602482015285906001600160a01b0383169063dd62ed3e90604401602060405180830381865afa158015610c14573d6000803e3d6000fd5b505050506040513d601f19601f82011682018060405250810190610c3891906135db565b1015610c7f5760405162461bcd60e51b8152602060048201526016602482015275496e73756666696369656e7420616c6c6f77616e636560501b60448201526064016109b3565b610c898683611d20565b506040516323b872dd60e01b81523360048201526001600160a01b038581166024830152604482018590528216906323b872dd906064016020604051808303816000875af1158015610cdf573d6000803e3d6000fd5b505050506040513d601f19601f82011682018060405250810190610d0391906135f4565b610d475760405162461bcd60e51b8152602060048201526015602482015274151c985b9cd9995c881d1bdd185b0819985a5b1959605a1b60448201526064016109b3565b610ec3565b604051636eb1769f60e11b815233600482015230602482015285935083906001600160a01b0383169063dd62ed3e90604401602060405180830381865afa158015610d9b573d6000803e3d6000fd5b505050506040513d601f19601f82011682018060405250810190610dbf91906135db565b1015610e065760405162461bcd60e51b8152602060048201526016602482015275496e73756666696369656e7420616c6c6f77616e636560501b60448201526064016109b3565b6040516323b872dd60e01b81523360048201526001600160a01b038581166024830152604482018590528216906323b872dd906064016020604051808303816000875af1158015610e5b573d6000803e3d6000fd5b505050506040513d601f19601f82011682018060405250810190610e7f91906135f4565b610ec35760405162461bcd60e51b8152602060048201526015602482015274151c985b9cd9995c881d1bdd185b0819985a5b1959605a1b60448201526064016109b3565b604080516001600160a01b03881681526020810185905242818301529051339189917fda38851157f2984cc47615155e6daa02931c36f0ecaa4822d8b631b5b368eb6e9181900360600190a350505050610f2a60016000805160206138a183398151915255565b505050565b610f37612080565b604051600090339047908381818185875af1925050503d8060008114610f79576040519150601f19603f3d011682016040523d82523d6000602084013e610f7e565b606091505b5050905080610fc15760405162461bcd60e51b815260206004820152600f60248201526e151c985b9cd9995c8811985a5b1959608a1b60448201526064016109b3565b50565b610f2a838383604051806020016040528060008152506114cb565b610961600082336119d7565b610ff3612080565b600655565b6110006120db565b61100982612180565b61096182826121a0565b600061101d61225d565b5060008051602061388183398151915290565b611038612080565b600480546001600160a01b0319166001600160a01b0392909216919091179055565b600061089782611958565b61106d612080565b600555565b60006000805160206138618339815191526001600160a01b0383166110ad576040516322718ad960e21b8152600060048201526024016109b3565b6001600160a01b039092166000908152600390920160205250604090205490565b6110d6612080565b6110e060006122a6565b565b60006110ed8261105a565b9050336110f98361105a565b6001600160a01b03161461114f5760405162461bcd60e51b815260206004820152601760248201527f43616c6c6572206973206e6f7420746865206f776e657200000000000000000060448201526064016109b3565b61115882612317565b60006001600160a01b0316816001600160a01b0316837f4ef8c0478b7cb23d7c76bbb226f7898438ece317e83af2b79f9a015974efcc7f4260405161119f91815260200190565b60405180910390a45050565b6000806001836040516111be919061355d565b9081526020016040518091039020549050806000146111e7576111e08161105a565b9392505050565b50600092915050565b6111f8612080565b600380546001600160a01b0319166001600160a01b0392909216919091179055565b7f80bb2b638cc20bc4d0a60d66940f3ab4a00c1d7b313497ca82fb0b4ab00793018054606091600080516020613861833981519152916108bd90613523565b611261612080565b6001600160a01b0382166112b75760405162461bcd60e51b815260206004820152601c60248201527f496e76616c6964204552432d323020746f6b656e20616464726573730000000060448201526064016109b3565b6040516370a0823160e01b8152306004820152829082906001600160a01b038316906370a0823190602401602060405180830381865afa1580156112ff573d6000803e3d6000fd5b505050506040513d601f19601f8201168201806040525081019061132391906135db565b10156113715760405162461bcd60e51b815260206004820152601a60248201527f496e73756666696369656e7420746f6b656e2062616c616e636500000000000060448201526064016109b3565b60405163a9059cbb60e01b8152336004820152602481018390526001600160a01b0382169063a9059cbb906044016020604051808303816000875af11580156113be573d6000803e3d6000fd5b505050506040513d601f19601f820116820180604052508101906113e291906135f4565b610f2a5760405162461bcd60e51b8152602060048201526015602482015274151bdad95b881d1c985b9cd9995c8819985a5b1959605a1b60448201526064016109b3565b6000602081905290815260409020805461143f90613523565b80601f016020809104026020016040519081016040528092919081815260200182805461146b90613523565b80156114b85780601f1061148d576101008083540402835291602001916114b8565b820191906000526020600020905b81548152906001019060200180831161149b57829003601f168201915b505050505081565b610961338383612352565b6114d684848461098d565b610a1784848484612403565b7ff0c57e16840df040f15088dc2f81fe391c3923bec73e23a9662efc9c229c6a008054600160401b810460ff16159067ffffffffffffffff166000811580156115285750825b905060008267ffffffffffffffff1660011480156115455750303b155b905081158015611553575080155b156115715760405163f92ee8a960e01b815260040160405180910390fd5b845467ffffffffffffffff19166001178555831561159b57845460ff60401b1916600160401b1785555b6115ed6040518060400160405280600f81526020016e48756d626c65446f6e6174696f6e7360881b8152506040518060400160405280600981526020016812111c1c9bda9958dd60ba1b81525061252c565b6115f561253e565b6115fd61253e565b61160686612546565b61160e61253e565b611616612557565b600f600555655af3107a40006006556000600255831561167057845460ff60401b19168555604051600181527fc7f505b2f371ae2175ee4913f4499e1f2633a7b5936321eed1cdaeb6115181d29060200160405180910390a15b505050505050565b606061089782612567565b6001600160a01b0391821660009081527f80bb2b638cc20bc4d0a60d66940f3ab4a00c1d7b313497ca82fb0b4ab00793056020908152604080832093909416825291909152205460ff1690565b6116d8611ae1565b6006546007546116e89190613611565b34101561172d5760405162461bcd60e51b8152602060048201526013602482015272139bdd08195b9bdd59da08115512081cd95b9d606a1b60448201526064016109b3565b61173683611072565b156117835760405162461bcd60e51b815260206004820152601c60248201527f4164647265737320616c7265616479206f776e73206120746f6b656e0000000060448201526064016109b3565b600181604051611793919061355d565b9081526020016040518091039020546000146117f15760405162461bcd60e51b815260206004820152601c60248201527f50726f6a656374207469746c6520616c7265616479206578697374730000000060448201526064016109b3565b60088054908190600061180383613624565b9190505550611812848261269c565b61181c81846126b6565b60008181526020819052604090206118348382613683565b5080600183604051611846919061355d565b908152604051908190036020018120919091556006547388b944e7e3d495b88caa62fb0158f697c9a1561d9181156108fc0291906000818181858888f19350505050158015611899573d6000803e3d6000fd5b50836001600160a01b0316817f3c3fbb6a154e75fbef89d966d453c10b2ecc4dba66a0b8a755d720fae33a8fda8486426040516118d893929190613743565b60405180910390a350610f2a60016000805160206138a183398151915255565b611900612080565b6001600160a01b03811661192a57604051631e4fbdf760e01b8152600060048201526024016109b3565b610fc1816122a6565b60006001600160e01b03198216632483248360e11b1480610897575061089782612729565b60008061196483612779565b90506001600160a01b03811661089757604051637e27328960e01b8152600481018490526024016109b3565b60009081527f80bb2b638cc20bc4d0a60d66940f3ab4a00c1d7b313497ca82fb0b4ab007930460205260409020546001600160a01b031690565b610f2a83838360016127b3565b6000600080516020613861833981519152816119f285612779565b90506001600160a01b03841615611a0e57611a0e8185876128c9565b6001600160a01b03811615611a4e57611a2b6000866000806127b3565b6001600160a01b0381166000908152600383016020526040902080546000190190555b6001600160a01b03861615611a7f576001600160a01b03861660009081526003830160205260409020805460010190555b600085815260028301602052604080822080546001600160a01b0319166001600160a01b038a811691821790925591518893918516917fddf252ad1be2c89b69c2b068fc378daa952ba7f163c4a11628f55a4df523b3ef91a495945050505050565b6000805160206138a1833981519152805460011901611b1357604051633ee5aeb560e01b815260040160405180910390fd5b60029055565b60008080806004611b2b86600361358f565b611b3591906135a6565b9050600460009054906101000a90046001600160a01b03166001600160a01b031663d0e30db0826040518263ffffffff1660e01b81526004016000604051808303818588803b158015611b8757600080fd5b505af1158015611b9b573d6000803e3d6000fd5b50505050506000600286611baf91906135a6565b90506000611bbe6004886135a6565b600454909150611bec906001600160a01b03167388b944e7e3d495b88caa62fb0158f697c9a1561d8461292d565b600454611c17906001600160a01b031673fda30f9d6a3864f092586cf755fc8fcdaf8bb5ae8361292d565b6040805160e081018252600480546001600160a01b03908116835260035481166020840152610bb8838501523060608401526080830185905260a0830189905287811660c084015292516304e45aaf60e01b815291927f000000000000000000000000000000000000000000000000000000000000000016916304e45aaf918591611ca491869101613779565b60206040518083038185885af1158015611cc2573d6000803e3d6000fd5b50505050506040513d601f19601f82011682018060405250810190611ce791906135db565b600354909750611d15906001600160a01b031673fda30f9d6a3864f092586cf755fc8fcdaf8bb5ae8961292d565b505050505050919050565b6000611d2e83333085612a26565b611d59837f000000000000000000000000000000000000000000000000000000000000000084612b28565b60045460009081906001600160a01b0390811690861603611dea57611d7f6002856135a6565b9150611d8c6004856135a6565b600454909150611dba906001600160a01b03167388b944e7e3d495b88caa62fb0158f697c9a1561d8461292d565b600454611de5906001600160a01b031673fda30f9d6a3864f092586cf755fc8fcdaf8bb5ae8361292d565b611f2b565b6040805160e0810182526001600160a01b0380881682526004805482166020840152610bb88385015230606084015260808301889052600060a0840181905260c084015292516304e45aaf60e01b815291927f0000000000000000000000000000000000000000000000000000000000000000909116916304e45aaf91611e7391859101613779565b6020604051808303816000875af1158015611e92573d6000803e3d6000fd5b505050506040513d601f19601f82011682018060405250810190611eb691906135db565b9350611ec36002856135a6565b9250611ed06004856135a6565b600454909250611efe906001600160a01b03167388b944e7e3d495b88caa62fb0158f697c9a1561d8561292d565b600454611f29906001600160a01b031673fda30f9d6a3864f092586cf755fc8fcdaf8bb5ae8461292d565b505b600454611f62906001600160a01b03167f000000000000000000000000000000000000000000000000000000000000000083612b28565b6040805160e081018252600480546001600160a01b03908116835260035481166020840152610bb88385015230606084015260808301859052600060a0840181905260c0840181905293516304e45aaf60e01b81529293927f0000000000000000000000000000000000000000000000000000000000000000909116916304e45aaf91611ff191869101613779565b6020604051808303816000875af1158015612010573d6000803e3d6000fd5b505050506040513d601f19601f8201168201806040525081019061203491906135db565b600354909150612062906001600160a01b031673fda30f9d6a3864f092586cf755fc8fcdaf8bb5ae8361292d565b5050505092915050565b60016000805160206138a183398151915255565b336120b27f9016d09d72d40fdae2fd8ceac6b6234c7706214fd39c1cd1e609a0528c199300546001600160a01b031690565b6001600160a01b0316146110e05760405163118cdaa760e01b81523360048201526024016109b3565b306001600160a01b037f000000000000000000000000000000000000000000000000000000000000000016148061216257507f00000000000000000000000000000000000000000000000000000000000000006001600160a01b0316612156600080516020613881833981519152546001600160a01b031690565b6001600160a01b031614155b156110e05760405163703e46dd60e11b815260040160405180910390fd5b612188612080565b6002805490600061219883613624565b919050555050565b816001600160a01b03166352d1902d6040518163ffffffff1660e01b8152600401602060405180830381865afa9250505080156121fa575060408051601f3d908101601f191682019092526121f7918101906135db565b60015b61222257604051634c9c8ce360e01b81526001600160a01b03831660048201526024016109b3565b600080516020613881833981519152811461225357604051632a87526960e21b8152600481018290526024016109b3565b610f2a8383612c21565b306001600160a01b037f000000000000000000000000000000000000000000000000000000000000000016146110e05760405163703e46dd60e11b815260040160405180910390fd5b7f9016d09d72d40fdae2fd8ceac6b6234c7706214fd39c1cd1e609a0528c19930080546001600160a01b031981166001600160a01b03848116918217845560405192169182907f8be0079c531659141344cd1fd0a4f28419497f9722a3daafe3b4186f6b6457e090600090a3505050565b600061232660008360006119d7565b90506001600160a01b03811661096157604051637e27328960e01b8152600481018390526024016109b3565b6000805160206138618339815191526001600160a01b03831661239357604051630b61174360e31b81526001600160a01b03841660048201526024016109b3565b6001600160a01b038481166000818152600584016020908152604080832094881680845294825291829020805460ff191687151590811790915591519182527f17307eab39ab6107e8899845ad3d59bd9653f200f220920489ca2b5937696c31910160405180910390a350505050565b6001600160a01b0383163b15610a1757604051630a85bd0160e11b81526001600160a01b0384169063150b7a02906124459033908890879087906004016137d7565b6020604051808303816000875af1925050508015612480575060408051601f3d908101601f1916820190925261247d91810190613814565b60015b6124e9573d8080156124ae576040519150601f19603f3d011682016040523d82523d6000602084013e6124b3565b606091505b5080516000036124e157604051633250574960e11b81526001600160a01b03851660048201526024016109b3565b805181602001fd5b6001600160e01b03198116630a85bd0160e11b1461252557604051633250574960e11b81526001600160a01b03851660048201526024016109b3565b5050505050565b612534612c77565b6109618282612cc0565b6110e0612c77565b61254e612c77565b610fc181612cf1565b61255f612c77565b6110e0612cf9565b60607f0542a41881ee128a365a727b282c86fa859579490b9bb45aab8503648c8e790061259383611958565b50600083815260208290526040812080546125ad90613523565b80601f01602080910402602001604051908101604052809291908181526020018280546125d990613523565b80156126265780601f106125fb57610100808354040283529160200191612626565b820191906000526020600020905b81548152906001019060200180831161260957829003601f168201915b50505050509050600061264460408051602081019091526000815290565b9050805160000361265757509392505050565b81511561268a578082604051602001612671929190613831565b6040516020818303038152906040529350505050919050565b61269385612d01565b95945050505050565b610961828260405180602001604052806000815250612d75565b60008281527f0542a41881ee128a365a727b282c86fa859579490b9bb45aab8503648c8e7900602081905260409091206126f08382613683565b506040518381527ff8e1a15aba9398e019f0b49df1a4fde98ee17ae345cb5f6b5e2c27f5033e8ce79060200160405180910390a1505050565b60006001600160e01b031982166380ac58cd60e01b148061275a57506001600160e01b03198216635b5e139f60e01b145b8061089757506301ffc9a760e01b6001600160e01b0319831614610897565b60009081527f80bb2b638cc20bc4d0a60d66940f3ab4a00c1d7b313497ca82fb0b4ab007930260205260409020546001600160a01b031690565b60008051602061386183398151915281806127d657506001600160a01b03831615155b156128985760006127e685611958565b90506001600160a01b038416158015906128125750836001600160a01b0316816001600160a01b031614155b801561282557506128238185611683565b155b1561284e5760405163a9fbf51f60e01b81526001600160a01b03851660048201526024016109b3565b82156128965784866001600160a01b0316826001600160a01b03167f8c5be1e5ebec7d5bd14f71427d1e84f3dd0314c0f7b2291e5b200ac8c7c3b92560405160405180910390a45b505b600093845260040160205250506040902080546001600160a01b0319166001600160a01b0392909216919091179055565b6128d4838383612d8c565b610f2a576001600160a01b03831661290257604051637e27328960e01b8152600481018290526024016109b3565b60405163177e802f60e01b81526001600160a01b0383166004820152602481018290526044016109b3565b604080516001600160a01b038481166024830152604480830185905283518084039091018152606490920183526020820180516001600160e01b031663a9059cbb60e01b1790529151600092839290871691612989919061355d565b6000604051808303816000865af19150503d80600081146129c6576040519150601f19603f3d011682016040523d82523d6000602084013e6129cb565b606091505b50915091508180156129f55750805115806129f55750808060200190518101906129f591906135f4565b6125255760405162461bcd60e51b815260206004820152600260248201526114d560f21b60448201526064016109b3565b604080516001600160a01b0385811660248301528481166044830152606480830185905283518084039091018152608490920183526020820180516001600160e01b03166323b872dd60e01b1790529151600092839290881691612a8a919061355d565b6000604051808303816000865af19150503d8060008114612ac7576040519150601f19603f3d011682016040523d82523d6000602084013e612acc565b606091505b5091509150818015612af6575080511580612af6575080806020019051810190612af691906135f4565b6116705760405162461bcd60e51b815260206004820152600360248201526229aa2360e91b60448201526064016109b3565b604080516001600160a01b038481166024830152604480830185905283518084039091018152606490920183526020820180516001600160e01b031663095ea7b360e01b1790529151600092839290871691612b84919061355d565b6000604051808303816000865af19150503d8060008114612bc1576040519150601f19603f3d011682016040523d82523d6000602084013e612bc6565b606091505b5091509150818015612bf0575080511580612bf0575080806020019051810190612bf091906135f4565b6125255760405162461bcd60e51b8152602060048201526002602482015261534160f01b60448201526064016109b3565b612c2a82612df2565b6040516001600160a01b038316907fbc7cd75a20ee27fd9adebab32041f755214dbc6bffa90cc0225b39da2e5c2d3b90600090a2805115612c6f57610f2a8282612e57565b610961612ec4565b7ff0c57e16840df040f15088dc2f81fe391c3923bec73e23a9662efc9c229c6a0054600160401b900460ff166110e057604051631afcd79f60e31b815260040160405180910390fd5b612cc8612c77565b60008051602061386183398151915280612ce28482613683565b5060018101610a178382613683565b611900612c77565b61206c612c77565b6060612d0c82611958565b506000612d2460408051602081019091526000815290565b90506000815111612d4457604051806020016040528060008152506111e0565b80612d4e84612ee3565b604051602001612d5f929190613831565b6040516020818303038152906040529392505050565b612d7f8383612f76565b610f2a6000848484612403565b60006001600160a01b03831615801590612dea5750826001600160a01b0316846001600160a01b03161480612dc65750612dc68484611683565b80612dea5750826001600160a01b0316612ddf83611990565b6001600160a01b0316145b949350505050565b806001600160a01b03163b600003612e2857604051634c9c8ce360e01b81526001600160a01b03821660048201526024016109b3565b60008051602061388183398151915280546001600160a01b0319166001600160a01b0392909216919091179055565b6060600080846001600160a01b031684604051612e74919061355d565b600060405180830381855af49150503d8060008114612eaf576040519150601f19603f3d011682016040523d82523d6000602084013e612eb4565b606091505b5091509150612693858383612fdb565b34156110e05760405163b398979f60e01b815260040160405180910390fd5b60606000612ef083613037565b600101905060008167ffffffffffffffff811115612f1057612f1061322d565b6040519080825280601f01601f191660200182016040528015612f3a576020820181803683370190505b5090508181016020015b600019016f181899199a1a9b1b9c1cb0b131b232b360811b600a86061a8153600a8504945084612f4457509392505050565b6001600160a01b038216612fa057604051633250574960e11b8152600060048201526024016109b3565b6000612fae838360006119d7565b90506001600160a01b03811615610f2a576040516339e3563760e11b8152600060048201526024016109b3565b606082612ff057612feb8261310f565b6111e0565b815115801561300757506001600160a01b0384163b155b1561303057604051639996b31560e01b81526001600160a01b03851660048201526024016109b3565b50806111e0565b60008072184f03e93ff9f4daa797ed6e38ed64bf6a1f0160401b83106130765772184f03e93ff9f4daa797ed6e38ed64bf6a1f0160401b830492506040015b6d04ee2d6d415b85acef810000000083106130a2576d04ee2d6d415b85acef8100000000830492506020015b662386f26fc1000083106130c057662386f26fc10000830492506010015b6305f5e10083106130d8576305f5e100830492506008015b61271083106130ec57612710830492506004015b606483106130fe576064830492506002015b600a83106108975760010192915050565b80511561311f5780518082602001fd5b604051630a12f52160e11b815260040160405180910390fd5b6001600160e01b031981168114610fc157600080fd5b60006020828403121561316057600080fd5b81356111e081613138565b60005b8381101561318657818101518382015260200161316e565b50506000910152565b600081518084526131a781602086016020860161316b565b601f01601f19169290920160200192915050565b6020815260006111e0602083018461318f565b6000602082840312156131e057600080fd5b5035919050565b80356001600160a01b03811681146131fe57600080fd5b919050565b6000806040838503121561321657600080fd5b61321f836131e7565b946020939093013593505050565b634e487b7160e01b600052604160045260246000fd5b600082601f83011261325457600080fd5b813567ffffffffffffffff8082111561326f5761326f61322d565b604051601f8301601f19908116603f011681019082821181831017156132975761329761322d565b816040528381528660208588010111156132b057600080fd5b836020870160208301376000602085830101528094505050505092915050565b6000602082840312156132e257600080fd5b813567ffffffffffffffff8111156132f957600080fd5b612dea84828501613243565b60008060006060848603121561331a57600080fd5b613323846131e7565b9250613331602085016131e7565b9150604084013590509250925092565b60008060006060848603121561335657600080fd5b83359250613331602085016131e7565b6000806040838503121561337957600080fd5b613382836131e7565b9150602083013567ffffffffffffffff81111561339e57600080fd5b6133aa85828601613243565b9150509250929050565b6000602082840312156133c657600080fd5b6111e0826131e7565b8015158114610fc157600080fd5b600080604083850312156133f057600080fd5b6133f9836131e7565b91506020830135613409816133cf565b809150509250929050565b6000806000806080858703121561342a57600080fd5b613433856131e7565b9350613441602086016131e7565b925060408501359150606085013567ffffffffffffffff81111561346457600080fd5b61347087828801613243565b91505092959194509250565b6000806040838503121561348f57600080fd5b613498836131e7565b91506134a6602084016131e7565b90509250929050565b6000806000606084860312156134c457600080fd5b6134cd846131e7565b9250602084013567ffffffffffffffff808211156134ea57600080fd5b6134f687838801613243565b9350604086013591508082111561350c57600080fd5b5061351986828701613243565b9150509250925092565b600181811c9082168061353757607f821691505b60208210810361355757634e487b7160e01b600052602260045260246000fd5b50919050565b6000825161356f81846020870161316b565b9190910192915050565b634e487b7160e01b600052601160045260246000fd5b808202811582820484141761089757610897613579565b6000826135c357634e487b7160e01b600052601260045260246000fd5b500490565b8181038181111561089757610897613579565b6000602082840312156135ed57600080fd5b5051919050565b60006020828403121561360657600080fd5b81516111e0816133cf565b8082018082111561089757610897613579565b60006001820161363657613636613579565b5060010190565b601f821115610f2a57600081815260208120601f850160051c810160208610156136645750805b601f850160051c820191505b8181101561167057828155600101613670565b815167ffffffffffffffff81111561369d5761369d61322d565b6136b1816136ab8454613523565b8461363d565b602080601f8311600181146136e657600084156136ce5750858301515b600019600386901b1c1916600185901b178555611670565b600085815260208120601f198616915b82811015613715578886015182559484019460019091019084016136f6565b50858210156137335787850151600019600388901b60f8161c191681555b5050505050600190811b01905550565b606081526000613756606083018661318f565b8281036020840152613768818661318f565b915050826040830152949350505050565b81516001600160a01b03908116825260208084015182169083015260408084015162ffffff16908301526060808401518216908301526080808401519083015260a0838101519083015260c092830151169181019190915260e00190565b6001600160a01b038581168252841660208201526040810183905260806060820181905260009061380a9083018461318f565b9695505050505050565b60006020828403121561382657600080fd5b81516111e081613138565b6000835161384381846020880161316b565b83519083019061385781836020880161316b565b0194935050505056fe80bb2b638cc20bc4d0a60d66940f3ab4a00c1d7b313497ca82fb0b4ab0079300360894a13ba1a3210667c828492db98dca3e2076cc3735a920a3ca505d382bbc9b779b17422d0df92223018b32b4d1fa46e071723d6817e2486d003becc55f00a26469706673582212208e06276fc06f13fb97a8d6f01aded16c9f5c8fe32c7225383ebef3a0838ee4e564736f6c63430008140033",
  "linkReferences": {},
  "deployedLinkReferences": {}
}