{
  "_format": "hh-sol-artifact-1",
  "contractName": "HumbleDonations",
  "sourceName": "contracts/HumbleDonations.sol",
  "abi": [
    {
      "inputs": [],
      "stateMutability": "nonpayable",
      "type": "constructor"
    },
    {
      "inputs": [
        {
          "internalType": "address",
          "name": "target",
          "type": "address"
        }
      ],
      "name": "AddressEmptyCode",
      "type": "error"
    },
    {
      "inputs": [
        {
          "internalType": "address",
          "name": "account",
          "type": "address"
        }
      ],
      "name": "AddressInsufficientBalance",
      "type": "error"
    },
    {
      "inputs": [
        {
          "internalType": "address",
          "name": "implementation",
          "type": "address"
        }
      ],
      "name": "ERC1967InvalidImplementation",
      "type": "error"
    },
    {
      "inputs": [],
      "name": "ERC1967NonPayable",
      "type": "error"
    },
    {
      "inputs": [
        {
          "internalType": "address",
          "name": "sender",
          "type": "address"
        },
        {
          "internalType": "uint256",
          "name": "tokenId",
          "type": "uint256"
        },
        {
          "internalType": "address",
          "name": "owner",
          "type": "address"
        }
      ],
      "name": "ERC721IncorrectOwner",
      "type": "error"
    },
    {
      "inputs": [
        {
          "internalType": "address",
          "name": "operator",
          "type": "address"
        },
        {
          "internalType": "uint256",
          "name": "tokenId",
          "type": "uint256"
        }
      ],
      "name": "ERC721InsufficientApproval",
      "type": "error"
    },
    {
      "inputs": [
        {
          "internalType": "address",
          "name": "approver",
          "type": "address"
        }
      ],
      "name": "ERC721InvalidApprover",
      "type": "error"
    },
    {
      "inputs": [
        {
          "internalType": "address",
          "name": "operator",
          "type": "address"
        }
      ],
      "name": "ERC721InvalidOperator",
      "type": "error"
    },
    {
      "inputs": [
        {
          "internalType": "address",
          "name": "owner",
          "type": "address"
        }
      ],
      "name": "ERC721InvalidOwner",
      "type": "error"
    },
    {
      "inputs": [
        {
          "internalType": "address",
          "name": "receiver",
          "type": "address"
        }
      ],
      "name": "ERC721InvalidReceiver",
      "type": "error"
    },
    {
      "inputs": [
        {
          "internalType": "address",
          "name": "sender",
          "type": "address"
        }
      ],
      "name": "ERC721InvalidSender",
      "type": "error"
    },
    {
      "inputs": [
        {
          "internalType": "uint256",
          "name": "tokenId",
          "type": "uint256"
        }
      ],
      "name": "ERC721NonexistentToken",
      "type": "error"
    },
    {
      "inputs": [],
      "name": "FailedInnerCall",
      "type": "error"
    },
    {
      "inputs": [],
      "name": "InvalidInitialization",
      "type": "error"
    },
    {
      "inputs": [],
      "name": "NotInitializing",
      "type": "error"
    },
    {
      "inputs": [
        {
          "internalType": "address",
          "name": "owner",
          "type": "address"
        }
      ],
      "name": "OwnableInvalidOwner",
      "type": "error"
    },
    {
      "inputs": [
        {
          "internalType": "address",
          "name": "account",
          "type": "address"
        }
      ],
      "name": "OwnableUnauthorizedAccount",
      "type": "error"
    },
    {
      "inputs": [],
      "name": "ReentrancyGuardReentrantCall",
      "type": "error"
    },
    {
      "inputs": [
        {
          "internalType": "address",
          "name": "token",
          "type": "address"
        }
      ],
      "name": "SafeERC20FailedOperation",
      "type": "error"
    },
    {
      "inputs": [],
      "name": "UUPSUnauthorizedCallContext",
      "type": "error"
    },
    {
      "inputs": [
        {
          "internalType": "bytes32",
          "name": "slot",
          "type": "bytes32"
        }
      ],
      "name": "UUPSUnsupportedProxiableUUID",
      "type": "error"
    },
    {
      "anonymous": false,
      "inputs": [
        {
          "indexed": true,
          "internalType": "address",
          "name": "owner",
          "type": "address"
        },
        {
          "indexed": true,
          "internalType": "address",
          "name": "approved",
          "type": "address"
        },
        {
          "indexed": true,
          "internalType": "uint256",
          "name": "tokenId",
          "type": "uint256"
        }
      ],
      "name": "Approval",
      "type": "event"
    },
    {
      "anonymous": false,
      "inputs": [
        {
          "indexed": true,
          "internalType": "address",
          "name": "owner",
          "type": "address"
        },
        {
          "indexed": true,
          "internalType": "address",
          "name": "operator",
          "type": "address"
        },
        {
          "indexed": false,
          "internalType": "bool",
          "name": "approved",
          "type": "bool"
        }
      ],
      "name": "ApprovalForAll",
      "type": "event"
    },
    {
      "anonymous": false,
      "inputs": [
        {
          "indexed": false,
          "internalType": "uint256",
          "name": "_fromTokenId",
          "type": "uint256"
        },
        {
          "indexed": false,
          "internalType": "uint256",
          "name": "_toTokenId",
          "type": "uint256"
        }
      ],
      "name": "BatchMetadataUpdate",
      "type": "event"
    },
    {
      "anonymous": false,
      "inputs": [
        {
          "indexed": true,
          "internalType": "uint256",
          "name": "tokenId",
          "type": "uint256"
        },
        {
          "indexed": true,
          "internalType": "address",
          "name": "donor",
          "type": "address"
        },
        {
          "indexed": false,
          "internalType": "address",
          "name": "erc20Token",
          "type": "address"
        },
        {
          "indexed": false,
          "internalType": "uint256",
          "name": "amount",
          "type": "uint256"
        },
        {
          "indexed": false,
          "internalType": "uint256",
          "name": "timestamp",
          "type": "uint256"
        }
      ],
      "name": "DonationMade",
      "type": "event"
    },
    {
      "anonymous": false,
      "inputs": [
        {
          "indexed": false,
          "internalType": "uint64",
          "name": "version",
          "type": "uint64"
        }
      ],
      "name": "Initialized",
      "type": "event"
    },
    {
      "anonymous": false,
      "inputs": [
        {
          "indexed": false,
          "internalType": "uint256",
          "name": "_tokenId",
          "type": "uint256"
        }
      ],
      "name": "MetadataUpdate",
      "type": "event"
    },
    {
      "anonymous": false,
      "inputs": [
        {
          "indexed": true,
          "internalType": "address",
          "name": "previousOwner",
          "type": "address"
        },
        {
          "indexed": true,
          "internalType": "address",
          "name": "newOwner",
          "type": "address"
        }
      ],
      "name": "OwnershipTransferred",
      "type": "event"
    },
    {
      "anonymous": false,
      "inputs": [
        {
          "indexed": true,
          "internalType": "uint256",
          "name": "tokenId",
          "type": "uint256"
        },
        {
          "indexed": true,
          "internalType": "address",
          "name": "owner",
          "type": "address"
        },
        {
          "indexed": false,
          "internalType": "string",
          "name": "projectTitle",
          "type": "string"
        },
        {
          "indexed": false,
          "internalType": "string",
          "name": "uri",
          "type": "string"
        },
        {
          "indexed": false,
          "internalType": "uint256",
          "name": "timestamp",
          "type": "uint256"
        }
      ],
      "name": "ProjectCreated",
      "type": "event"
    },
    {
      "anonymous": false,
      "inputs": [
        {
          "indexed": true,
          "internalType": "uint256",
          "name": "tokenId",
          "type": "uint256"
        },
        {
          "indexed": true,
          "internalType": "address",
          "name": "previousOwner",
          "type": "address"
        },
        {
          "indexed": true,
          "internalType": "address",
          "name": "burnAddress",
          "type": "address"
        },
        {
          "indexed": false,
          "internalType": "uint256",
          "name": "timestamp",
          "type": "uint256"
        }
      ],
      "name": "ProjectDeleted",
      "type": "event"
    },
    {
      "anonymous": false,
      "inputs": [
        {
          "indexed": true,
          "internalType": "address",
          "name": "from",
          "type": "address"
        },
        {
          "indexed": true,
          "internalType": "address",
          "name": "to",
          "type": "address"
        },
        {
          "indexed": true,
          "internalType": "uint256",
          "name": "tokenId",
          "type": "uint256"
        }
      ],
      "name": "Transfer",
      "type": "event"
    },
    {
      "anonymous": false,
      "inputs": [
        {
          "indexed": true,
          "internalType": "address",
          "name": "implementation",
          "type": "address"
        }
      ],
      "name": "Upgraded",
      "type": "event"
    },
    {
      "inputs": [],
      "name": "HDT",
      "outputs": [
        {
          "internalType": "address",
          "name": "",
          "type": "address"
        }
      ],
      "stateMutability": "view",
      "type": "function"
    },
    {
      "inputs": [],
      "name": "UPGRADE_INTERFACE_VERSION",
      "outputs": [
        {
          "internalType": "string",
          "name": "",
          "type": "string"
        }
      ],
      "stateMutability": "view",
      "type": "function"
    },
    {
      "inputs": [],
      "name": "WETH",
      "outputs": [
        {
          "internalType": "address",
          "name": "",
          "type": "address"
        }
      ],
      "stateMutability": "view",
      "type": "function"
    },
    {
      "inputs": [
        {
          "internalType": "address",
          "name": "to",
          "type": "address"
        },
        {
          "internalType": "uint256",
          "name": "tokenId",
          "type": "uint256"
        }
      ],
      "name": "approve",
      "outputs": [],
      "stateMutability": "nonpayable",
      "type": "function"
    },
    {
      "inputs": [
        {
          "internalType": "address",
          "name": "owner",
          "type": "address"
        }
      ],
      "name": "balanceOf",
      "outputs": [
        {
          "internalType": "uint256",
          "name": "",
          "type": "uint256"
        }
      ],
      "stateMutability": "view",
      "type": "function"
    },
    {
      "inputs": [
        {
          "internalType": "uint256",
          "name": "tokenId",
          "type": "uint256"
        }
      ],
      "name": "burn",
      "outputs": [],
      "stateMutability": "nonpayable",
      "type": "function"
    },
    {
      "inputs": [
        {
          "internalType": "uint256",
          "name": "tokenId",
          "type": "uint256"
        }
      ],
      "name": "burnToken",
      "outputs": [],
      "stateMutability": "nonpayable",
      "type": "function"
    },
    {
      "inputs": [
        {
          "internalType": "uint256",
          "name": "tokenId",
          "type": "uint256"
        },
        {
          "internalType": "address",
          "name": "erc20Token",
          "type": "address"
        },
        {
          "internalType": "uint256",
          "name": "amount",
          "type": "uint256"
        },
        {
          "internalType": "uint256",
          "name": "slippageWETH",
          "type": "uint256"
        },
        {
          "internalType": "uint256",
          "name": "slippageHDT",
          "type": "uint256"
        },
        {
          "internalType": "bytes32[]",
          "name": "proof",
          "type": "bytes32[]"
        }
      ],
      "name": "donate",
      "outputs": [],
      "stateMutability": "payable",
      "type": "function"
    },
    {
      "inputs": [
        {
          "internalType": "uint256",
          "name": "tokenId",
          "type": "uint256"
        }
      ],
      "name": "getApproved",
      "outputs": [
        {
          "internalType": "address",
          "name": "",
          "type": "address"
        }
      ],
      "stateMutability": "view",
      "type": "function"
    },
    {
      "inputs": [],
      "name": "getHDT",
      "outputs": [
        {
          "internalType": "address",
          "name": "",
          "type": "address"
        }
      ],
      "stateMutability": "view",
      "type": "function"
    },
    {
      "inputs": [
        {
          "internalType": "string",
          "name": "projectTitle",
          "type": "string"
        }
      ],
      "name": "getOwnerByProjectTitle",
      "outputs": [
        {
          "internalType": "address",
          "name": "",
          "type": "address"
        }
      ],
      "stateMutability": "view",
      "type": "function"
    },
    {
      "inputs": [],
      "name": "getPercentage",
      "outputs": [
        {
          "internalType": "uint256",
          "name": "",
          "type": "uint256"
        }
      ],
      "stateMutability": "view",
      "type": "function"
    },
    {
      "inputs": [
        {
          "internalType": "string",
          "name": "projectTitle",
          "type": "string"
        }
      ],
      "name": "getTokenId",
      "outputs": [
        {
          "internalType": "uint256",
          "name": "",
          "type": "uint256"
        }
      ],
      "stateMutability": "view",
      "type": "function"
    },
    {
      "inputs": [],
      "name": "getUpgradeCount",
      "outputs": [
        {
          "internalType": "uint256",
          "name": "",
          "type": "uint256"
        }
      ],
      "stateMutability": "view",
      "type": "function"
    },
    {
      "inputs": [],
      "name": "getWETH",
      "outputs": [
        {
          "internalType": "address",
          "name": "",
          "type": "address"
        }
      ],
      "stateMutability": "view",
      "type": "function"
    },
    {
      "inputs": [],
      "name": "get_mintRate",
      "outputs": [
        {
          "internalType": "uint256",
          "name": "",
          "type": "uint256"
        }
      ],
      "stateMutability": "view",
      "type": "function"
    },
    {
      "inputs": [
        {
          "internalType": "address",
          "name": "initialOwner",
          "type": "address"
        }
      ],
      "name": "initialize",
      "outputs": [],
      "stateMutability": "nonpayable",
      "type": "function"
    },
    {
      "inputs": [
        {
          "internalType": "address",
          "name": "owner",
          "type": "address"
        },
        {
          "internalType": "address",
          "name": "operator",
          "type": "address"
        }
      ],
      "name": "isApprovedForAll",
      "outputs": [
        {
          "internalType": "bool",
          "name": "",
          "type": "bool"
        }
      ],
      "stateMutability": "view",
      "type": "function"
    },
    {
      "inputs": [
        {
          "internalType": "address",
          "name": "erc20Token",
          "type": "address"
        },
        {
          "internalType": "bytes32[]",
          "name": "proof",
          "type": "bytes32[]"
        }
      ],
      "name": "isTokenWhitelisted",
      "outputs": [
        {
          "internalType": "bool",
          "name": "",
          "type": "bool"
        }
      ],
      "stateMutability": "view",
      "type": "function"
    },
    {
      "inputs": [],
      "name": "latestTokenId",
      "outputs": [
        {
          "internalType": "uint256",
          "name": "",
          "type": "uint256"
        }
      ],
      "stateMutability": "view",
      "type": "function"
    },
    {
      "inputs": [],
      "name": "merkleRoot",
      "outputs": [
        {
          "internalType": "bytes32",
          "name": "",
          "type": "bytes32"
        }
      ],
      "stateMutability": "view",
      "type": "function"
    },
    {
      "inputs": [],
      "name": "mintRate",
      "outputs": [
        {
          "internalType": "uint256",
          "name": "",
          "type": "uint256"
        }
      ],
      "stateMutability": "view",
      "type": "function"
    },
    {
      "inputs": [],
      "name": "name",
      "outputs": [
        {
          "internalType": "string",
          "name": "",
          "type": "string"
        }
      ],
      "stateMutability": "view",
      "type": "function"
    },
    {
      "inputs": [],
      "name": "owner",
      "outputs": [
        {
          "internalType": "address",
          "name": "",
          "type": "address"
        }
      ],
      "stateMutability": "view",
      "type": "function"
    },
    {
      "inputs": [
        {
          "internalType": "uint256",
          "name": "tokenId",
          "type": "uint256"
        }
      ],
      "name": "ownerOf",
      "outputs": [
        {
          "internalType": "address",
          "name": "",
          "type": "address"
        }
      ],
      "stateMutability": "view",
      "type": "function"
    },
    {
      "inputs": [],
      "name": "poolFee",
      "outputs": [
        {
          "internalType": "uint24",
          "name": "",
          "type": "uint24"
        }
      ],
      "stateMutability": "view",
      "type": "function"
    },
    {
      "inputs": [
        {
          "internalType": "string",
          "name": "",
          "type": "string"
        }
      ],
      "name": "projectTitleToTokenId",
      "outputs": [
        {
          "internalType": "uint256",
          "name": "",
          "type": "uint256"
        }
      ],
      "stateMutability": "view",
      "type": "function"
    },
    {
      "inputs": [],
      "name": "proxiableUUID",
      "outputs": [
        {
          "internalType": "bytes32",
          "name": "",
          "type": "bytes32"
        }
      ],
      "stateMutability": "view",
      "type": "function"
    },
    {
      "inputs": [],
      "name": "renounceOwnership",
      "outputs": [],
      "stateMutability": "nonpayable",
      "type": "function"
    },
    {
      "inputs": [
        {
          "internalType": "address",
          "name": "to",
          "type": "address"
        },
        {
          "internalType": "string",
          "name": "uri",
          "type": "string"
        },
        {
          "internalType": "string",
          "name": "projectTitle",
          "type": "string"
        }
      ],
      "name": "safeMint",
      "outputs": [],
      "stateMutability": "payable",
      "type": "function"
    },
    {
      "inputs": [
        {
          "internalType": "address",
          "name": "from",
          "type": "address"
        },
        {
          "internalType": "address",
          "name": "to",
          "type": "address"
        },
        {
          "internalType": "uint256",
          "name": "tokenId",
          "type": "uint256"
        }
      ],
      "name": "safeTransferFrom",
      "outputs": [],
      "stateMutability": "nonpayable",
      "type": "function"
    },
    {
      "inputs": [
        {
          "internalType": "address",
          "name": "from",
          "type": "address"
        },
        {
          "internalType": "address",
          "name": "to",
          "type": "address"
        },
        {
          "internalType": "uint256",
          "name": "tokenId",
          "type": "uint256"
        },
        {
          "internalType": "bytes",
          "name": "data",
          "type": "bytes"
        }
      ],
      "name": "safeTransferFrom",
      "outputs": [],
      "stateMutability": "nonpayable",
      "type": "function"
    },
    {
      "inputs": [
        {
          "internalType": "address",
          "name": "operator",
          "type": "address"
        },
        {
          "internalType": "bool",
          "name": "approved",
          "type": "bool"
        }
      ],
      "name": "setApprovalForAll",
      "outputs": [],
      "stateMutability": "nonpayable",
      "type": "function"
    },
    {
      "inputs": [
        {
          "internalType": "address",
          "name": "_HDT",
          "type": "address"
        }
      ],
      "name": "setHDT",
      "outputs": [],
      "stateMutability": "nonpayable",
      "type": "function"
    },
    {
      "inputs": [
        {
          "internalType": "bytes32",
          "name": "_merkleRoot",
          "type": "bytes32"
        }
      ],
      "name": "setMerkleRoot",
      "outputs": [],
      "stateMutability": "nonpayable",
      "type": "function"
    },
    {
      "inputs": [
        {
          "internalType": "uint256",
          "name": "tax",
          "type": "uint256"
        }
      ],
      "name": "setTaxPercentage",
      "outputs": [],
      "stateMutability": "nonpayable",
      "type": "function"
    },
    {
      "inputs": [
        {
          "internalType": "address",
          "name": "_WETH",
          "type": "address"
        }
      ],
      "name": "setWETH",
      "outputs": [],
      "stateMutability": "nonpayable",
      "type": "function"
    },
    {
      "inputs": [
        {
          "internalType": "uint256",
          "name": "_mintRate",
          "type": "uint256"
        }
      ],
      "name": "set_mintRate",
      "outputs": [],
      "stateMutability": "nonpayable",
      "type": "function"
    },
    {
      "inputs": [
        {
          "internalType": "bytes4",
          "name": "interfaceId",
          "type": "bytes4"
        }
      ],
      "name": "supportsInterface",
      "outputs": [
        {
          "internalType": "bool",
          "name": "",
          "type": "bool"
        }
      ],
      "stateMutability": "view",
      "type": "function"
    },
    {
      "inputs": [],
      "name": "swapRouter",
      "outputs": [
        {
          "internalType": "contract IV3SwapRouter",
          "name": "",
          "type": "address"
        }
      ],
      "stateMutability": "view",
      "type": "function"
    },
    {
      "inputs": [],
      "name": "symbol",
      "outputs": [
        {
          "internalType": "string",
          "name": "",
          "type": "string"
        }
      ],
      "stateMutability": "view",
      "type": "function"
    },
    {
      "inputs": [],
      "name": "taxPercentage",
      "outputs": [
        {
          "internalType": "uint256",
          "name": "",
          "type": "uint256"
        }
      ],
      "stateMutability": "view",
      "type": "function"
    },
    {
      "inputs": [
        {
          "internalType": "uint256",
          "name": "",
          "type": "uint256"
        }
      ],
      "name": "tokenIdToProjectTitle",
      "outputs": [
        {
          "internalType": "string",
          "name": "",
          "type": "string"
        }
      ],
      "stateMutability": "view",
      "type": "function"
    },
    {
      "inputs": [
        {
          "internalType": "uint256",
          "name": "tokenId",
          "type": "uint256"
        }
      ],
      "name": "tokenURI",
      "outputs": [
        {
          "internalType": "string",
          "name": "",
          "type": "string"
        }
      ],
      "stateMutability": "view",
      "type": "function"
    },
    {
      "inputs": [
        {
          "internalType": "address",
          "name": "from",
          "type": "address"
        },
        {
          "internalType": "address",
          "name": "to",
          "type": "address"
        },
        {
          "internalType": "uint256",
          "name": "tokenId",
          "type": "uint256"
        }
      ],
      "name": "transferFrom",
      "outputs": [],
      "stateMutability": "nonpayable",
      "type": "function"
    },
    {
      "inputs": [
        {
          "internalType": "address",
          "name": "newOwner",
          "type": "address"
        }
      ],
      "name": "transferOwnership",
      "outputs": [],
      "stateMutability": "nonpayable",
      "type": "function"
    },
    {
      "inputs": [],
      "name": "upgradeCount",
      "outputs": [
        {
          "internalType": "uint256",
          "name": "",
          "type": "uint256"
        }
      ],
      "stateMutability": "view",
      "type": "function"
    },
    {
      "inputs": [
        {
          "internalType": "address",
          "name": "newImplementation",
          "type": "address"
        },
        {
          "internalType": "bytes",
          "name": "data",
          "type": "bytes"
        }
      ],
      "name": "upgradeToAndCall",
      "outputs": [],
      "stateMutability": "payable",
      "type": "function"
    },
    {
      "inputs": [],
      "name": "withdraw",
      "outputs": [],
      "stateMutability": "nonpayable",
      "type": "function"
    },
    {
      "inputs": [
        {
          "internalType": "address",
          "name": "erc20Token",
          "type": "address"
        },
        {
          "internalType": "uint256",
          "name": "amount",
          "type": "uint256"
        }
      ],
      "name": "withdrawToken",
      "outputs": [],
      "stateMutability": "nonpayable",
      "type": "function"
    }
  ],
  "bytecode": "0x60c060405230608052733bfa4769fb09eefc5a80d6e87c3b9c650f7ae48e60a0523480156200002d57600080fd5b50620000386200003e565b620000f2565b7ff0c57e16840df040f15088dc2f81fe391c3923bec73e23a9662efc9c229c6a00805468010000000000000000900460ff16156200008f5760405163f92ee8a960e01b815260040160405180910390fd5b80546001600160401b0390811614620000ef5780546001600160401b0319166001600160401b0390811782556040519081527fc7f505b2f371ae2175ee4913f4499e1f2633a7b5936321eed1cdaeb6115181d29060200160405180910390a15b50565b60805160a051613ee262000149600039600081816107b601528181612043015281816121100152818161221a0152818161231901526123980152600081816124d0015281816124f901526126520152613ee26000f3fe6080604052600436106102c95760003560e01c80637cb6475911610175578063ae7b6d16116100dc578063ca0dcf1611610095578063e8ba1dff1161006f578063e8ba1dff1461089a578063e985e9c5146108af578063eca81d42146108cf578063f2fde38b146108e257600080fd5b8063ca0dcf161461082e578063cae5f11e14610844578063cd99b0101461086257600080fd5b8063ae7b6d161461076e578063b88d4fde14610784578063c31c9c07146107a4578063c4128b6d146107d8578063c4d66de8146107ee578063c87b56dd1461080e57600080fd5b80639e281a981161012e5780639e281a981461069d5780639f4a7c10146106bd578063a01d3712146106dd578063a22cb465146106fd578063ad3cb1cc1461071d578063ad5c46481461074e57600080fd5b80637cb64759146105d65780638c0e8349146105f65780638da5cb5b1461060b57806391f7e39714610648578063930baae81461066857806395d89b411461068857600080fd5b80634744f619116102345780635fea0294116101ed5780636fa2fd59116101c75780636fa2fd591461056c57806370a0823114610581578063715018a6146105a15780637b47ec1a146105b657600080fd5b80635fea02941461050e5780636352211e1461052c578063699abb3c1461054c57600080fd5b80634744f619146104735780634a9957f4146104935780634f1ef286146104a657806352d1902d146104b957806356b1ddbb146104ce5780635b769f3c146104ee57600080fd5b80631e7663bc116102865780631e7663bc146103c857806323b872dd146103e85780632eb4a7ab146104085780633ccfd60b1461041e57806342842e0e1461043357806342966c681461045357600080fd5b806301ffc9a7146102ce57806306fdde0314610303578063081812fc14610325578063089fe6aa1461035d578063095ea7b3146103875780630b2accb2146103a9575b600080fd5b3480156102da57600080fd5b506102ee6102e936600461364c565b610902565b60405190151581526020015b60405180910390f35b34801561030f57600080fd5b50610318610913565b6040516102fa91906136b9565b34801561033157600080fd5b506103456103403660046136cc565b6109b7565b6040516001600160a01b0390911681526020016102fa565b34801561036957600080fd5b50610373610bb881565b60405162ffffff90911681526020016102fa565b34801561039357600080fd5b506103a76103a2366004613701565b6109cc565b005b3480156103b557600080fd5b506005545b6040519081526020016102fa565b3480156103d457600080fd5b506103ba6103e33660046137ce565b6109db565b3480156103f457600080fd5b506103a7610403366004613803565b610a03565b34801561041457600080fd5b506103ba60085481565b34801561042a57600080fd5b506103a7610a7a565b34801561043f57600080fd5b506103a761044e366004613803565b610b0f565b34801561045f57600080fd5b506103a761046e3660046136cc565b610b2a565b34801561047f57600080fd5b506103a761048e3660046136cc565b610b36565b6103a76104a136600461388b565b610b43565b6103a76104b4366004613906565b61108a565b3480156104c557600080fd5b506103ba6110a5565b3480156104da57600080fd5b50600354610345906001600160a01b031681565b3480156104fa57600080fd5b506103a7610509366004613954565b6110c2565b34801561051a57600080fd5b506003546001600160a01b0316610345565b34801561053857600080fd5b506103456105473660046136cc565b6110ec565b34801561055857600080fd5b506103a76105673660046136cc565b6110f7565b34801561057857600080fd5b506002546103ba565b34801561058d57600080fd5b506103ba61059c366004613954565b611156565b3480156105ad57600080fd5b506103a76111b2565b3480156105c257600080fd5b506103a76105d13660046136cc565b6111c6565b3480156105e257600080fd5b506103a76105f13660046136cc565b611362565b34801561060257600080fd5b506007546103ba565b34801561061757600080fd5b507f9016d09d72d40fdae2fd8ceac6b6234c7706214fd39c1cd1e609a0528c199300546001600160a01b0316610345565b34801561065457600080fd5b506103456106633660046137ce565b61136f565b34801561067457600080fd5b506103a7610683366004613954565b6113b4565b34801561069457600080fd5b506103186113de565b3480156106a957600080fd5b506103a76106b8366004613701565b61141d565b3480156106c957600080fd5b506103186106d83660046136cc565b6115ea565b3480156106e957600080fd5b506102ee6106f836600461396f565b611684565b34801561070957600080fd5b506103a76107183660046139d0565b61170a565b34801561072957600080fd5b50610318604051806040016040528060058152602001640352e302e360dc1b81525081565b34801561075a57600080fd5b50600454610345906001600160a01b031681565b34801561077a57600080fd5b506103ba60055481565b34801561079057600080fd5b506103a761079f366004613a07565b611715565b3480156107b057600080fd5b506103457f000000000000000000000000000000000000000000000000000000000000000081565b3480156107e457600080fd5b506103ba60025481565b3480156107fa57600080fd5b506103a7610809366004613954565b611732565b34801561081a57600080fd5b506103186108293660046136cc565b6118cd565b34801561083a57600080fd5b506103ba60065481565b34801561085057600080fd5b506004546001600160a01b0316610345565b34801561086e57600080fd5b506103ba61087d3660046137ce565b805160208183018101805160018252928201919093012091525481565b3480156108a657600080fd5b506006546103ba565b3480156108bb57600080fd5b506102ee6108ca366004613a6f565b6118d8565b6103a76108dd366004613aa2565b611925565b3480156108ee57600080fd5b506103a76108fd366004613954565b611b40565b600061090d82611b7b565b92915050565b600080516020613e4d833981519152805460609190819061093390613b16565b80601f016020809104026020016040519081016040528092919081815260200182805461095f90613b16565b80156109ac5780601f10610981576101008083540402835291602001916109ac565b820191906000526020600020905b81548152906001019060200180831161098f57829003601f168201915b505050505091505090565b60006109c282611ba0565b5061090d82611bd8565b6109d7828233611c12565b5050565b60006001826040516109ed9190613b50565b9081526020016040518091039020549050919050565b610a0c82611156565b15610a6a5760405162461bcd60e51b8152602060048201526024808201527f526563697069656e7420616c7265616479206f776e7320612070726f6a6563746044820152630813919560e21b60648201526084015b60405180910390fd5b610a75838383611c1f565b505050565b610a82611ca4565b604051600090339047908381818185875af1925050503d8060008114610ac4576040519150601f19603f3d011682016040523d82523d6000602084013e610ac9565b606091505b5050905080610b0c5760405162461bcd60e51b815260206004820152600f60248201526e151c985b9cd9995c8811985a5b1959608a1b6044820152606401610a61565b50565b610a7583838360405180602001604052806000815250611715565b6109d760008233611cff565b610b3e611ca4565b600655565b610b4b611e09565b6000610b56886110ec565b90506001600160a01b0381163303610ba65760405162461bcd60e51b815260206004820152601360248201527221b0b73737ba103830bc903cb7bab939b2b63360691b6044820152606401610a61565b60008881526020819052604081208054610bbf90613b16565b905011610c065760405162461bcd60e51b8152602060048201526015602482015274141c9bda9958dd081d1a5d1b19481b9bdd081cd95d605a1b6044820152606401610a61565b6001610c1182611156565b1115610c7a5760405162461bcd60e51b815260206004820152603260248201527f546f6b656e206f776e657220616c7265616479206f776e73206d6f7265207468604482015271185b881bdb99481c1c9bda9958dd0813919560721b6064820152608401610a61565b60008611610cca5760405162461bcd60e51b815260206004820152601860248201527f496e70757420616d6f756e742063616e6e6f74206265203000000000000000006044820152606401610a61565b6000806103e860055489610cde9190613b82565b610ce89190613b99565b60035490915089906001600160a01b03808316911614610f4b57610d0c828a613bbb565b92506001600160a01b038a16610e165788341015610d6c5760405162461bcd60e51b815260206004820152601c60248201527f496e636f727265637420616d6f756e74206f66204554482073656e74000000006044820152606401610a61565b610d768288611e41565b506000846001600160a01b03168460405160006040518083038185875af1925050503d8060008114610dc4576040519150601f19603f3d011682016040523d82523d6000602084013e610dc9565b606091505b5050905080610e105760405162461bcd60e51b8152602060048201526013602482015272115512081d1c985b9cd9995c8819985a5b1959606a1b6044820152606401610a61565b5061101a565b610e218a8787611684565b610e6d5760405162461bcd60e51b815260206004820152601860248201527f546f6b656e206973206e6f742077686974656c697374656400000000000000006044820152606401610a61565b604051636eb1769f60e11b815233600482015230602482015289906001600160a01b0383169063dd62ed3e90604401602060405180830381865afa158015610eb9573d6000803e3d6000fd5b505050506040513d601f19601f82011682018060405250810190610edd9190613bce565b1015610f245760405162461bcd60e51b8152602060048201526016602482015275496e73756666696369656e7420616c6c6f77616e636560501b6044820152606401610a61565b610f308a838a8a6120f3565b50610f466001600160a01b03821633868661244a565b61101a565b604051636eb1769f60e11b815233600482015230602482015289935083906001600160a01b0383169063dd62ed3e90604401602060405180830381865afa158015610f9a573d6000803e3d6000fd5b505050506040513d601f19601f82011682018060405250810190610fbe9190613bce565b10156110055760405162461bcd60e51b8152602060048201526016602482015275496e73756666696369656e7420616c6c6f77616e636560501b6044820152606401610a61565b61101a6001600160a01b03821633868661244a565b604080516001600160a01b038c168152602081018590524281830152905133918d917fda38851157f2984cc47615155e6daa02931c36f0ecaa4822d8b631b5b368eb6e9181900360600190a3505050506110816001600080516020613e8d83398151915255565b50505050505050565b6110926124c5565b61109b8261256a565b6109d7828261258a565b60006110af612647565b50600080516020613e6d83398151915290565b6110ca611ca4565b600480546001600160a01b0319166001600160a01b0392909216919091179055565b600061090d82611ba0565b6110ff611ca4565b61012c8111156111515760405162461bcd60e51b815260206004820152601d60248201527f7461782063616e6e6f7420626520686967686572207468616e203330250000006044820152606401610a61565b600555565b6000600080516020613e4d8339815191526001600160a01b038316611191576040516322718ad960e21b815260006004820152602401610a61565b6001600160a01b039092166000908152600390920160205250604090205490565b6111ba611ca4565b6111c46000612690565b565b60006111d1826110ec565b9050336111dd836110ec565b6001600160a01b0316146112335760405162461bcd60e51b815260206004820152601760248201527f43616c6c6572206973206e6f7420746865206f776e65720000000000000000006044820152606401610a61565b6000828152602081905260408120805461124c90613b16565b80601f016020809104026020016040519081016040528092919081815260200182805461127890613b16565b80156112c55780601f1061129a576101008083540402835291602001916112c5565b820191906000526020600020905b8154815290600101906020018083116112a857829003601f168201915b505050505090506112d583612701565b60008381526020819052604081206112ec916135e8565b6001816040516112fc9190613b50565b90815260200160405180910390206000905560006001600160a01b0316826001600160a01b0316847f4ef8c0478b7cb23d7c76bbb226f7898438ece317e83af2b79f9a015974efcc7f4260405161135591815260200190565b60405180910390a4505050565b61136a611ca4565b600855565b6000806001836040516113829190613b50565b9081526020016040518091039020549050806000146113ab576113a4816110ec565b9392505050565b50600092915050565b6113bc611ca4565b600380546001600160a01b0319166001600160a01b0392909216919091179055565b7f80bb2b638cc20bc4d0a60d66940f3ab4a00c1d7b313497ca82fb0b4ab00793018054606091600080516020613e4d8339815191529161093390613b16565b611425611ca4565b6001600160a01b03821661147b5760405162461bcd60e51b815260206004820152601c60248201527f496e76616c6964204552432d323020746f6b656e2061646472657373000000006044820152606401610a61565b6040516370a0823160e01b8152306004820152829082906001600160a01b038316906370a0823190602401602060405180830381865afa1580156114c3573d6000803e3d6000fd5b505050506040513d601f19601f820116820180604052508101906114e79190613bce565b10156115355760405162461bcd60e51b815260206004820152601a60248201527f496e73756666696369656e7420746f6b656e2062616c616e63650000000000006044820152606401610a61565b60405163a9059cbb60e01b8152336004820152602481018390526001600160a01b0382169063a9059cbb906044016020604051808303816000875af1158015611582573d6000803e3d6000fd5b505050506040513d601f19601f820116820180604052508101906115a69190613be7565b610a755760405162461bcd60e51b8152602060048201526015602482015274151bdad95b881d1c985b9cd9995c8819985a5b1959605a1b6044820152606401610a61565b6000602081905290815260409020805461160390613b16565b80601f016020809104026020016040519081016040528092919081815260200182805461162f90613b16565b801561167c5780601f106116515761010080835404028352916020019161167c565b820191906000526020600020905b81548152906001019060200180831161165f57829003601f168201915b505050505081565b6040516bffffffffffffffffffffffff19606085901b166020820152600090819060340160405160208183030381529060405280519060200120905061170184848080602002602001604051908101604052809392919081815260200183836020028082843760009201919091525050600854915084905061273c565b95945050505050565b6109d7338383612752565b611720848484610a03565b61172c84848484612803565b50505050565b7ff0c57e16840df040f15088dc2f81fe391c3923bec73e23a9662efc9c229c6a008054600160401b810460ff16159067ffffffffffffffff166000811580156117785750825b905060008267ffffffffffffffff1660011480156117955750303b155b9050811580156117a3575080155b156117c15760405163f92ee8a960e01b815260040160405180910390fd5b845467ffffffffffffffff1916600117855583156117eb57845460ff60401b1916600160401b1785555b61183d6040518060400160405280600f81526020016e48756d626c65446f6e6174696f6e7360881b8152506040518060400160405280600981526020016812111c1c9bda9958dd60ba1b81525061292c565b61184561293e565b61184d61293e565b61185686612946565b61185e61293e565b611866612957565b6001600755600f600555655af3107a4000600655600060025583156118c557845460ff60401b19168555604051600181527fc7f505b2f371ae2175ee4913f4499e1f2633a7b5936321eed1cdaeb6115181d29060200160405180910390a15b505050505050565b606061090d82612967565b6001600160a01b0391821660009081527f80bb2b638cc20bc4d0a60d66940f3ab4a00c1d7b313497ca82fb0b4ab00793056020908152604080832093909416825291909152205460ff1690565b61192d611e09565b6006543410156119755760405162461bcd60e51b8152602060048201526013602482015272139bdd08195b9bdd59da08115512081cd95b9d606a1b6044820152606401610a61565b61197e83611156565b156119cb5760405162461bcd60e51b815260206004820152601c60248201527f4164647265737320616c7265616479206f776e73206120746f6b656e000000006044820152606401610a61565b6001816040516119db9190613b50565b908152602001604051809103902054600014611a395760405162461bcd60e51b815260206004820152601c60248201527f50726f6a656374207469746c6520616c726561647920657869737473000000006044820152606401610a61565b600780549081906000611a4b83613c04565b9190505550611a5a8482612a93565b611a648184612aad565b6000818152602081905260409020611a7c8382613c63565b5080600183604051611a8e9190613b50565b908152604051908190036020018120919091556006547388b944e7e3d495b88caa62fb0158f697c9a1561d9181156108fc0291906000818181858888f19350505050158015611ae1573d6000803e3d6000fd5b50836001600160a01b0316817f3c3fbb6a154e75fbef89d966d453c10b2ecc4dba66a0b8a755d720fae33a8fda848642604051611b2093929190613d23565b60405180910390a350610a756001600080516020613e8d83398151915255565b611b48611ca4565b6001600160a01b038116611b7257604051631e4fbdf760e01b815260006004820152602401610a61565b610b0c81612690565b60006001600160e01b03198216632483248360e11b148061090d575061090d82612b20565b600080611bac83612b70565b90506001600160a01b03811661090d57604051637e27328960e01b815260048101849052602401610a61565b60009081527f80bb2b638cc20bc4d0a60d66940f3ab4a00c1d7b313497ca82fb0b4ab007930460205260409020546001600160a01b031690565b610a758383836001612baa565b6001600160a01b038216611c4957604051633250574960e11b815260006004820152602401610a61565b6000611c56838333611cff565b9050836001600160a01b0316816001600160a01b03161461172c576040516364283d7b60e01b81526001600160a01b0380861660048301526024820184905282166044820152606401610a61565b33611cd67f9016d09d72d40fdae2fd8ceac6b6234c7706214fd39c1cd1e609a0528c199300546001600160a01b031690565b6001600160a01b0316146111c45760405163118cdaa760e01b8152336004820152602401610a61565b6000600080516020613e4d83398151915281611d1a85612b70565b90506001600160a01b03841615611d3657611d36818587612cc0565b6001600160a01b03811615611d7657611d53600086600080612baa565b6001600160a01b0381166000908152600383016020526040902080546000190190555b6001600160a01b03861615611da7576001600160a01b03861660009081526003830160205260409020805460010190555b600085815260028301602052604080822080546001600160a01b0319166001600160a01b038a811691821790925591518893918516917fddf252ad1be2c89b69c2b068fc378daa952ba7f163c4a11628f55a4df523b3ef91a495945050505050565b600080516020613e8d833981519152805460011901611e3b57604051633ee5aeb560e01b815260040160405180910390fd5b60029055565b6000808311611e925760405162461bcd60e51b815260206004820181905260248201527f416d6f756e7420696e206d7573742062652067726561746572207468616e20306044820152606401610a61565b60006004611ea1856003613b82565b611eab9190613b99565b905060008111611f175760405162461bcd60e51b815260206004820152603160248201527f5468726565207175617274657273206f6620616d6f756e74496e206d75737420604482015270062652067726561746572207468616e203607c1b6064820152608401610a61565b6004805460408051630d0e30db60e41b815290516001600160a01b039092169263d0e30db0928592808301926000929182900301818588803b158015611f5c57600080fd5b505af1158015611f70573d6000803e3d6000fd5b50505050506000600285611f849190613b99565b90506000611f93600487613b99565b600454909150611fc1906001600160a01b03167388b944e7e3d495b88caa62fb0158f697c9a1561d84612d24565b600454611fec906001600160a01b031673fda30f9d6a3864f092586cf755fc8fcdaf8bb5ae83612d24565b6040805160e081018252600480546001600160a01b03908116835260035481166020840152610bb8838501523060608401526080830185905260a08301899052600060c084015292516304e45aaf60e01b815291927f000000000000000000000000000000000000000000000000000000000000000016916304e45aaf91859161207891869101613d59565b60206040518083038185885af1158015612096573d6000803e3d6000fd5b50505050506040513d601f19601f820116820180604052508101906120bb9190613bce565b6003549095506120e9906001600160a01b031673fda30f9d6a3864f092586cf755fc8fcdaf8bb5ae87612d24565b5050505092915050565b600061210a6001600160a01b03861633308761244a565b612135857f000000000000000000000000000000000000000000000000000000000000000086612e1d565b60045460009081906001600160a01b03908116908816036121c65761215b600287613b99565b9150612168600487613b99565b600454909150612196906001600160a01b03167388b944e7e3d495b88caa62fb0158f697c9a1561d84612f16565b6004546121c1906001600160a01b031673fda30f9d6a3864f092586cf755fc8fcdaf8bb5ae83612f16565b612307565b6040805160e0810182526001600160a01b03808a1682526004805482166020840152610bb883850152306060840152608083018a905260a08301899052600060c084015292516304e45aaf60e01b815291927f0000000000000000000000000000000000000000000000000000000000000000909116916304e45aaf9161224f91859101613d59565b6020604051808303816000875af115801561226e573d6000803e3d6000fd5b505050506040513d601f19601f820116820180604052508101906122929190613bce565b935061229f600285613b99565b92506122ac600485613b99565b6004549092506122da906001600160a01b03167388b944e7e3d495b88caa62fb0158f697c9a1561d85612f16565b600454612305906001600160a01b031673fda30f9d6a3864f092586cf755fc8fcdaf8bb5ae84612f16565b505b60045461233e906001600160a01b03167f000000000000000000000000000000000000000000000000000000000000000083612e1d565b6040805160e081018252600480546001600160a01b03908116835260035481166020840152610bb8838501523060608401526080830185905260a08301889052600060c0840181905293516304e45aaf60e01b81529293927f0000000000000000000000000000000000000000000000000000000000000000909116916304e45aaf916123cd91869101613d59565b6020604051808303816000875af11580156123ec573d6000803e3d6000fd5b505050506040513d601f19601f820116820180604052508101906124109190613bce565b60035490915061243e906001600160a01b031673fda30f9d6a3864f092586cf755fc8fcdaf8bb5ae83612f16565b50505050949350505050565b6040516001600160a01b03848116602483015283811660448301526064820183905261172c9186918216906323b872dd906084015b604051602081830303815290604052915060e01b6020820180516001600160e01b038381831617835250505050612f47565b6001600080516020613e8d83398151915255565b306001600160a01b037f000000000000000000000000000000000000000000000000000000000000000016148061254c57507f00000000000000000000000000000000000000000000000000000000000000006001600160a01b0316612540600080516020613e6d833981519152546001600160a01b031690565b6001600160a01b031614155b156111c45760405163703e46dd60e11b815260040160405180910390fd5b612572611ca4565b6002805490600061258283613c04565b919050555050565b816001600160a01b03166352d1902d6040518163ffffffff1660e01b8152600401602060405180830381865afa9250505080156125e4575060408051601f3d908101601f191682019092526125e191810190613bce565b60015b61260c57604051634c9c8ce360e01b81526001600160a01b0383166004820152602401610a61565b600080516020613e6d833981519152811461263d57604051632a87526960e21b815260048101829052602401610a61565b610a758383612faa565b306001600160a01b037f000000000000000000000000000000000000000000000000000000000000000016146111c45760405163703e46dd60e11b815260040160405180910390fd5b7f9016d09d72d40fdae2fd8ceac6b6234c7706214fd39c1cd1e609a0528c19930080546001600160a01b031981166001600160a01b03848116918217845560405192169182907f8be0079c531659141344cd1fd0a4f28419497f9722a3daafe3b4186f6b6457e090600090a3505050565b60006127106000836000611cff565b90506001600160a01b0381166109d757604051637e27328960e01b815260048101839052602401610a61565b6000826127498584613000565b14949350505050565b600080516020613e4d8339815191526001600160a01b03831661279357604051630b61174360e31b81526001600160a01b0384166004820152602401610a61565b6001600160a01b038481166000818152600584016020908152604080832094881680845294825291829020805460ff191687151590811790915591519182527f17307eab39ab6107e8899845ad3d59bd9653f200f220920489ca2b5937696c31910160405180910390a350505050565b6001600160a01b0383163b1561172c57604051630a85bd0160e11b81526001600160a01b0384169063150b7a0290612845903390889087908790600401613db7565b6020604051808303816000875af1925050508015612880575060408051601f3d908101601f1916820190925261287d91810190613dea565b60015b6128e9573d8080156128ae576040519150601f19603f3d011682016040523d82523d6000602084013e6128b3565b606091505b5080516000036128e157604051633250574960e11b81526001600160a01b0385166004820152602401610a61565b805181602001fd5b6001600160e01b03198116630a85bd0160e11b1461292557604051633250574960e11b81526001600160a01b0385166004820152602401610a61565b5050505050565b61293461304d565b6109d78282613096565b6111c461304d565b61294e61304d565b610b0c816130c7565b61295f61304d565b6111c46130cf565b60607f0542a41881ee128a365a727b282c86fa859579490b9bb45aab8503648c8e790061299383611ba0565b50600083815260208290526040812080546129ad90613b16565b80601f01602080910402602001604051908101604052809291908181526020018280546129d990613b16565b8015612a265780601f106129fb57610100808354040283529160200191612a26565b820191906000526020600020905b815481529060010190602001808311612a0957829003601f168201915b505050505090506000612a4460408051602081019091526000815290565b90508051600003612a5757509392505050565b815115612a8a578082604051602001612a71929190613e07565b6040516020818303038152906040529350505050919050565b611701856130d7565b6109d782826040518060200160405280600081525061314b565b60008281527f0542a41881ee128a365a727b282c86fa859579490b9bb45aab8503648c8e790060208190526040909120612ae78382613c63565b506040518381527ff8e1a15aba9398e019f0b49df1a4fde98ee17ae345cb5f6b5e2c27f5033e8ce79060200160405180910390a1505050565b60006001600160e01b031982166380ac58cd60e01b1480612b5157506001600160e01b03198216635b5e139f60e01b145b8061090d57506301ffc9a760e01b6001600160e01b031983161461090d565b60009081527f80bb2b638cc20bc4d0a60d66940f3ab4a00c1d7b313497ca82fb0b4ab007930260205260409020546001600160a01b031690565b600080516020613e4d8339815191528180612bcd57506001600160a01b03831615155b15612c8f576000612bdd85611ba0565b90506001600160a01b03841615801590612c095750836001600160a01b0316816001600160a01b031614155b8015612c1c5750612c1a81856118d8565b155b15612c455760405163a9fbf51f60e01b81526001600160a01b0385166004820152602401610a61565b8215612c8d5784866001600160a01b0316826001600160a01b03167f8c5be1e5ebec7d5bd14f71427d1e84f3dd0314c0f7b2291e5b200ac8c7c3b92560405160405180910390a45b505b600093845260040160205250506040902080546001600160a01b0319166001600160a01b0392909216919091179055565b612ccb838383613162565b610a75576001600160a01b038316612cf957604051637e27328960e01b815260048101829052602401610a61565b60405163177e802f60e01b81526001600160a01b038316600482015260248101829052604401610a61565b604080516001600160a01b038481166024830152604480830185905283518084039091018152606490920183526020820180516001600160e01b031663a9059cbb60e01b1790529151600092839290871691612d809190613b50565b6000604051808303816000865af19150503d8060008114612dbd576040519150601f19603f3d011682016040523d82523d6000602084013e612dc2565b606091505b5091509150818015612dec575080511580612dec575080806020019051810190612dec9190613be7565b6129255760405162461bcd60e51b815260206004820152600260248201526114d560f21b6044820152606401610a61565b604080516001600160a01b038481166024830152604480830185905283518084039091018152606490920183526020820180516001600160e01b031663095ea7b360e01b1790529151600092839290871691612e799190613b50565b6000604051808303816000865af19150503d8060008114612eb6576040519150601f19603f3d011682016040523d82523d6000602084013e612ebb565b606091505b5091509150818015612ee5575080511580612ee5575080806020019051810190612ee59190613be7565b6129255760405162461bcd60e51b8152602060048201526002602482015261534160f01b6044820152606401610a61565b6040516001600160a01b03838116602483015260448201839052610a7591859182169063a9059cbb9060640161247f565b6000612f5c6001600160a01b038416836131c8565b90508051600014158015612f81575080806020019051810190612f7f9190613be7565b155b15610a7557604051635274afe760e01b81526001600160a01b0384166004820152602401610a61565b612fb3826131d6565b6040516001600160a01b038316907fbc7cd75a20ee27fd9adebab32041f755214dbc6bffa90cc0225b39da2e5c2d3b90600090a2805115612ff857610a75828261323b565b6109d76132a8565b600081815b8451811015613045576130318286838151811061302457613024613e36565b60200260200101516132c7565b91508061303d81613c04565b915050613005565b509392505050565b7ff0c57e16840df040f15088dc2f81fe391c3923bec73e23a9662efc9c229c6a0054600160401b900460ff166111c457604051631afcd79f60e31b815260040160405180910390fd5b61309e61304d565b600080516020613e4d833981519152806130b88482613c63565b506001810161172c8382613c63565b611b4861304d565b6124b161304d565b60606130e282611ba0565b5060006130fa60408051602081019091526000815290565b9050600081511161311a57604051806020016040528060008152506113a4565b80613124846132f6565b604051602001613135929190613e07565b6040516020818303038152906040529392505050565b6131558383613389565b610a756000848484612803565b60006001600160a01b038316158015906131c05750826001600160a01b0316846001600160a01b0316148061319c575061319c84846118d8565b806131c05750826001600160a01b03166131b583611bd8565b6001600160a01b0316145b949350505050565b60606113a4838360006133ee565b806001600160a01b03163b60000361320c57604051634c9c8ce360e01b81526001600160a01b0382166004820152602401610a61565b600080516020613e6d83398151915280546001600160a01b0319166001600160a01b0392909216919091179055565b6060600080846001600160a01b0316846040516132589190613b50565b600060405180830381855af49150503d8060008114613293576040519150601f19603f3d011682016040523d82523d6000602084013e613298565b606091505b509150915061170185838361348b565b34156111c45760405163b398979f60e01b815260040160405180910390fd5b60008183106132e35760008281526020849052604090206113a4565b60008381526020839052604090206113a4565b60606000613303836134e7565b600101905060008167ffffffffffffffff8111156133235761332361372b565b6040519080825280601f01601f19166020018201604052801561334d576020820181803683370190505b5090508181016020015b600019016f181899199a1a9b1b9c1cb0b131b232b360811b600a86061a8153600a850494508461335757509392505050565b6001600160a01b0382166133b357604051633250574960e11b815260006004820152602401610a61565b60006133c183836000611cff565b90506001600160a01b03811615610a75576040516339e3563760e11b815260006004820152602401610a61565b6060814710156134135760405163cd78605960e01b8152306004820152602401610a61565b600080856001600160a01b0316848660405161342f9190613b50565b60006040518083038185875af1925050503d806000811461346c576040519150601f19603f3d011682016040523d82523d6000602084013e613471565b606091505b509150915061348186838361348b565b9695505050505050565b6060826134a05761349b826135bf565b6113a4565b81511580156134b757506001600160a01b0384163b155b156134e057604051639996b31560e01b81526001600160a01b0385166004820152602401610a61565b50806113a4565b60008072184f03e93ff9f4daa797ed6e38ed64bf6a1f0160401b83106135265772184f03e93ff9f4daa797ed6e38ed64bf6a1f0160401b830492506040015b6d04ee2d6d415b85acef81000000008310613552576d04ee2d6d415b85acef8100000000830492506020015b662386f26fc10000831061357057662386f26fc10000830492506010015b6305f5e1008310613588576305f5e100830492506008015b612710831061359c57612710830492506004015b606483106135ae576064830492506002015b600a831061090d5760010192915050565b8051156135cf5780518082602001fd5b604051630a12f52160e11b815260040160405180910390fd5b5080546135f490613b16565b6000825580601f10613604575050565b601f016020900490600052602060002090810190610b0c91905b80821115613632576000815560010161361e565b5090565b6001600160e01b031981168114610b0c57600080fd5b60006020828403121561365e57600080fd5b81356113a481613636565b60005b8381101561368457818101518382015260200161366c565b50506000910152565b600081518084526136a5816020860160208601613669565b601f01601f19169290920160200192915050565b6020815260006113a4602083018461368d565b6000602082840312156136de57600080fd5b5035919050565b80356001600160a01b03811681146136fc57600080fd5b919050565b6000806040838503121561371457600080fd5b61371d836136e5565b946020939093013593505050565b634e487b7160e01b600052604160045260246000fd5b600082601f83011261375257600080fd5b813567ffffffffffffffff8082111561376d5761376d61372b565b604051601f8301601f19908116603f011681019082821181831017156137955761379561372b565b816040528381528660208588010111156137ae57600080fd5b836020870160208301376000602085830101528094505050505092915050565b6000602082840312156137e057600080fd5b813567ffffffffffffffff8111156137f757600080fd5b6131c084828501613741565b60008060006060848603121561381857600080fd5b613821846136e5565b925061382f602085016136e5565b9150604084013590509250925092565b60008083601f84011261385157600080fd5b50813567ffffffffffffffff81111561386957600080fd5b6020830191508360208260051b850101111561388457600080fd5b9250929050565b600080600080600080600060c0888a0312156138a657600080fd5b873596506138b6602089016136e5565b955060408801359450606088013593506080880135925060a088013567ffffffffffffffff8111156138e757600080fd5b6138f38a828b0161383f565b989b979a50959850939692959293505050565b6000806040838503121561391957600080fd5b613922836136e5565b9150602083013567ffffffffffffffff81111561393e57600080fd5b61394a85828601613741565b9150509250929050565b60006020828403121561396657600080fd5b6113a4826136e5565b60008060006040848603121561398457600080fd5b61398d846136e5565b9250602084013567ffffffffffffffff8111156139a957600080fd5b6139b58682870161383f565b9497909650939450505050565b8015158114610b0c57600080fd5b600080604083850312156139e357600080fd5b6139ec836136e5565b915060208301356139fc816139c2565b809150509250929050565b60008060008060808587031215613a1d57600080fd5b613a26856136e5565b9350613a34602086016136e5565b925060408501359150606085013567ffffffffffffffff811115613a5757600080fd5b613a6387828801613741565b91505092959194509250565b60008060408385031215613a8257600080fd5b613a8b836136e5565b9150613a99602084016136e5565b90509250929050565b600080600060608486031215613ab757600080fd5b613ac0846136e5565b9250602084013567ffffffffffffffff80821115613add57600080fd5b613ae987838801613741565b93506040860135915080821115613aff57600080fd5b50613b0c86828701613741565b9150509250925092565b600181811c90821680613b2a57607f821691505b602082108103613b4a57634e487b7160e01b600052602260045260246000fd5b50919050565b60008251613b62818460208701613669565b9190910192915050565b634e487b7160e01b600052601160045260246000fd5b808202811582820484141761090d5761090d613b6c565b600082613bb657634e487b7160e01b600052601260045260246000fd5b500490565b8181038181111561090d5761090d613b6c565b600060208284031215613be057600080fd5b5051919050565b600060208284031215613bf957600080fd5b81516113a4816139c2565b600060018201613c1657613c16613b6c565b5060010190565b601f821115610a7557600081815260208120601f850160051c81016020861015613c445750805b601f850160051c820191505b818110156118c557828155600101613c50565b815167ffffffffffffffff811115613c7d57613c7d61372b565b613c9181613c8b8454613b16565b84613c1d565b602080601f831160018114613cc65760008415613cae5750858301515b600019600386901b1c1916600185901b1785556118c5565b600085815260208120601f198616915b82811015613cf557888601518255948401946001909101908401613cd6565b5085821015613d135787850151600019600388901b60f8161c191681555b5050505050600190811b01905550565b606081526000613d36606083018661368d565b8281036020840152613d48818661368d565b915050826040830152949350505050565b81516001600160a01b03908116825260208084015182169083015260408084015162ffffff16908301526060808401518216908301526080808401519083015260a0838101519083015260c092830151169181019190915260e00190565b6001600160a01b03858116825284166020820152604081018390526080606082018190526000906134819083018461368d565b600060208284031215613dfc57600080fd5b81516113a481613636565b60008351613e19818460208801613669565b835190830190613e2d818360208801613669565b01949350505050565b634e487b7160e01b600052603260045260246000fdfe80bb2b638cc20bc4d0a60d66940f3ab4a00c1d7b313497ca82fb0b4ab0079300360894a13ba1a3210667c828492db98dca3e2076cc3735a920a3ca505d382bbc9b779b17422d0df92223018b32b4d1fa46e071723d6817e2486d003becc55f00a2646970667358221220ee95b8a11180998c57f2b7e1f8fdcc6e5a6079ce6a0307774af7bf968cf3849564736f6c63430008140033",
  "linkReferences": {},
  "deployedLinkReferences": {}
}