{"contracts/HumbleDonations.sol":{"HumbleDonations":{"abi":[{"inputs":[],"stateMutability":"nonpayable","type":"constructor"},{"inputs":[{"internalType":"address","name":"target","type":"address"}],"name":"AddressEmptyCode","type":"error"},{"inputs":[{"internalType":"address","name":"account","type":"address"}],"name":"AddressInsufficientBalance","type":"error"},{"inputs":[{"internalType":"address","name":"implementation","type":"address"}],"name":"ERC1967InvalidImplementation","type":"error"},{"inputs":[],"name":"ERC1967NonPayable","type":"error"},{"inputs":[{"internalType":"address","name":"sender","type":"address"},{"internalType":"uint256","name":"tokenId","type":"uint256"},{"internalType":"address","name":"owner","type":"address"}],"name":"ERC721IncorrectOwner","type":"error"},{"inputs":[{"internalType":"address","name":"operator","type":"address"},{"internalType":"uint256","name":"tokenId","type":"uint256"}],"name":"ERC721InsufficientApproval","type":"error"},{"inputs":[{"internalType":"address","name":"approver","type":"address"}],"name":"ERC721InvalidApprover","type":"error"},{"inputs":[{"internalType":"address","name":"operator","type":"address"}],"name":"ERC721InvalidOperator","type":"error"},{"inputs":[{"internalType":"address","name":"owner","type":"address"}],"name":"ERC721InvalidOwner","type":"error"},{"inputs":[{"internalType":"address","name":"receiver","type":"address"}],"name":"ERC721InvalidReceiver","type":"error"},{"inputs":[{"internalType":"address","name":"sender","type":"address"}],"name":"ERC721InvalidSender","type":"error"},{"inputs":[{"internalType":"uint256","name":"tokenId","type":"uint256"}],"name":"ERC721NonexistentToken","type":"error"},{"inputs":[],"name":"FailedInnerCall","type":"error"},{"inputs":[],"name":"InvalidInitialization","type":"error"},{"inputs":[],"name":"NotInitializing","type":"error"},{"inputs":[{"internalType":"address","name":"owner","type":"address"}],"name":"OwnableInvalidOwner","type":"error"},{"inputs":[{"internalType":"address","name":"account","type":"address"}],"name":"OwnableUnauthorizedAccount","type":"error"},{"inputs":[],"name":"ReentrancyGuardReentrantCall","type":"error"},{"inputs":[{"internalType":"address","name":"token","type":"address"}],"name":"SafeERC20FailedOperation","type":"error"},{"inputs":[],"name":"UUPSUnauthorizedCallContext","type":"error"},{"inputs":[{"internalType":"bytes32","name":"slot","type":"bytes32"}],"name":"UUPSUnsupportedProxiableUUID","type":"error"},{"anonymous":false,"inputs":[{"indexed":true,"internalType":"address","name":"owner","type":"address"},{"indexed":true,"internalType":"address","name":"approved","type":"address"},{"indexed":true,"internalType":"uint256","name":"tokenId","type":"uint256"}],"name":"Approval","type":"event"},{"anonymous":false,"inputs":[{"indexed":true,"internalType":"address","name":"owner","type":"address"},{"indexed":true,"internalType":"address","name":"operator","type":"address"},{"indexed":false,"internalType":"bool","name":"approved","type":"bool"}],"name":"ApprovalForAll","type":"event"},{"anonymous":false,"inputs":[{"indexed":false,"internalType":"uint256","name":"_fromTokenId","type":"uint256"},{"indexed":false,"internalType":"uint256","name":"_toTokenId","type":"uint256"}],"name":"BatchMetadataUpdate","type":"event"},{"anonymous":false,"inputs":[{"indexed":true,"internalType":"uint256","name":"tokenId","type":"uint256"},{"indexed":true,"internalType":"address","name":"donor","type":"address"},{"indexed":false,"internalType":"address","name":"erc20Token","type":"address"},{"indexed":false,"internalType":"uint256","name":"amount","type":"uint256"},{"indexed":false,"internalType":"uint256","name":"timestamp","type":"uint256"}],"name":"DonationMade","type":"event"},{"anonymous":false,"inputs":[{"indexed":false,"internalType":"uint64","name":"version","type":"uint64"}],"name":"Initialized","type":"event"},{"anonymous":false,"inputs":[{"indexed":false,"internalType":"uint256","name":"_tokenId","type":"uint256"}],"name":"MetadataUpdate","type":"event"},{"anonymous":false,"inputs":[{"indexed":true,"internalType":"address","name":"previousOwner","type":"address"},{"indexed":true,"internalType":"address","name":"newOwner","type":"address"}],"name":"OwnershipTransferred","type":"event"},{"anonymous":false,"inputs":[{"indexed":true,"internalType":"uint256","name":"tokenId","type":"uint256"},{"indexed":true,"internalType":"address","name":"owner","type":"address"},{"indexed":false,"internalType":"string","name":"projectTitle","type":"string"},{"indexed":false,"internalType":"string","name":"uri","type":"string"},{"indexed":false,"internalType":"uint256","name":"timestamp","type":"uint256"}],"name":"ProjectCreated","type":"event"},{"anonymous":false,"inputs":[{"indexed":true,"internalType":"uint256","name":"tokenId","type":"uint256"},{"indexed":true,"internalType":"address","name":"previousOwner","type":"address"},{"indexed":true,"internalType":"address","name":"burnAddress","type":"address"},{"indexed":false,"internalType":"uint256","name":"timestamp","type":"uint256"}],"name":"ProjectDeleted","type":"event"},{"anonymous":false,"inputs":[{"indexed":true,"internalType":"address","name":"from","type":"address"},{"indexed":true,"internalType":"address","name":"to","type":"address"},{"indexed":true,"internalType":"uint256","name":"tokenId","type":"uint256"}],"name":"Transfer","type":"event"},{"anonymous":false,"inputs":[{"indexed":true,"internalType":"address","name":"implementation","type":"address"}],"name":"Upgraded","type":"event"},{"inputs":[],"name":"HDT","outputs":[{"internalType":"address","name":"","type":"address"}],"stateMutability":"view","type":"function"},{"inputs":[],"name":"UPGRADE_INTERFACE_VERSION","outputs":[{"internalType":"string","name":"","type":"string"}],"stateMutability":"view","type":"function"},{"inputs":[],"name":"WETH","outputs":[{"internalType":"address","name":"","type":"address"}],"stateMutability":"view","type":"function"},{"inputs":[{"internalType":"address","name":"to","type":"address"},{"internalType":"uint256","name":"tokenId","type":"uint256"}],"name":"approve","outputs":[],"stateMutability":"nonpayable","type":"function"},{"inputs":[{"internalType":"address","name":"owner","type":"address"}],"name":"balanceOf","outputs":[{"internalType":"uint256","name":"","type":"uint256"}],"stateMutability":"view","type":"function"},{"inputs":[{"internalType":"uint256","name":"tokenId","type":"uint256"}],"name":"burn","outputs":[],"stateMutability":"nonpayable","type":"function"},{"inputs":[{"internalType":"uint256","name":"tokenId","type":"uint256"}],"name":"burnToken","outputs":[],"stateMutability":"nonpayable","type":"function"},{"inputs":[{"internalType":"uint256","name":"tokenId","type":"uint256"},{"internalType":"address","name":"erc20Token","type":"address"},{"internalType":"uint256","name":"amount","type":"uint256"},{"internalType":"uint256","name":"slippageWETH","type":"uint256"},{"internalType":"uint256","name":"slippageHDT","type":"uint256"}],"name":"donate","outputs":[],"stateMutability":"payable","type":"function"},{"inputs":[],"name":"fees","outputs":[{"internalType":"uint256","name":"","type":"uint256"}],"stateMutability":"view","type":"function"},{"inputs":[{"internalType":"uint256","name":"tokenId","type":"uint256"}],"name":"getApproved","outputs":[{"internalType":"address","name":"","type":"address"}],"stateMutability":"view","type":"function"},{"inputs":[],"name":"getHDT","outputs":[{"internalType":"address","name":"","type":"address"}],"stateMutability":"view","type":"function"},{"inputs":[{"internalType":"string","name":"projectTitle","type":"string"}],"name":"getOwnerByProjectTitle","outputs":[{"internalType":"address","name":"","type":"address"}],"stateMutability":"view","type":"function"},{"inputs":[],"name":"getPercentage","outputs":[{"internalType":"uint256","name":"","type":"uint256"}],"stateMutability":"view","type":"function"},{"inputs":[{"internalType":"string","name":"projectTitle","type":"string"}],"name":"getTokenId","outputs":[{"internalType":"uint256","name":"","type":"uint256"}],"stateMutability":"view","type":"function"},{"inputs":[],"name":"getUpgradeCount","outputs":[{"internalType":"uint256","name":"","type":"uint256"}],"stateMutability":"view","type":"function"},{"inputs":[],"name":"getWETH","outputs":[{"internalType":"address","name":"","type":"address"}],"stateMutability":"view","type":"function"},{"inputs":[],"name":"getWhiteListHash","outputs":[{"internalType":"uint256","name":"","type":"uint256"}],"stateMutability":"view","type":"function"},{"inputs":[],"name":"get_mintRate","outputs":[{"internalType":"uint256","name":"","type":"uint256"}],"stateMutability":"view","type":"function"},{"inputs":[{"internalType":"address","name":"initialOwner","type":"address"}],"name":"initialize","outputs":[],"stateMutability":"nonpayable","type":"function"},{"inputs":[{"internalType":"address","name":"owner","type":"address"},{"internalType":"address","name":"operator","type":"address"}],"name":"isApprovedForAll","outputs":[{"internalType":"bool","name":"","type":"bool"}],"stateMutability":"view","type":"function"},{"inputs":[],"name":"latestTokenId","outputs":[{"internalType":"uint256","name":"","type":"uint256"}],"stateMutability":"view","type":"function"},{"inputs":[],"name":"mintRate","outputs":[{"internalType":"uint256","name":"","type":"uint256"}],"stateMutability":"view","type":"function"},{"inputs":[],"name":"name","outputs":[{"internalType":"string","name":"","type":"string"}],"stateMutability":"view","type":"function"},{"inputs":[],"name":"owner","outputs":[{"internalType":"address","name":"","type":"address"}],"stateMutability":"view","type":"function"},{"inputs":[{"internalType":"uint256","name":"tokenId","type":"uint256"}],"name":"ownerOf","outputs":[{"internalType":"address","name":"","type":"address"}],"stateMutability":"view","type":"function"},{"inputs":[],"name":"poolFee","outputs":[{"internalType":"uint24","name":"","type":"uint24"}],"stateMutability":"view","type":"function"},{"inputs":[{"internalType":"string","name":"","type":"string"}],"name":"projectTitleToTokenId","outputs":[{"internalType":"uint256","name":"","type":"uint256"}],"stateMutability":"view","type":"function"},{"inputs":[],"name":"proxiableUUID","outputs":[{"internalType":"bytes32","name":"","type":"bytes32"}],"stateMutability":"view","type":"function"},{"inputs":[],"name":"renounceOwnership","outputs":[],"stateMutability":"nonpayable","type":"function"},{"inputs":[{"internalType":"address","name":"to","type":"address"},{"internalType":"string","name":"uri","type":"string"},{"internalType":"string","name":"projectTitle","type":"string"}],"name":"safeMint","outputs":[],"stateMutability":"payable","type":"function"},{"inputs":[{"internalType":"address","name":"from","type":"address"},{"internalType":"address","name":"to","type":"address"},{"internalType":"uint256","name":"tokenId","type":"uint256"}],"name":"safeTransferFrom","outputs":[],"stateMutability":"nonpayable","type":"function"},{"inputs":[{"internalType":"address","name":"from","type":"address"},{"internalType":"address","name":"to","type":"address"},{"internalType":"uint256","name":"tokenId","type":"uint256"},{"internalType":"bytes","name":"data","type":"bytes"}],"name":"safeTransferFrom","outputs":[],"stateMutability":"nonpayable","type":"function"},{"inputs":[{"internalType":"address","name":"operator","type":"address"},{"internalType":"bool","name":"approved","type":"bool"}],"name":"setApprovalForAll","outputs":[],"stateMutability":"nonpayable","type":"function"},{"inputs":[{"internalType":"address","name":"_HDT","type":"address"}],"name":"setHDT","outputs":[],"stateMutability":"nonpayable","type":"function"},{"inputs":[{"internalType":"uint256","name":"tax","type":"uint256"}],"name":"setTaxPercentage","outputs":[],"stateMutability":"nonpayable","type":"function"},{"inputs":[{"internalType":"address","name":"_WETH","type":"address"}],"name":"setWETH","outputs":[],"stateMutability":"nonpayable","type":"function"},{"inputs":[{"internalType":"uint256","name":"whiteListHash","type":"uint256"}],"name":"setWhiteList","outputs":[],"stateMutability":"nonpayable","type":"function"},{"inputs":[{"internalType":"uint256","name":"_mintRate","type":"uint256"}],"name":"set_mintRate","outputs":[],"stateMutability":"nonpayable","type":"function"},{"inputs":[{"internalType":"bytes4","name":"interfaceId","type":"bytes4"}],"name":"supportsInterface","outputs":[{"internalType":"bool","name":"","type":"bool"}],"stateMutability":"view","type":"function"},{"inputs":[],"name":"swapRouter","outputs":[{"internalType":"contract IV3SwapRouter","name":"","type":"address"}],"stateMutability":"view","type":"function"},{"inputs":[],"name":"symbol","outputs":[{"internalType":"string","name":"","type":"string"}],"stateMutability":"view","type":"function"},{"inputs":[],"name":"taxPercentage","outputs":[{"internalType":"uint256","name":"","type":"uint256"}],"stateMutability":"view","type":"function"},{"inputs":[{"internalType":"uint256","name":"","type":"uint256"}],"name":"tokenIdToProjectTitle","outputs":[{"internalType":"string","name":"","type":"string"}],"stateMutability":"view","type":"function"},{"inputs":[{"internalType":"uint256","name":"tokenId","type":"uint256"}],"name":"tokenURI","outputs":[{"internalType":"string","name":"","type":"string"}],"stateMutability":"view","type":"function"},{"inputs":[{"internalType":"address","name":"from","type":"address"},{"internalType":"address","name":"to","type":"address"},{"internalType":"uint256","name":"tokenId","type":"uint256"}],"name":"transferFrom","outputs":[],"stateMutability":"nonpayable","type":"function"},{"inputs":[{"internalType":"address","name":"newOwner","type":"address"}],"name":"transferOwnership","outputs":[],"stateMutability":"nonpayable","type":"function"},{"inputs":[],"name":"upgradeCount","outputs":[{"internalType":"uint256","name":"","type":"uint256"}],"stateMutability":"view","type":"function"},{"inputs":[{"internalType":"address","name":"newImplementation","type":"address"},{"internalType":"bytes","name":"data","type":"bytes"}],"name":"upgradeToAndCall","outputs":[],"stateMutability":"payable","type":"function"},{"inputs":[],"name":"whiteList","outputs":[{"internalType":"uint256","name":"","type":"uint256"}],"stateMutability":"view","type":"function"},{"inputs":[],"name":"withdraw","outputs":[],"stateMutability":"nonpayable","type":"function"},{"inputs":[{"internalType":"address","name":"erc20Token","type":"address"},{"internalType":"uint256","name":"amount","type":"uint256"}],"name":"withdrawToken","outputs":[],"stateMutability":"nonpayable","type":"function"}],"evm":{"bytecode":{"linkReferences":{},"object":"60c060405230608052733bfa4769fb09eefc5a80d6e87c3b9c650f7ae48e60a0523480156200002d57600080fd5b50620000386200003e565b620000f2565b7ff0c57e16840df040f15088dc2f81fe391c3923bec73e23a9662efc9c229c6a00805468010000000000000000900460ff16156200008f5760405163f92ee8a960e01b815260040160405180910390fd5b80546001600160401b0390811614620000ef5780546001600160401b0319166001600160401b0390811782556040519081527fc7f505b2f371ae2175ee4913f4499e1f2633a7b5936321eed1cdaeb6115181d29060200160405180910390a15b50565b60805160a0516139d262000149600039600081816107dc01528181611df701528181611ebc01528181611fc6015281816120c50152612144015260008181611aaa01528181611ad30152611c2c01526139d26000f3fe6080604052600436106102e45760003560e01c80637b47ec1a11610190578063ae7b6d16116100dc578063ca0dcf1611610095578063e8ba1dff1161006f578063e8ba1dff146108c0578063e985e9c5146108d5578063eca81d42146108f5578063f2fde38b1461090857600080fd5b8063ca0dcf1614610854578063cae5f11e1461086a578063cd99b0101461088857600080fd5b8063ae7b6d1614610794578063b88d4fde146107aa578063c31c9c07146107ca578063c4128b6d146107fe578063c4d66de814610814578063c87b56dd1461083457600080fd5b806395d89b41116101495780639f4a7c10116101235780639f4a7c1014610703578063a22cb46514610723578063ad3cb1cc14610743578063ad5c46481461077457600080fd5b806395d89b41146106b85780639af1d35a146106cd5780639e281a98146106e357600080fd5b80637b47ec1a146105f15780638c0e8349146106115780638da5cb5b1461062657806391f7e39714610663578063930baae81461068357806394b17436146106a357600080fd5b806342966c681161024f5780635fea029411610208578063699abb3c116101e2578063699abb3c146105875780636fa2fd59146105a757806370a08231146105bc578063715018a6146105dc57600080fd5b80635fea0294146105365780636352211e146105545780636998a0c21461057457600080fd5b806342966c681461048e5780634744f619146104ae5780634f1ef286146104ce57806352d1902d146104e157806356b1ddbb146104f65780635b769f3c1461051657600080fd5b806318485476116102a157806318485476146103e35780631e7663bc1461040357806323b872dd146104235780633544a864146104435780633ccfd60b1461045957806342842e0e1461046e57600080fd5b806301ffc9a7146102e957806306fdde031461031e578063081812fc14610340578063089fe6aa14610378578063095ea7b3146103a25780630b2accb2146103c4575b600080fd5b3480156102f557600080fd5b50610309610304366004613213565b610928565b60405190151581526020015b60405180910390f35b34801561032a57600080fd5b50610333610939565b6040516103159190613280565b34801561034c57600080fd5b5061036061035b366004613293565b6109dd565b6040516001600160a01b039091168152602001610315565b34801561038457600080fd5b5061038e610bb881565b60405162ffffff9091168152602001610315565b3480156103ae57600080fd5b506103c26103bd3660046132c8565b6109f2565b005b3480156103d057600080fd5b506005545b604051908152602001610315565b3480156103ef57600080fd5b506103c26103fe366004613293565b610a01565b34801561040f57600080fd5b506103d561041e366004613395565b610a0e565b34801561042f57600080fd5b506103c261043e3660046133ca565b610a36565b34801561044f57600080fd5b506103d560095481565b34801561046557600080fd5b506103c2610ac6565b34801561047a57600080fd5b506103c26104893660046133ca565b610b5b565b34801561049a57600080fd5b506103c26104a9366004613293565b610b7b565b3480156104ba57600080fd5b506103c26104c9366004613293565b610b87565b6103c26104dc366004613406565b610b94565b3480156104ed57600080fd5b506103d5610baf565b34801561050257600080fd5b50600354610360906001600160a01b031681565b34801561052257600080fd5b506103c2610531366004613454565b610bcc565b34801561054257600080fd5b506003546001600160a01b0316610360565b34801561056057600080fd5b5061036061056f366004613293565b610bf6565b6103c261058236600461346f565b610c01565b34801561059357600080fd5b506103c26105a2366004613293565b610fc8565b3480156105b357600080fd5b506002546103d5565b3480156105c857600080fd5b506103d56105d7366004613454565b610fd5565b3480156105e857600080fd5b506103c2611031565b3480156105fd57600080fd5b506103c261060c366004613293565b611045565b34801561061d57600080fd5b506008546103d5565b34801561063257600080fd5b507f9016d09d72d40fdae2fd8ceac6b6234c7706214fd39c1cd1e609a0528c199300546001600160a01b0316610360565b34801561066f57600080fd5b5061036061067e366004613395565b61110e565b34801561068f57600080fd5b506103c261069e366004613454565b611153565b3480156106af57600080fd5b506009546103d5565b3480156106c457600080fd5b5061033361117d565b3480156106d957600080fd5b506103d560075481565b3480156106ef57600080fd5b506103c26106fe3660046132c8565b6111bc565b34801561070f57600080fd5b5061033361071e366004613293565b611389565b34801561072f57600080fd5b506103c261073e3660046134c3565b611423565b34801561074f57600080fd5b50610333604051806040016040528060058152602001640352e302e360dc1b81525081565b34801561078057600080fd5b50600454610360906001600160a01b031681565b3480156107a057600080fd5b506103d560055481565b3480156107b657600080fd5b506103c26107c53660046134fa565b61142e565b3480156107d657600080fd5b506103607f000000000000000000000000000000000000000000000000000000000000000081565b34801561080a57600080fd5b506103d560025481565b34801561082057600080fd5b506103c261082f366004613454565b611445565b34801561084057600080fd5b5061033361084f366004613293565b6115db565b34801561086057600080fd5b506103d560065481565b34801561087657600080fd5b506004546001600160a01b0316610360565b34801561089457600080fd5b506103d56108a3366004613395565b805160208183018101805160018252928201919093012091525481565b3480156108cc57600080fd5b506006546103d5565b3480156108e157600080fd5b506103096108f0366004613562565b6115e6565b6103c2610903366004613595565b611633565b34801561091457600080fd5b506103c2610923366004613454565b61185b565b600061093382611896565b92915050565b60008051602061393d833981519152805460609190819061095990613609565b80601f016020809104026020016040519081016040528092919081815260200182805461098590613609565b80156109d25780601f106109a7576101008083540402835291602001916109d2565b820191906000526020600020905b8154815290600101906020018083116109b557829003601f168201915b505050505091505090565b60006109e8826118bb565b50610933826118f3565b6109fd82823361192d565b5050565b610a0961193a565b600955565b6000600182604051610a209190613643565b9081526020016040518091039020549050919050565b6001600160a01b038216610a6557604051633250574960e11b8152600060048201526024015b60405180910390fd5b6000610a72838333611995565b9050836001600160a01b0316816001600160a01b031614610ac0576040516364283d7b60e01b81526001600160a01b0380861660048301526024820184905282166044820152606401610a5c565b50505050565b610ace61193a565b604051600090339047908381818185875af1925050503d8060008114610b10576040519150601f19603f3d011682016040523d82523d6000602084013e610b15565b606091505b5050905080610b585760405162461bcd60e51b815260206004820152600f60248201526e151c985b9cd9995c8811985a5b1959608a1b6044820152606401610a5c565b50565b610b768383836040518060200160405280600081525061142e565b505050565b6109fd60008233611995565b610b8f61193a565b600655565b610b9c611a9f565b610ba582611b44565b6109fd8282611b64565b6000610bb9611c21565b5060008051602061395d83398151915290565b610bd461193a565b600480546001600160a01b0319166001600160a01b0392909216919091179055565b6000610933826118bb565b610c09611c6a565b6000610c1486610bf6565b90506001600160a01b0381163303610c645760405162461bcd60e51b815260206004820152601360248201527221b0b73737ba103830bc903cb7bab939b2b63360691b6044820152606401610a5c565b60008681526020819052604081208054610c7d90613609565b905011610cc45760405162461bcd60e51b8152602060048201526015602482015274141c9bda9958dd081d1a5d1b19481b9bdd081cd95d605a1b6044820152606401610a5c565b6000806103e860055487610cd89190613675565b610ce2919061368c565b60035490915087906001600160a01b03808316911614610e8b57610d0682886136ae565b92506001600160a01b038816610dad5786341015610d665760405162461bcd60e51b815260206004820152601c60248201527f496e636f727265637420616d6f756e74206f66204554482073656e74000000006044820152606401610a5c565b610d708286611ca2565b506040516001600160a01b0385169084156108fc029085906000818181858888f19350505050158015610da7573d6000803e3d6000fd5b50610f5a565b604051636eb1769f60e11b815233600482015230602482015287906001600160a01b0383169063dd62ed3e90604401602060405180830381865afa158015610df9573d6000803e3d6000fd5b505050506040513d601f19601f82011682018060405250810190610e1d91906136c1565b1015610e645760405162461bcd60e51b8152602060048201526016602482015275496e73756666696369656e7420616c6c6f77616e636560501b6044820152606401610a5c565b610e7088838888611ea8565b50610e866001600160a01b0382163386866121f6565b610f5a565b604051636eb1769f60e11b815233600482015230602482015287935083906001600160a01b0383169063dd62ed3e90604401602060405180830381865afa158015610eda573d6000803e3d6000fd5b505050506040513d601f19601f82011682018060405250810190610efe91906136c1565b1015610f455760405162461bcd60e51b8152602060048201526016602482015275496e73756666696369656e7420616c6c6f77616e636560501b6044820152606401610a5c565b610f5a6001600160a01b0382163386866121f6565b604080516001600160a01b038a168152602081018590524281830152905133918b917fda38851157f2984cc47615155e6daa02931c36f0ecaa4822d8b631b5b368eb6e9181900360600190a350505050610fc1600160008051602061397d83398151915255565b5050505050565b610fd061193a565b600555565b600060008051602061393d8339815191526001600160a01b038316611010576040516322718ad960e21b815260006004820152602401610a5c565b6001600160a01b039092166000908152600390920160205250604090205490565b61103961193a565b6110436000612264565b565b600061105082610bf6565b90503361105c83610bf6565b6001600160a01b0316146110b25760405162461bcd60e51b815260206004820152601760248201527f43616c6c6572206973206e6f7420746865206f776e65720000000000000000006044820152606401610a5c565b6110bb826122d5565b60006001600160a01b0316816001600160a01b0316837f4ef8c0478b7cb23d7c76bbb226f7898438ece317e83af2b79f9a015974efcc7f4260405161110291815260200190565b60405180910390a45050565b6000806001836040516111219190613643565b90815260200160405180910390205490508060001461114a5761114381610bf6565b9392505050565b50600092915050565b61115b61193a565b600380546001600160a01b0319166001600160a01b0392909216919091179055565b7f80bb2b638cc20bc4d0a60d66940f3ab4a00c1d7b313497ca82fb0b4ab0079301805460609160008051602061393d8339815191529161095990613609565b6111c461193a565b6001600160a01b03821661121a5760405162461bcd60e51b815260206004820152601c60248201527f496e76616c6964204552432d323020746f6b656e2061646472657373000000006044820152606401610a5c565b6040516370a0823160e01b8152306004820152829082906001600160a01b038316906370a0823190602401602060405180830381865afa158015611262573d6000803e3d6000fd5b505050506040513d601f19601f8201168201806040525081019061128691906136c1565b10156112d45760405162461bcd60e51b815260206004820152601a60248201527f496e73756666696369656e7420746f6b656e2062616c616e63650000000000006044820152606401610a5c565b60405163a9059cbb60e01b8152336004820152602481018390526001600160a01b0382169063a9059cbb906044016020604051808303816000875af1158015611321573d6000803e3d6000fd5b505050506040513d601f19601f8201168201806040525081019061134591906136da565b610b765760405162461bcd60e51b8152602060048201526015602482015274151bdad95b881d1c985b9cd9995c8819985a5b1959605a1b6044820152606401610a5c565b600060208190529081526040902080546113a290613609565b80601f01602080910402602001604051908101604052809291908181526020018280546113ce90613609565b801561141b5780601f106113f05761010080835404028352916020019161141b565b820191906000526020600020905b8154815290600101906020018083116113fe57829003601f168201915b505050505081565b6109fd338383612310565b611439848484610a36565b610ac0848484846123c1565b7ff0c57e16840df040f15088dc2f81fe391c3923bec73e23a9662efc9c229c6a008054600160401b810460ff16159067ffffffffffffffff1660008115801561148b5750825b905060008267ffffffffffffffff1660011480156114a85750303b155b9050811580156114b6575080155b156114d45760405163f92ee8a960e01b815260040160405180910390fd5b845467ffffffffffffffff1916600117855583156114fe57845460ff60401b1916600160401b1785555b6115506040518060400160405280600f81526020016e48756d626c65446f6e6174696f6e7360881b8152506040518060400160405280600981526020016812111c1c9bda9958dd60ba1b8152506124e3565b6115586124f5565b6115606124f5565b611569866124fd565b6115716124f5565b61157961250e565b600f600555655af3107a4000600655600060025583156115d357845460ff60401b19168555604051600181527fc7f505b2f371ae2175ee4913f4499e1f2633a7b5936321eed1cdaeb6115181d29060200160405180910390a15b505050505050565b60606109338261251e565b6001600160a01b0391821660009081527f80bb2b638cc20bc4d0a60d66940f3ab4a00c1d7b313497ca82fb0b4ab00793056020908152604080832093909416825291909152205460ff1690565b61163b611c6a565b60065460075461164b91906136f7565b3410156116905760405162461bcd60e51b8152602060048201526013602482015272139bdd08195b9bdd59da08115512081cd95b9d606a1b6044820152606401610a5c565b61169983610fd5565b156116e65760405162461bcd60e51b815260206004820152601c60248201527f4164647265737320616c7265616479206f776e73206120746f6b656e000000006044820152606401610a5c565b6001816040516116f69190613643565b9081526020016040518091039020546000146117545760405162461bcd60e51b815260206004820152601c60248201527f50726f6a656374207469746c6520616c726561647920657869737473000000006044820152606401610a5c565b6008805490819060006117668361370a565b91905055506117758482612653565b61177f818461266d565b60008181526020819052604090206117978382613769565b50806001836040516117a99190613643565b908152604051908190036020018120919091556006547388b944e7e3d495b88caa62fb0158f697c9a1561d9181156108fc0291906000818181858888f193505050501580156117fc573d6000803e3d6000fd5b50836001600160a01b0316817f3c3fbb6a154e75fbef89d966d453c10b2ecc4dba66a0b8a755d720fae33a8fda84864260405161183b93929190613829565b60405180910390a350610b76600160008051602061397d83398151915255565b61186361193a565b6001600160a01b03811661188d57604051631e4fbdf760e01b815260006004820152602401610a5c565b610b5881612264565b60006001600160e01b03198216632483248360e11b14806109335750610933826126e0565b6000806118c783612730565b90506001600160a01b03811661093357604051637e27328960e01b815260048101849052602401610a5c565b60009081527f80bb2b638cc20bc4d0a60d66940f3ab4a00c1d7b313497ca82fb0b4ab007930460205260409020546001600160a01b031690565b610b76838383600161276a565b3361196c7f9016d09d72d40fdae2fd8ceac6b6234c7706214fd39c1cd1e609a0528c199300546001600160a01b031690565b6001600160a01b0316146110435760405163118cdaa760e01b8152336004820152602401610a5c565b600060008051602061393d833981519152816119b085612730565b90506001600160a01b038416156119cc576119cc818587612880565b6001600160a01b03811615611a0c576119e960008660008061276a565b6001600160a01b0381166000908152600383016020526040902080546000190190555b6001600160a01b03861615611a3d576001600160a01b03861660009081526003830160205260409020805460010190555b600085815260028301602052604080822080546001600160a01b0319166001600160a01b038a811691821790925591518893918516917fddf252ad1be2c89b69c2b068fc378daa952ba7f163c4a11628f55a4df523b3ef91a495945050505050565b306001600160a01b037f0000000000000000000000000000000000000000000000000000000000000000161480611b2657507f00000000000000000000000000000000000000000000000000000000000000006001600160a01b0316611b1a60008051602061395d833981519152546001600160a01b031690565b6001600160a01b031614155b156110435760405163703e46dd60e11b815260040160405180910390fd5b611b4c61193a565b60028054906000611b5c8361370a565b919050555050565b816001600160a01b03166352d1902d6040518163ffffffff1660e01b8152600401602060405180830381865afa925050508015611bbe575060408051601f3d908101601f19168201909252611bbb918101906136c1565b60015b611be657604051634c9c8ce360e01b81526001600160a01b0383166004820152602401610a5c565b60008051602061395d8339815191528114611c1757604051632a87526960e21b815260048101829052602401610a5c565b610b7683836128e4565b306001600160a01b037f000000000000000000000000000000000000000000000000000000000000000016146110435760405163703e46dd60e11b815260040160405180910390fd5b60008051602061397d833981519152805460011901611c9c57604051633ee5aeb560e01b815260040160405180910390fd5b60029055565b600080806004611cb3866003613675565b611cbd919061368c565b9050600460009054906101000a90046001600160a01b03166001600160a01b031663d0e30db0826040518263ffffffff1660e01b81526004016000604051808303818588803b158015611d0f57600080fd5b505af1158015611d23573d6000803e3d6000fd5b50505050506000600286611d37919061368c565b90506000611d4660048861368c565b600454909150611d74906001600160a01b03167388b944e7e3d495b88caa62fb0158f697c9a1561d8461293a565b600454611d9f906001600160a01b031673fda30f9d6a3864f092586cf755fc8fcdaf8bb5ae8361293a565b6040805160e081018252600480546001600160a01b03908116835260035481166020840152610bb8838501523060608401526080830185905260a083018a905287811660c084015292516304e45aaf60e01b815291927f000000000000000000000000000000000000000000000000000000000000000016916304e45aaf918591611e2c9186910161385f565b60206040518083038185885af1158015611e4a573d6000803e3d6000fd5b50505050506040513d601f19601f82011682018060405250810190611e6f91906136c1565b600354909650611e9d906001600160a01b031673fda30f9d6a3864f092586cf755fc8fcdaf8bb5ae8861293a565b505050505092915050565b6000611eb685333087612a33565b611ee1857f000000000000000000000000000000000000000000000000000000000000000086612b35565b60045460009081906001600160a01b0390811690881603611f7257611f0760028761368c565b9150611f1460048761368c565b600454909150611f42906001600160a01b03167388b944e7e3d495b88caa62fb0158f697c9a1561d8461293a565b600454611f6d906001600160a01b031673fda30f9d6a3864f092586cf755fc8fcdaf8bb5ae8361293a565b6120b3565b6040805160e0810182526001600160a01b03808a1682526004805482166020840152610bb883850152306060840152608083018a905260a08301899052600060c084015292516304e45aaf60e01b815291927f0000000000000000000000000000000000000000000000000000000000000000909116916304e45aaf91611ffb9185910161385f565b6020604051808303816000875af115801561201a573d6000803e3d6000fd5b505050506040513d601f19601f8201168201806040525081019061203e91906136c1565b935061204b60028561368c565b925061205860048561368c565b600454909250612086906001600160a01b03167388b944e7e3d495b88caa62fb0158f697c9a1561d8561293a565b6004546120b1906001600160a01b031673fda30f9d6a3864f092586cf755fc8fcdaf8bb5ae8461293a565b505b6004546120ea906001600160a01b03167f000000000000000000000000000000000000000000000000000000000000000083612b35565b6040805160e081018252600480546001600160a01b03908116835260035481166020840152610bb8838501523060608401526080830185905260a08301889052600060c0840181905293516304e45aaf60e01b81529293927f0000000000000000000000000000000000000000000000000000000000000000909116916304e45aaf916121799186910161385f565b6020604051808303816000875af1158015612198573d6000803e3d6000fd5b505050506040513d601f19601f820116820180604052508101906121bc91906136c1565b6003549091506121ea906001600160a01b031673fda30f9d6a3864f092586cf755fc8fcdaf8bb5ae8361293a565b50505050949350505050565b604080516001600160a01b0385811660248301528416604482015260648082018490528251808303909101815260849091019091526020810180516001600160e01b03166323b872dd60e01b179052610ac0908590612c2e565b600160008051602061397d83398151915255565b7f9016d09d72d40fdae2fd8ceac6b6234c7706214fd39c1cd1e609a0528c19930080546001600160a01b031981166001600160a01b03848116918217845560405192169182907f8be0079c531659141344cd1fd0a4f28419497f9722a3daafe3b4186f6b6457e090600090a3505050565b60006122e46000836000611995565b90506001600160a01b0381166109fd57604051637e27328960e01b815260048101839052602401610a5c565b60008051602061393d8339815191526001600160a01b03831661235157604051630b61174360e31b81526001600160a01b0384166004820152602401610a5c565b6001600160a01b038481166000818152600584016020908152604080832094881680845294825291829020805460ff191687151590811790915591519182527f17307eab39ab6107e8899845ad3d59bd9653f200f220920489ca2b5937696c31910160405180910390a350505050565b6001600160a01b0383163b15610ac057604051630a85bd0160e11b81526001600160a01b0384169063150b7a02906124039033908890879087906004016138bd565b6020604051808303816000875af192505050801561243e575060408051601f3d908101601f1916820190925261243b918101906138f0565b60015b6124a7573d80801561246c576040519150601f19603f3d011682016040523d82523d6000602084013e612471565b606091505b50805160000361249f57604051633250574960e11b81526001600160a01b0385166004820152602401610a5c565b805181602001fd5b6001600160e01b03198116630a85bd0160e11b14610fc157604051633250574960e11b81526001600160a01b0385166004820152602401610a5c565b6124eb612c91565b6109fd8282612cda565b611043612c91565b612505612c91565b610b5881612d0b565b612516612c91565b611043612d13565b60607f0542a41881ee128a365a727b282c86fa859579490b9bb45aab8503648c8e790061254a836118bb565b506000838152602082905260408120805461256490613609565b80601f016020809104026020016040519081016040528092919081815260200182805461259090613609565b80156125dd5780601f106125b2576101008083540402835291602001916125dd565b820191906000526020600020905b8154815290600101906020018083116125c057829003601f168201915b5050505050905060006125fb60408051602081019091526000815290565b9050805160000361260e57509392505050565b81511561264157808260405160200161262892919061390d565b6040516020818303038152906040529350505050919050565b61264a85612d1b565b95945050505050565b6109fd828260405180602001604052806000815250612d8f565b60008281527f0542a41881ee128a365a727b282c86fa859579490b9bb45aab8503648c8e7900602081905260409091206126a78382613769565b506040518381527ff8e1a15aba9398e019f0b49df1a4fde98ee17ae345cb5f6b5e2c27f5033e8ce79060200160405180910390a1505050565b60006001600160e01b031982166380ac58cd60e01b148061271157506001600160e01b03198216635b5e139f60e01b145b8061093357506301ffc9a760e01b6001600160e01b0319831614610933565b60009081527f80bb2b638cc20bc4d0a60d66940f3ab4a00c1d7b313497ca82fb0b4ab007930260205260409020546001600160a01b031690565b60008051602061393d833981519152818061278d57506001600160a01b03831615155b1561284f57600061279d856118bb565b90506001600160a01b038416158015906127c95750836001600160a01b0316816001600160a01b031614155b80156127dc57506127da81856115e6565b155b156128055760405163a9fbf51f60e01b81526001600160a01b0385166004820152602401610a5c565b821561284d5784866001600160a01b0316826001600160a01b03167f8c5be1e5ebec7d5bd14f71427d1e84f3dd0314c0f7b2291e5b200ac8c7c3b92560405160405180910390a45b505b600093845260040160205250506040902080546001600160a01b0319166001600160a01b0392909216919091179055565b61288b838383612da6565b610b76576001600160a01b0383166128b957604051637e27328960e01b815260048101829052602401610a5c565b60405163177e802f60e01b81526001600160a01b038316600482015260248101829052604401610a5c565b6128ed82612e0c565b6040516001600160a01b038316907fbc7cd75a20ee27fd9adebab32041f755214dbc6bffa90cc0225b39da2e5c2d3b90600090a280511561293257610b768282612e71565b6109fd612ede565b604080516001600160a01b038481166024830152604480830185905283518084039091018152606490920183526020820180516001600160e01b031663a9059cbb60e01b17905291516000928392908716916129969190613643565b6000604051808303816000865af19150503d80600081146129d3576040519150601f19603f3d011682016040523d82523d6000602084013e6129d8565b606091505b5091509150818015612a02575080511580612a02575080806020019051810190612a0291906136da565b610fc15760405162461bcd60e51b815260206004820152600260248201526114d560f21b6044820152606401610a5c565b604080516001600160a01b0385811660248301528481166044830152606480830185905283518084039091018152608490920183526020820180516001600160e01b03166323b872dd60e01b1790529151600092839290881691612a979190613643565b6000604051808303816000865af19150503d8060008114612ad4576040519150601f19603f3d011682016040523d82523d6000602084013e612ad9565b606091505b5091509150818015612b03575080511580612b03575080806020019051810190612b0391906136da565b6115d35760405162461bcd60e51b815260206004820152600360248201526229aa2360e91b6044820152606401610a5c565b604080516001600160a01b038481166024830152604480830185905283518084039091018152606490920183526020820180516001600160e01b031663095ea7b360e01b1790529151600092839290871691612b919190613643565b6000604051808303816000865af19150503d8060008114612bce576040519150601f19603f3d011682016040523d82523d6000602084013e612bd3565b606091505b5091509150818015612bfd575080511580612bfd575080806020019051810190612bfd91906136da565b610fc15760405162461bcd60e51b8152602060048201526002602482015261534160f01b6044820152606401610a5c565b6000612c436001600160a01b03841683612efd565b90508051600014158015612c68575080806020019051810190612c6691906136da565b155b15610b7657604051635274afe760e01b81526001600160a01b0384166004820152602401610a5c565b7ff0c57e16840df040f15088dc2f81fe391c3923bec73e23a9662efc9c229c6a0054600160401b900460ff1661104357604051631afcd79f60e31b815260040160405180910390fd5b612ce2612c91565b60008051602061393d83398151915280612cfc8482613769565b5060018101610ac08382613769565b611863612c91565b612250612c91565b6060612d26826118bb565b506000612d3e60408051602081019091526000815290565b90506000815111612d5e5760405180602001604052806000815250611143565b80612d6884612f0b565b604051602001612d7992919061390d565b6040516020818303038152906040529392505050565b612d998383612f9e565b610b7660008484846123c1565b60006001600160a01b03831615801590612e045750826001600160a01b0316846001600160a01b03161480612de05750612de084846115e6565b80612e045750826001600160a01b0316612df9836118f3565b6001600160a01b0316145b949350505050565b806001600160a01b03163b600003612e4257604051634c9c8ce360e01b81526001600160a01b0382166004820152602401610a5c565b60008051602061395d83398151915280546001600160a01b0319166001600160a01b0392909216919091179055565b6060600080846001600160a01b031684604051612e8e9190613643565b600060405180830381855af49150503d8060008114612ec9576040519150601f19603f3d011682016040523d82523d6000602084013e612ece565b606091505b509150915061264a858383613003565b34156110435760405163b398979f60e01b815260040160405180910390fd5b60606111438383600061305f565b60606000612f18836130fc565b600101905060008167ffffffffffffffff811115612f3857612f386132f2565b6040519080825280601f01601f191660200182016040528015612f62576020820181803683370190505b5090508181016020015b600019016f181899199a1a9b1b9c1cb0b131b232b360811b600a86061a8153600a8504945084612f6c57509392505050565b6001600160a01b038216612fc857604051633250574960e11b815260006004820152602401610a5c565b6000612fd683836000611995565b90506001600160a01b03811615610b76576040516339e3563760e11b815260006004820152602401610a5c565b60608261301857613013826131d4565b611143565b815115801561302f57506001600160a01b0384163b155b1561305857604051639996b31560e01b81526001600160a01b0385166004820152602401610a5c565b5080611143565b6060814710156130845760405163cd78605960e01b8152306004820152602401610a5c565b600080856001600160a01b031684866040516130a09190613643565b60006040518083038185875af1925050503d80600081146130dd576040519150601f19603f3d011682016040523d82523d6000602084013e6130e2565b606091505b50915091506130f2868383613003565b9695505050505050565b60008072184f03e93ff9f4daa797ed6e38ed64bf6a1f0160401b831061313b5772184f03e93ff9f4daa797ed6e38ed64bf6a1f0160401b830492506040015b6d04ee2d6d415b85acef81000000008310613167576d04ee2d6d415b85acef8100000000830492506020015b662386f26fc10000831061318557662386f26fc10000830492506010015b6305f5e100831061319d576305f5e100830492506008015b61271083106131b157612710830492506004015b606483106131c3576064830492506002015b600a83106109335760010192915050565b8051156131e45780518082602001fd5b604051630a12f52160e11b815260040160405180910390fd5b6001600160e01b031981168114610b5857600080fd5b60006020828403121561322557600080fd5b8135611143816131fd565b60005b8381101561324b578181015183820152602001613233565b50506000910152565b6000815180845261326c816020860160208601613230565b601f01601f19169290920160200192915050565b6020815260006111436020830184613254565b6000602082840312156132a557600080fd5b5035919050565b80356001600160a01b03811681146132c357600080fd5b919050565b600080604083850312156132db57600080fd5b6132e4836132ac565b946020939093013593505050565b634e487b7160e01b600052604160045260246000fd5b600082601f83011261331957600080fd5b813567ffffffffffffffff80821115613334576133346132f2565b604051601f8301601f19908116603f0116810190828211818310171561335c5761335c6132f2565b8160405283815286602085880101111561337557600080fd5b836020870160208301376000602085830101528094505050505092915050565b6000602082840312156133a757600080fd5b813567ffffffffffffffff8111156133be57600080fd5b612e0484828501613308565b6000806000606084860312156133df57600080fd5b6133e8846132ac565b92506133f6602085016132ac565b9150604084013590509250925092565b6000806040838503121561341957600080fd5b613422836132ac565b9150602083013567ffffffffffffffff81111561343e57600080fd5b61344a85828601613308565b9150509250929050565b60006020828403121561346657600080fd5b611143826132ac565b600080600080600060a0868803121561348757600080fd5b85359450613497602087016132ac565b94979496505050506040830135926060810135926080909101359150565b8015158114610b5857600080fd5b600080604083850312156134d657600080fd5b6134df836132ac565b915060208301356134ef816134b5565b809150509250929050565b6000806000806080858703121561351057600080fd5b613519856132ac565b9350613527602086016132ac565b925060408501359150606085013567ffffffffffffffff81111561354a57600080fd5b61355687828801613308565b91505092959194509250565b6000806040838503121561357557600080fd5b61357e836132ac565b915061358c602084016132ac565b90509250929050565b6000806000606084860312156135aa57600080fd5b6135b3846132ac565b9250602084013567ffffffffffffffff808211156135d057600080fd5b6135dc87838801613308565b935060408601359150808211156135f257600080fd5b506135ff86828701613308565b9150509250925092565b600181811c9082168061361d57607f821691505b60208210810361363d57634e487b7160e01b600052602260045260246000fd5b50919050565b60008251613655818460208701613230565b9190910192915050565b634e487b7160e01b600052601160045260246000fd5b80820281158282048414176109335761093361365f565b6000826136a957634e487b7160e01b600052601260045260246000fd5b500490565b818103818111156109335761093361365f565b6000602082840312156136d357600080fd5b5051919050565b6000602082840312156136ec57600080fd5b8151611143816134b5565b808201808211156109335761093361365f565b60006001820161371c5761371c61365f565b5060010190565b601f821115610b7657600081815260208120601f850160051c8101602086101561374a5750805b601f850160051c820191505b818110156115d357828155600101613756565b815167ffffffffffffffff811115613783576137836132f2565b613797816137918454613609565b84613723565b602080601f8311600181146137cc57600084156137b45750858301515b600019600386901b1c1916600185901b1785556115d3565b600085815260208120601f198616915b828110156137fb578886015182559484019460019091019084016137dc565b50858210156138195787850151600019600388901b60f8161c191681555b5050505050600190811b01905550565b60608152600061383c6060830186613254565b828103602084015261384e8186613254565b915050826040830152949350505050565b81516001600160a01b03908116825260208084015182169083015260408084015162ffffff16908301526060808401518216908301526080808401519083015260a0838101519083015260c092830151169181019190915260e00190565b6001600160a01b03858116825284166020820152604081018390526080606082018190526000906130f290830184613254565b60006020828403121561390257600080fd5b8151611143816131fd565b6000835161391f818460208801613230565b835190830190613933818360208801613230565b0194935050505056fe80bb2b638cc20bc4d0a60d66940f3ab4a00c1d7b313497ca82fb0b4ab0079300360894a13ba1a3210667c828492db98dca3e2076cc3735a920a3ca505d382bbc9b779b17422d0df92223018b32b4d1fa46e071723d6817e2486d003becc55f00a2646970667358221220c1623bae20190e9cbbd12b6432d62c2cd44f2462e1de9650b9fa902e173c427f64736f6c63430008140033","opcodes":"PUSH1 0xC0 PUSH1 0x40 MSTORE ADDRESS PUSH1 0x80 MSTORE PUSH20 0x3BFA4769FB09EEFC5A80D6E87C3B9C650F7AE48E PUSH1 0xA0 MSTORE CALLVALUE DUP1 ISZERO PUSH3 0x2D JUMPI PUSH1 0x0 DUP1 REVERT JUMPDEST POP PUSH3 0x38 PUSH3 0x3E JUMP JUMPDEST PUSH3 0xF2 JUMP JUMPDEST PUSH32 0xF0C57E16840DF040F15088DC2F81FE391C3923BEC73E23A9662EFC9C229C6A00 DUP1 SLOAD PUSH9 0x10000000000000000 SWAP1 DIV PUSH1 0xFF AND ISZERO PUSH3 0x8F JUMPI PUSH1 0x40 MLOAD PUSH4 0xF92EE8A9 PUSH1 0xE0 SHL DUP2 MSTORE PUSH1 0x4 ADD PUSH1 0x40 MLOAD DUP1 SWAP2 SUB SWAP1 REVERT JUMPDEST DUP1 SLOAD PUSH1 0x1 PUSH1 0x1 PUSH1 0x40 SHL SUB SWAP1 DUP2 AND EQ PUSH3 0xEF JUMPI DUP1 SLOAD PUSH1 0x1 PUSH1 0x1 PUSH1 0x40 SHL SUB NOT AND PUSH1 0x1 PUSH1 0x1 PUSH1 0x40 SHL SUB SWAP1 DUP2 OR DUP3 SSTORE PUSH1 0x40 MLOAD SWAP1 DUP2 MSTORE PUSH32 0xC7F505B2F371AE2175EE4913F4499E1F2633A7B5936321EED1CDAEB6115181D2 SWAP1 PUSH1 0x20 ADD PUSH1 0x40 MLOAD DUP1 SWAP2 SUB SWAP1 LOG1 JUMPDEST POP JUMP JUMPDEST PUSH1 0x80 MLOAD PUSH1 0xA0 MLOAD PUSH2 0x39D2 PUSH3 0x149 PUSH1 0x0 CODECOPY PUSH1 0x0 DUP2 DUP2 PUSH2 0x7DC ADD MSTORE DUP2 DUP2 PUSH2 0x1DF7 ADD MSTORE DUP2 DUP2 PUSH2 0x1EBC ADD MSTORE DUP2 DUP2 PUSH2 0x1FC6 ADD MSTORE DUP2 DUP2 PUSH2 0x20C5 ADD MSTORE PUSH2 0x2144 ADD MSTORE PUSH1 0x0 DUP2 DUP2 PUSH2 0x1AAA ADD MSTORE DUP2 DUP2 PUSH2 0x1AD3 ADD MSTORE PUSH2 0x1C2C ADD MSTORE PUSH2 0x39D2 PUSH1 0x0 RETURN INVALID PUSH1 0x80 PUSH1 0x40 MSTORE PUSH1 0x4 CALLDATASIZE LT PUSH2 0x2E4 JUMPI PUSH1 0x0 CALLDATALOAD PUSH1 0xE0 SHR DUP1 PUSH4 0x7B47EC1A GT PUSH2 0x190 JUMPI DUP1 PUSH4 0xAE7B6D16 GT PUSH2 0xDC JUMPI DUP1 PUSH4 0xCA0DCF16 GT PUSH2 0x95 JUMPI DUP1 PUSH4 0xE8BA1DFF GT PUSH2 0x6F JUMPI DUP1 PUSH4 0xE8BA1DFF EQ PUSH2 0x8C0 JUMPI DUP1 PUSH4 0xE985E9C5 EQ PUSH2 0x8D5 JUMPI DUP1 PUSH4 0xECA81D42 EQ PUSH2 0x8F5 JUMPI DUP1 PUSH4 0xF2FDE38B EQ PUSH2 0x908 JUMPI PUSH1 0x0 DUP1 REVERT JUMPDEST DUP1 PUSH4 0xCA0DCF16 EQ PUSH2 0x854 JUMPI DUP1 PUSH4 0xCAE5F11E EQ PUSH2 0x86A JUMPI DUP1 PUSH4 0xCD99B010 EQ PUSH2 0x888 JUMPI PUSH1 0x0 DUP1 REVERT JUMPDEST DUP1 PUSH4 0xAE7B6D16 EQ PUSH2 0x794 JUMPI DUP1 PUSH4 0xB88D4FDE EQ PUSH2 0x7AA JUMPI DUP1 PUSH4 0xC31C9C07 EQ PUSH2 0x7CA JUMPI DUP1 PUSH4 0xC4128B6D EQ PUSH2 0x7FE JUMPI DUP1 PUSH4 0xC4D66DE8 EQ PUSH2 0x814 JUMPI DUP1 PUSH4 0xC87B56DD EQ PUSH2 0x834 JUMPI PUSH1 0x0 DUP1 REVERT JUMPDEST DUP1 PUSH4 0x95D89B41 GT PUSH2 0x149 JUMPI DUP1 PUSH4 0x9F4A7C10 GT PUSH2 0x123 JUMPI DUP1 PUSH4 0x9F4A7C10 EQ PUSH2 0x703 JUMPI DUP1 PUSH4 0xA22CB465 EQ PUSH2 0x723 JUMPI DUP1 PUSH4 0xAD3CB1CC EQ PUSH2 0x743 JUMPI DUP1 PUSH4 0xAD5C4648 EQ PUSH2 0x774 JUMPI PUSH1 0x0 DUP1 REVERT JUMPDEST DUP1 PUSH4 0x95D89B41 EQ PUSH2 0x6B8 JUMPI DUP1 PUSH4 0x9AF1D35A EQ PUSH2 0x6CD JUMPI DUP1 PUSH4 0x9E281A98 EQ PUSH2 0x6E3 JUMPI PUSH1 0x0 DUP1 REVERT JUMPDEST DUP1 PUSH4 0x7B47EC1A EQ PUSH2 0x5F1 JUMPI DUP1 PUSH4 0x8C0E8349 EQ PUSH2 0x611 JUMPI DUP1 PUSH4 0x8DA5CB5B EQ PUSH2 0x626 JUMPI DUP1 PUSH4 0x91F7E397 EQ PUSH2 0x663 JUMPI DUP1 PUSH4 0x930BAAE8 EQ PUSH2 0x683 JUMPI DUP1 PUSH4 0x94B17436 EQ PUSH2 0x6A3 JUMPI PUSH1 0x0 DUP1 REVERT JUMPDEST DUP1 PUSH4 0x42966C68 GT PUSH2 0x24F JUMPI DUP1 PUSH4 0x5FEA0294 GT PUSH2 0x208 JUMPI DUP1 PUSH4 0x699ABB3C GT PUSH2 0x1E2 JUMPI DUP1 PUSH4 0x699ABB3C EQ PUSH2 0x587 JUMPI DUP1 PUSH4 0x6FA2FD59 EQ PUSH2 0x5A7 JUMPI DUP1 PUSH4 0x70A08231 EQ PUSH2 0x5BC JUMPI DUP1 PUSH4 0x715018A6 EQ PUSH2 0x5DC JUMPI PUSH1 0x0 DUP1 REVERT JUMPDEST DUP1 PUSH4 0x5FEA0294 EQ PUSH2 0x536 JUMPI DUP1 PUSH4 0x6352211E EQ PUSH2 0x554 JUMPI DUP1 PUSH4 0x6998A0C2 EQ PUSH2 0x574 JUMPI PUSH1 0x0 DUP1 REVERT JUMPDEST DUP1 PUSH4 0x42966C68 EQ PUSH2 0x48E JUMPI DUP1 PUSH4 0x4744F619 EQ PUSH2 0x4AE JUMPI DUP1 PUSH4 0x4F1EF286 EQ PUSH2 0x4CE JUMPI DUP1 PUSH4 0x52D1902D EQ PUSH2 0x4E1 JUMPI DUP1 PUSH4 0x56B1DDBB EQ PUSH2 0x4F6 JUMPI DUP1 PUSH4 0x5B769F3C EQ PUSH2 0x516 JUMPI PUSH1 0x0 DUP1 REVERT JUMPDEST DUP1 PUSH4 0x18485476 GT PUSH2 0x2A1 JUMPI DUP1 PUSH4 0x18485476 EQ PUSH2 0x3E3 JUMPI DUP1 PUSH4 0x1E7663BC EQ PUSH2 0x403 JUMPI DUP1 PUSH4 0x23B872DD EQ PUSH2 0x423 JUMPI DUP1 PUSH4 0x3544A864 EQ PUSH2 0x443 JUMPI DUP1 PUSH4 0x3CCFD60B EQ PUSH2 0x459 JUMPI DUP1 PUSH4 0x42842E0E EQ PUSH2 0x46E JUMPI PUSH1 0x0 DUP1 REVERT JUMPDEST DUP1 PUSH4 0x1FFC9A7 EQ PUSH2 0x2E9 JUMPI DUP1 PUSH4 0x6FDDE03 EQ PUSH2 0x31E JUMPI DUP1 PUSH4 0x81812FC EQ PUSH2 0x340 JUMPI DUP1 PUSH4 0x89FE6AA EQ PUSH2 0x378 JUMPI DUP1 PUSH4 0x95EA7B3 EQ PUSH2 0x3A2 JUMPI DUP1 PUSH4 0xB2ACCB2 EQ PUSH2 0x3C4 JUMPI JUMPDEST PUSH1 0x0 DUP1 REVERT JUMPDEST CALLVALUE DUP1 ISZERO PUSH2 0x2F5 JUMPI PUSH1 0x0 DUP1 REVERT JUMPDEST POP PUSH2 0x309 PUSH2 0x304 CALLDATASIZE PUSH1 0x4 PUSH2 0x3213 JUMP JUMPDEST PUSH2 0x928 JUMP JUMPDEST PUSH1 0x40 MLOAD SWAP1 ISZERO ISZERO DUP2 MSTORE PUSH1 0x20 ADD JUMPDEST PUSH1 0x40 MLOAD DUP1 SWAP2 SUB SWAP1 RETURN JUMPDEST CALLVALUE DUP1 ISZERO PUSH2 0x32A JUMPI PUSH1 0x0 DUP1 REVERT JUMPDEST POP PUSH2 0x333 PUSH2 0x939 JUMP JUMPDEST PUSH1 0x40 MLOAD PUSH2 0x315 SWAP2 SWAP1 PUSH2 0x3280 JUMP JUMPDEST CALLVALUE DUP1 ISZERO PUSH2 0x34C JUMPI PUSH1 0x0 DUP1 REVERT JUMPDEST POP PUSH2 0x360 PUSH2 0x35B CALLDATASIZE PUSH1 0x4 PUSH2 0x3293 JUMP JUMPDEST PUSH2 0x9DD JUMP JUMPDEST PUSH1 0x40 MLOAD PUSH1 0x1 PUSH1 0x1 PUSH1 0xA0 SHL SUB SWAP1 SWAP2 AND DUP2 MSTORE PUSH1 0x20 ADD PUSH2 0x315 JUMP JUMPDEST CALLVALUE DUP1 ISZERO PUSH2 0x384 JUMPI PUSH1 0x0 DUP1 REVERT JUMPDEST POP PUSH2 0x38E PUSH2 0xBB8 DUP2 JUMP JUMPDEST PUSH1 0x40 MLOAD PUSH3 0xFFFFFF SWAP1 SWAP2 AND DUP2 MSTORE PUSH1 0x20 ADD PUSH2 0x315 JUMP JUMPDEST CALLVALUE DUP1 ISZERO PUSH2 0x3AE JUMPI PUSH1 0x0 DUP1 REVERT JUMPDEST POP PUSH2 0x3C2 PUSH2 0x3BD CALLDATASIZE PUSH1 0x4 PUSH2 0x32C8 JUMP JUMPDEST PUSH2 0x9F2 JUMP JUMPDEST STOP JUMPDEST CALLVALUE DUP1 ISZERO PUSH2 0x3D0 JUMPI PUSH1 0x0 DUP1 REVERT JUMPDEST POP PUSH1 0x5 SLOAD JUMPDEST PUSH1 0x40 MLOAD SWAP1 DUP2 MSTORE PUSH1 0x20 ADD PUSH2 0x315 JUMP JUMPDEST CALLVALUE DUP1 ISZERO PUSH2 0x3EF JUMPI PUSH1 0x0 DUP1 REVERT JUMPDEST POP PUSH2 0x3C2 PUSH2 0x3FE CALLDATASIZE PUSH1 0x4 PUSH2 0x3293 JUMP JUMPDEST PUSH2 0xA01 JUMP JUMPDEST CALLVALUE DUP1 ISZERO PUSH2 0x40F JUMPI PUSH1 0x0 DUP1 REVERT JUMPDEST POP PUSH2 0x3D5 PUSH2 0x41E CALLDATASIZE PUSH1 0x4 PUSH2 0x3395 JUMP JUMPDEST PUSH2 0xA0E JUMP JUMPDEST CALLVALUE DUP1 ISZERO PUSH2 0x42F JUMPI PUSH1 0x0 DUP1 REVERT JUMPDEST POP PUSH2 0x3C2 PUSH2 0x43E CALLDATASIZE PUSH1 0x4 PUSH2 0x33CA JUMP JUMPDEST PUSH2 0xA36 JUMP JUMPDEST CALLVALUE DUP1 ISZERO PUSH2 0x44F JUMPI PUSH1 0x0 DUP1 REVERT JUMPDEST POP PUSH2 0x3D5 PUSH1 0x9 SLOAD DUP2 JUMP JUMPDEST CALLVALUE DUP1 ISZERO PUSH2 0x465 JUMPI PUSH1 0x0 DUP1 REVERT JUMPDEST POP PUSH2 0x3C2 PUSH2 0xAC6 JUMP JUMPDEST CALLVALUE DUP1 ISZERO PUSH2 0x47A JUMPI PUSH1 0x0 DUP1 REVERT JUMPDEST POP PUSH2 0x3C2 PUSH2 0x489 CALLDATASIZE PUSH1 0x4 PUSH2 0x33CA JUMP JUMPDEST PUSH2 0xB5B JUMP JUMPDEST CALLVALUE DUP1 ISZERO PUSH2 0x49A JUMPI PUSH1 0x0 DUP1 REVERT JUMPDEST POP PUSH2 0x3C2 PUSH2 0x4A9 CALLDATASIZE PUSH1 0x4 PUSH2 0x3293 JUMP JUMPDEST PUSH2 0xB7B JUMP JUMPDEST CALLVALUE DUP1 ISZERO PUSH2 0x4BA JUMPI PUSH1 0x0 DUP1 REVERT JUMPDEST POP PUSH2 0x3C2 PUSH2 0x4C9 CALLDATASIZE PUSH1 0x4 PUSH2 0x3293 JUMP JUMPDEST PUSH2 0xB87 JUMP JUMPDEST PUSH2 0x3C2 PUSH2 0x4DC CALLDATASIZE PUSH1 0x4 PUSH2 0x3406 JUMP JUMPDEST PUSH2 0xB94 JUMP JUMPDEST CALLVALUE DUP1 ISZERO PUSH2 0x4ED JUMPI PUSH1 0x0 DUP1 REVERT JUMPDEST POP PUSH2 0x3D5 PUSH2 0xBAF JUMP JUMPDEST CALLVALUE DUP1 ISZERO PUSH2 0x502 JUMPI PUSH1 0x0 DUP1 REVERT JUMPDEST POP PUSH1 0x3 SLOAD PUSH2 0x360 SWAP1 PUSH1 0x1 PUSH1 0x1 PUSH1 0xA0 SHL SUB AND DUP2 JUMP JUMPDEST CALLVALUE DUP1 ISZERO PUSH2 0x522 JUMPI PUSH1 0x0 DUP1 REVERT JUMPDEST POP PUSH2 0x3C2 PUSH2 0x531 CALLDATASIZE PUSH1 0x4 PUSH2 0x3454 JUMP JUMPDEST PUSH2 0xBCC JUMP JUMPDEST CALLVALUE DUP1 ISZERO PUSH2 0x542 JUMPI PUSH1 0x0 DUP1 REVERT JUMPDEST POP PUSH1 0x3 SLOAD PUSH1 0x1 PUSH1 0x1 PUSH1 0xA0 SHL SUB AND PUSH2 0x360 JUMP JUMPDEST CALLVALUE DUP1 ISZERO PUSH2 0x560 JUMPI PUSH1 0x0 DUP1 REVERT JUMPDEST POP PUSH2 0x360 PUSH2 0x56F CALLDATASIZE PUSH1 0x4 PUSH2 0x3293 JUMP JUMPDEST PUSH2 0xBF6 JUMP JUMPDEST PUSH2 0x3C2 PUSH2 0x582 CALLDATASIZE PUSH1 0x4 PUSH2 0x346F JUMP JUMPDEST PUSH2 0xC01 JUMP JUMPDEST CALLVALUE DUP1 ISZERO PUSH2 0x593 JUMPI PUSH1 0x0 DUP1 REVERT JUMPDEST POP PUSH2 0x3C2 PUSH2 0x5A2 CALLDATASIZE PUSH1 0x4 PUSH2 0x3293 JUMP JUMPDEST PUSH2 0xFC8 JUMP JUMPDEST CALLVALUE DUP1 ISZERO PUSH2 0x5B3 JUMPI PUSH1 0x0 DUP1 REVERT JUMPDEST POP PUSH1 0x2 SLOAD PUSH2 0x3D5 JUMP JUMPDEST CALLVALUE DUP1 ISZERO PUSH2 0x5C8 JUMPI PUSH1 0x0 DUP1 REVERT JUMPDEST POP PUSH2 0x3D5 PUSH2 0x5D7 CALLDATASIZE PUSH1 0x4 PUSH2 0x3454 JUMP JUMPDEST PUSH2 0xFD5 JUMP JUMPDEST CALLVALUE DUP1 ISZERO PUSH2 0x5E8 JUMPI PUSH1 0x0 DUP1 REVERT JUMPDEST POP PUSH2 0x3C2 PUSH2 0x1031 JUMP JUMPDEST CALLVALUE DUP1 ISZERO PUSH2 0x5FD JUMPI PUSH1 0x0 DUP1 REVERT JUMPDEST POP PUSH2 0x3C2 PUSH2 0x60C CALLDATASIZE PUSH1 0x4 PUSH2 0x3293 JUMP JUMPDEST PUSH2 0x1045 JUMP JUMPDEST CALLVALUE DUP1 ISZERO PUSH2 0x61D JUMPI PUSH1 0x0 DUP1 REVERT JUMPDEST POP PUSH1 0x8 SLOAD PUSH2 0x3D5 JUMP JUMPDEST CALLVALUE DUP1 ISZERO PUSH2 0x632 JUMPI PUSH1 0x0 DUP1 REVERT JUMPDEST POP PUSH32 0x9016D09D72D40FDAE2FD8CEAC6B6234C7706214FD39C1CD1E609A0528C199300 SLOAD PUSH1 0x1 PUSH1 0x1 PUSH1 0xA0 SHL SUB AND PUSH2 0x360 JUMP JUMPDEST CALLVALUE DUP1 ISZERO PUSH2 0x66F JUMPI PUSH1 0x0 DUP1 REVERT JUMPDEST POP PUSH2 0x360 PUSH2 0x67E CALLDATASIZE PUSH1 0x4 PUSH2 0x3395 JUMP JUMPDEST PUSH2 0x110E JUMP JUMPDEST CALLVALUE DUP1 ISZERO PUSH2 0x68F JUMPI PUSH1 0x0 DUP1 REVERT JUMPDEST POP PUSH2 0x3C2 PUSH2 0x69E CALLDATASIZE PUSH1 0x4 PUSH2 0x3454 JUMP JUMPDEST PUSH2 0x1153 JUMP JUMPDEST CALLVALUE DUP1 ISZERO PUSH2 0x6AF JUMPI PUSH1 0x0 DUP1 REVERT JUMPDEST POP PUSH1 0x9 SLOAD PUSH2 0x3D5 JUMP JUMPDEST CALLVALUE DUP1 ISZERO PUSH2 0x6C4 JUMPI PUSH1 0x0 DUP1 REVERT JUMPDEST POP PUSH2 0x333 PUSH2 0x117D JUMP JUMPDEST CALLVALUE DUP1 ISZERO PUSH2 0x6D9 JUMPI PUSH1 0x0 DUP1 REVERT JUMPDEST POP PUSH2 0x3D5 PUSH1 0x7 SLOAD DUP2 JUMP JUMPDEST CALLVALUE DUP1 ISZERO PUSH2 0x6EF JUMPI PUSH1 0x0 DUP1 REVERT JUMPDEST POP PUSH2 0x3C2 PUSH2 0x6FE CALLDATASIZE PUSH1 0x4 PUSH2 0x32C8 JUMP JUMPDEST PUSH2 0x11BC JUMP JUMPDEST CALLVALUE DUP1 ISZERO PUSH2 0x70F JUMPI PUSH1 0x0 DUP1 REVERT JUMPDEST POP PUSH2 0x333 PUSH2 0x71E CALLDATASIZE PUSH1 0x4 PUSH2 0x3293 JUMP JUMPDEST PUSH2 0x1389 JUMP JUMPDEST CALLVALUE DUP1 ISZERO PUSH2 0x72F JUMPI PUSH1 0x0 DUP1 REVERT JUMPDEST POP PUSH2 0x3C2 PUSH2 0x73E CALLDATASIZE PUSH1 0x4 PUSH2 0x34C3 JUMP JUMPDEST PUSH2 0x1423 JUMP JUMPDEST CALLVALUE DUP1 ISZERO PUSH2 0x74F JUMPI PUSH1 0x0 DUP1 REVERT JUMPDEST POP PUSH2 0x333 PUSH1 0x40 MLOAD DUP1 PUSH1 0x40 ADD PUSH1 0x40 MSTORE DUP1 PUSH1 0x5 DUP2 MSTORE PUSH1 0x20 ADD PUSH5 0x352E302E3 PUSH1 0xDC SHL DUP2 MSTORE POP DUP2 JUMP JUMPDEST CALLVALUE DUP1 ISZERO PUSH2 0x780 JUMPI PUSH1 0x0 DUP1 REVERT JUMPDEST POP PUSH1 0x4 SLOAD PUSH2 0x360 SWAP1 PUSH1 0x1 PUSH1 0x1 PUSH1 0xA0 SHL SUB AND DUP2 JUMP JUMPDEST CALLVALUE DUP1 ISZERO PUSH2 0x7A0 JUMPI PUSH1 0x0 DUP1 REVERT JUMPDEST POP PUSH2 0x3D5 PUSH1 0x5 SLOAD DUP2 JUMP JUMPDEST CALLVALUE DUP1 ISZERO PUSH2 0x7B6 JUMPI PUSH1 0x0 DUP1 REVERT JUMPDEST POP PUSH2 0x3C2 PUSH2 0x7C5 CALLDATASIZE PUSH1 0x4 PUSH2 0x34FA JUMP JUMPDEST PUSH2 0x142E JUMP JUMPDEST CALLVALUE DUP1 ISZERO PUSH2 0x7D6 JUMPI PUSH1 0x0 DUP1 REVERT JUMPDEST POP PUSH2 0x360 PUSH32 0x0 DUP2 JUMP JUMPDEST CALLVALUE DUP1 ISZERO PUSH2 0x80A JUMPI PUSH1 0x0 DUP1 REVERT JUMPDEST POP PUSH2 0x3D5 PUSH1 0x2 SLOAD DUP2 JUMP JUMPDEST CALLVALUE DUP1 ISZERO PUSH2 0x820 JUMPI PUSH1 0x0 DUP1 REVERT JUMPDEST POP PUSH2 0x3C2 PUSH2 0x82F CALLDATASIZE PUSH1 0x4 PUSH2 0x3454 JUMP JUMPDEST PUSH2 0x1445 JUMP JUMPDEST CALLVALUE DUP1 ISZERO PUSH2 0x840 JUMPI PUSH1 0x0 DUP1 REVERT JUMPDEST POP PUSH2 0x333 PUSH2 0x84F CALLDATASIZE PUSH1 0x4 PUSH2 0x3293 JUMP JUMPDEST PUSH2 0x15DB JUMP JUMPDEST CALLVALUE DUP1 ISZERO PUSH2 0x860 JUMPI PUSH1 0x0 DUP1 REVERT JUMPDEST POP PUSH2 0x3D5 PUSH1 0x6 SLOAD DUP2 JUMP JUMPDEST CALLVALUE DUP1 ISZERO PUSH2 0x876 JUMPI PUSH1 0x0 DUP1 REVERT JUMPDEST POP PUSH1 0x4 SLOAD PUSH1 0x1 PUSH1 0x1 PUSH1 0xA0 SHL SUB AND PUSH2 0x360 JUMP JUMPDEST CALLVALUE DUP1 ISZERO PUSH2 0x894 JUMPI PUSH1 0x0 DUP1 REVERT JUMPDEST POP PUSH2 0x3D5 PUSH2 0x8A3 CALLDATASIZE PUSH1 0x4 PUSH2 0x3395 JUMP JUMPDEST DUP1 MLOAD PUSH1 0x20 DUP2 DUP4 ADD DUP2 ADD DUP1 MLOAD PUSH1 0x1 DUP3 MSTORE SWAP3 DUP3 ADD SWAP2 SWAP1 SWAP4 ADD KECCAK256 SWAP2 MSTORE SLOAD DUP2 JUMP JUMPDEST CALLVALUE DUP1 ISZERO PUSH2 0x8CC JUMPI PUSH1 0x0 DUP1 REVERT JUMPDEST POP PUSH1 0x6 SLOAD PUSH2 0x3D5 JUMP JUMPDEST CALLVALUE DUP1 ISZERO PUSH2 0x8E1 JUMPI PUSH1 0x0 DUP1 REVERT JUMPDEST POP PUSH2 0x309 PUSH2 0x8F0 CALLDATASIZE PUSH1 0x4 PUSH2 0x3562 JUMP JUMPDEST PUSH2 0x15E6 JUMP JUMPDEST PUSH2 0x3C2 PUSH2 0x903 CALLDATASIZE PUSH1 0x4 PUSH2 0x3595 JUMP JUMPDEST PUSH2 0x1633 JUMP JUMPDEST CALLVALUE DUP1 ISZERO PUSH2 0x914 JUMPI PUSH1 0x0 DUP1 REVERT JUMPDEST POP PUSH2 0x3C2 PUSH2 0x923 CALLDATASIZE PUSH1 0x4 PUSH2 0x3454 JUMP JUMPDEST PUSH2 0x185B JUMP JUMPDEST PUSH1 0x0 PUSH2 0x933 DUP3 PUSH2 0x1896 JUMP JUMPDEST SWAP3 SWAP2 POP POP JUMP JUMPDEST PUSH1 0x0 DUP1 MLOAD PUSH1 0x20 PUSH2 0x393D DUP4 CODECOPY DUP2 MLOAD SWAP2 MSTORE DUP1 SLOAD PUSH1 0x60 SWAP2 SWAP1 DUP2 SWAP1 PUSH2 0x959 SWAP1 PUSH2 0x3609 JUMP JUMPDEST DUP1 PUSH1 0x1F ADD PUSH1 0x20 DUP1 SWAP2 DIV MUL PUSH1 0x20 ADD PUSH1 0x40 MLOAD SWAP1 DUP2 ADD PUSH1 0x40 MSTORE DUP1 SWAP3 SWAP2 SWAP1 DUP2 DUP2 MSTORE PUSH1 0x20 ADD DUP3 DUP1 SLOAD PUSH2 0x985 SWAP1 PUSH2 0x3609 JUMP JUMPDEST DUP1 ISZERO PUSH2 0x9D2 JUMPI DUP1 PUSH1 0x1F LT PUSH2 0x9A7 JUMPI PUSH2 0x100 DUP1 DUP4 SLOAD DIV MUL DUP4 MSTORE SWAP2 PUSH1 0x20 ADD SWAP2 PUSH2 0x9D2 JUMP JUMPDEST DUP3 ADD SWAP2 SWAP1 PUSH1 0x0 MSTORE PUSH1 0x20 PUSH1 0x0 KECCAK256 SWAP1 JUMPDEST DUP2 SLOAD DUP2 MSTORE SWAP1 PUSH1 0x1 ADD SWAP1 PUSH1 0x20 ADD DUP1 DUP4 GT PUSH2 0x9B5 JUMPI DUP3 SWAP1 SUB PUSH1 0x1F AND DUP3 ADD SWAP2 JUMPDEST POP POP POP POP POP SWAP2 POP POP SWAP1 JUMP JUMPDEST PUSH1 0x0 PUSH2 0x9E8 DUP3 PUSH2 0x18BB JUMP JUMPDEST POP PUSH2 0x933 DUP3 PUSH2 0x18F3 JUMP JUMPDEST PUSH2 0x9FD DUP3 DUP3 CALLER PUSH2 0x192D JUMP JUMPDEST POP POP JUMP JUMPDEST PUSH2 0xA09 PUSH2 0x193A JUMP JUMPDEST PUSH1 0x9 SSTORE JUMP JUMPDEST PUSH1 0x0 PUSH1 0x1 DUP3 PUSH1 0x40 MLOAD PUSH2 0xA20 SWAP2 SWAP1 PUSH2 0x3643 JUMP JUMPDEST SWAP1 DUP2 MSTORE PUSH1 0x20 ADD PUSH1 0x40 MLOAD DUP1 SWAP2 SUB SWAP1 KECCAK256 SLOAD SWAP1 POP SWAP2 SWAP1 POP JUMP JUMPDEST PUSH1 0x1 PUSH1 0x1 PUSH1 0xA0 SHL SUB DUP3 AND PUSH2 0xA65 JUMPI PUSH1 0x40 MLOAD PUSH4 0x32505749 PUSH1 0xE1 SHL DUP2 MSTORE PUSH1 0x0 PUSH1 0x4 DUP3 ADD MSTORE PUSH1 0x24 ADD JUMPDEST PUSH1 0x40 MLOAD DUP1 SWAP2 SUB SWAP1 REVERT JUMPDEST PUSH1 0x0 PUSH2 0xA72 DUP4 DUP4 CALLER PUSH2 0x1995 JUMP JUMPDEST SWAP1 POP DUP4 PUSH1 0x1 PUSH1 0x1 PUSH1 0xA0 SHL SUB AND DUP2 PUSH1 0x1 PUSH1 0x1 PUSH1 0xA0 SHL SUB AND EQ PUSH2 0xAC0 JUMPI PUSH1 0x40 MLOAD PUSH4 0x64283D7B PUSH1 0xE0 SHL DUP2 MSTORE PUSH1 0x1 PUSH1 0x1 PUSH1 0xA0 SHL SUB DUP1 DUP7 AND PUSH1 0x4 DUP4 ADD MSTORE PUSH1 0x24 DUP3 ADD DUP5 SWAP1 MSTORE DUP3 AND PUSH1 0x44 DUP3 ADD MSTORE PUSH1 0x64 ADD PUSH2 0xA5C JUMP JUMPDEST POP POP POP POP JUMP JUMPDEST PUSH2 0xACE PUSH2 0x193A JUMP JUMPDEST PUSH1 0x40 MLOAD PUSH1 0x0 SWAP1 CALLER SWAP1 SELFBALANCE SWAP1 DUP4 DUP2 DUP2 DUP2 DUP6 DUP8 GAS CALL SWAP3 POP POP POP RETURNDATASIZE DUP1 PUSH1 0x0 DUP2 EQ PUSH2 0xB10 JUMPI PUSH1 0x40 MLOAD SWAP2 POP PUSH1 0x1F NOT PUSH1 0x3F RETURNDATASIZE ADD AND DUP3 ADD PUSH1 0x40 MSTORE RETURNDATASIZE DUP3 MSTORE RETURNDATASIZE PUSH1 0x0 PUSH1 0x20 DUP5 ADD RETURNDATACOPY PUSH2 0xB15 JUMP JUMPDEST PUSH1 0x60 SWAP2 POP JUMPDEST POP POP SWAP1 POP DUP1 PUSH2 0xB58 JUMPI PUSH1 0x40 MLOAD PUSH3 0x461BCD PUSH1 0xE5 SHL DUP2 MSTORE PUSH1 0x20 PUSH1 0x4 DUP3 ADD MSTORE PUSH1 0xF PUSH1 0x24 DUP3 ADD MSTORE PUSH15 0x151C985B9CD9995C8811985A5B1959 PUSH1 0x8A SHL PUSH1 0x44 DUP3 ADD MSTORE PUSH1 0x64 ADD PUSH2 0xA5C JUMP JUMPDEST POP JUMP JUMPDEST PUSH2 0xB76 DUP4 DUP4 DUP4 PUSH1 0x40 MLOAD DUP1 PUSH1 0x20 ADD PUSH1 0x40 MSTORE DUP1 PUSH1 0x0 DUP2 MSTORE POP PUSH2 0x142E JUMP JUMPDEST POP POP POP JUMP JUMPDEST PUSH2 0x9FD PUSH1 0x0 DUP3 CALLER PUSH2 0x1995 JUMP JUMPDEST PUSH2 0xB8F PUSH2 0x193A JUMP JUMPDEST PUSH1 0x6 SSTORE JUMP JUMPDEST PUSH2 0xB9C PUSH2 0x1A9F JUMP JUMPDEST PUSH2 0xBA5 DUP3 PUSH2 0x1B44 JUMP JUMPDEST PUSH2 0x9FD DUP3 DUP3 PUSH2 0x1B64 JUMP JUMPDEST PUSH1 0x0 PUSH2 0xBB9 PUSH2 0x1C21 JUMP JUMPDEST POP PUSH1 0x0 DUP1 MLOAD PUSH1 0x20 PUSH2 0x395D DUP4 CODECOPY DUP2 MLOAD SWAP2 MSTORE SWAP1 JUMP JUMPDEST PUSH2 0xBD4 PUSH2 0x193A JUMP JUMPDEST PUSH1 0x4 DUP1 SLOAD PUSH1 0x1 PUSH1 0x1 PUSH1 0xA0 SHL SUB NOT AND PUSH1 0x1 PUSH1 0x1 PUSH1 0xA0 SHL SUB SWAP3 SWAP1 SWAP3 AND SWAP2 SWAP1 SWAP2 OR SWAP1 SSTORE JUMP JUMPDEST PUSH1 0x0 PUSH2 0x933 DUP3 PUSH2 0x18BB JUMP JUMPDEST PUSH2 0xC09 PUSH2 0x1C6A JUMP JUMPDEST PUSH1 0x0 PUSH2 0xC14 DUP7 PUSH2 0xBF6 JUMP JUMPDEST SWAP1 POP PUSH1 0x1 PUSH1 0x1 PUSH1 0xA0 SHL SUB DUP2 AND CALLER SUB PUSH2 0xC64 JUMPI PUSH1 0x40 MLOAD PUSH3 0x461BCD PUSH1 0xE5 SHL DUP2 MSTORE PUSH1 0x20 PUSH1 0x4 DUP3 ADD MSTORE PUSH1 0x13 PUSH1 0x24 DUP3 ADD MSTORE PUSH19 0x21B0B73737BA103830BC903CB7BAB939B2B633 PUSH1 0x69 SHL PUSH1 0x44 DUP3 ADD MSTORE PUSH1 0x64 ADD PUSH2 0xA5C JUMP JUMPDEST PUSH1 0x0 DUP7 DUP2 MSTORE PUSH1 0x20 DUP2 SWAP1 MSTORE PUSH1 0x40 DUP2 KECCAK256 DUP1 SLOAD PUSH2 0xC7D SWAP1 PUSH2 0x3609 JUMP JUMPDEST SWAP1 POP GT PUSH2 0xCC4 JUMPI PUSH1 0x40 MLOAD PUSH3 0x461BCD PUSH1 0xE5 SHL DUP2 MSTORE PUSH1 0x20 PUSH1 0x4 DUP3 ADD MSTORE PUSH1 0x15 PUSH1 0x24 DUP3 ADD MSTORE PUSH21 0x141C9BDA9958DD081D1A5D1B19481B9BDD081CD95D PUSH1 0x5A SHL PUSH1 0x44 DUP3 ADD MSTORE PUSH1 0x64 ADD PUSH2 0xA5C JUMP JUMPDEST PUSH1 0x0 DUP1 PUSH2 0x3E8 PUSH1 0x5 SLOAD DUP8 PUSH2 0xCD8 SWAP2 SWAP1 PUSH2 0x3675 JUMP JUMPDEST PUSH2 0xCE2 SWAP2 SWAP1 PUSH2 0x368C JUMP JUMPDEST PUSH1 0x3 SLOAD SWAP1 SWAP2 POP DUP8 SWAP1 PUSH1 0x1 PUSH1 0x1 PUSH1 0xA0 SHL SUB DUP1 DUP4 AND SWAP2 AND EQ PUSH2 0xE8B JUMPI PUSH2 0xD06 DUP3 DUP9 PUSH2 0x36AE JUMP JUMPDEST SWAP3 POP PUSH1 0x1 PUSH1 0x1 PUSH1 0xA0 SHL SUB DUP9 AND PUSH2 0xDAD JUMPI DUP7 CALLVALUE LT ISZERO PUSH2 0xD66 JUMPI PUSH1 0x40 MLOAD PUSH3 0x461BCD PUSH1 0xE5 SHL DUP2 MSTORE PUSH1 0x20 PUSH1 0x4 DUP3 ADD MSTORE PUSH1 0x1C PUSH1 0x24 DUP3 ADD MSTORE PUSH32 0x496E636F727265637420616D6F756E74206F66204554482073656E7400000000 PUSH1 0x44 DUP3 ADD MSTORE PUSH1 0x64 ADD PUSH2 0xA5C JUMP JUMPDEST PUSH2 0xD70 DUP3 DUP7 PUSH2 0x1CA2 JUMP JUMPDEST POP PUSH1 0x40 MLOAD PUSH1 0x1 PUSH1 0x1 PUSH1 0xA0 SHL SUB DUP6 AND SWAP1 DUP5 ISZERO PUSH2 0x8FC MUL SWAP1 DUP6 SWAP1 PUSH1 0x0 DUP2 DUP2 DUP2 DUP6 DUP9 DUP9 CALL SWAP4 POP POP POP POP ISZERO DUP1 ISZERO PUSH2 0xDA7 JUMPI RETURNDATASIZE PUSH1 0x0 DUP1 RETURNDATACOPY RETURNDATASIZE PUSH1 0x0 REVERT JUMPDEST POP PUSH2 0xF5A JUMP JUMPDEST PUSH1 0x40 MLOAD PUSH4 0x6EB1769F PUSH1 0xE1 SHL DUP2 MSTORE CALLER PUSH1 0x4 DUP3 ADD MSTORE ADDRESS PUSH1 0x24 DUP3 ADD MSTORE DUP8 SWAP1 PUSH1 0x1 PUSH1 0x1 PUSH1 0xA0 SHL SUB DUP4 AND SWAP1 PUSH4 0xDD62ED3E SWAP1 PUSH1 0x44 ADD PUSH1 0x20 PUSH1 0x40 MLOAD DUP1 DUP4 SUB DUP2 DUP7 GAS STATICCALL ISZERO DUP1 ISZERO PUSH2 0xDF9 JUMPI RETURNDATASIZE PUSH1 0x0 DUP1 RETURNDATACOPY RETURNDATASIZE PUSH1 0x0 REVERT JUMPDEST POP POP POP POP PUSH1 0x40 MLOAD RETURNDATASIZE PUSH1 0x1F NOT PUSH1 0x1F DUP3 ADD AND DUP3 ADD DUP1 PUSH1 0x40 MSTORE POP DUP2 ADD SWAP1 PUSH2 0xE1D SWAP2 SWAP1 PUSH2 0x36C1 JUMP JUMPDEST LT ISZERO PUSH2 0xE64 JUMPI PUSH1 0x40 MLOAD PUSH3 0x461BCD PUSH1 0xE5 SHL DUP2 MSTORE PUSH1 0x20 PUSH1 0x4 DUP3 ADD MSTORE PUSH1 0x16 PUSH1 0x24 DUP3 ADD MSTORE PUSH22 0x496E73756666696369656E7420616C6C6F77616E6365 PUSH1 0x50 SHL PUSH1 0x44 DUP3 ADD MSTORE PUSH1 0x64 ADD PUSH2 0xA5C JUMP JUMPDEST PUSH2 0xE70 DUP9 DUP4 DUP9 DUP9 PUSH2 0x1EA8 JUMP JUMPDEST POP PUSH2 0xE86 PUSH1 0x1 PUSH1 0x1 PUSH1 0xA0 SHL SUB DUP3 AND CALLER DUP7 DUP7 PUSH2 0x21F6 JUMP JUMPDEST PUSH2 0xF5A JUMP JUMPDEST PUSH1 0x40 MLOAD PUSH4 0x6EB1769F PUSH1 0xE1 SHL DUP2 MSTORE CALLER PUSH1 0x4 DUP3 ADD MSTORE ADDRESS PUSH1 0x24 DUP3 ADD MSTORE DUP8 SWAP4 POP DUP4 SWAP1 PUSH1 0x1 PUSH1 0x1 PUSH1 0xA0 SHL SUB DUP4 AND SWAP1 PUSH4 0xDD62ED3E SWAP1 PUSH1 0x44 ADD PUSH1 0x20 PUSH1 0x40 MLOAD DUP1 DUP4 SUB DUP2 DUP7 GAS STATICCALL ISZERO DUP1 ISZERO PUSH2 0xEDA JUMPI RETURNDATASIZE PUSH1 0x0 DUP1 RETURNDATACOPY RETURNDATASIZE PUSH1 0x0 REVERT JUMPDEST POP POP POP POP PUSH1 0x40 MLOAD RETURNDATASIZE PUSH1 0x1F NOT PUSH1 0x1F DUP3 ADD AND DUP3 ADD DUP1 PUSH1 0x40 MSTORE POP DUP2 ADD SWAP1 PUSH2 0xEFE SWAP2 SWAP1 PUSH2 0x36C1 JUMP JUMPDEST LT ISZERO PUSH2 0xF45 JUMPI PUSH1 0x40 MLOAD PUSH3 0x461BCD PUSH1 0xE5 SHL DUP2 MSTORE PUSH1 0x20 PUSH1 0x4 DUP3 ADD MSTORE PUSH1 0x16 PUSH1 0x24 DUP3 ADD MSTORE PUSH22 0x496E73756666696369656E7420616C6C6F77616E6365 PUSH1 0x50 SHL PUSH1 0x44 DUP3 ADD MSTORE PUSH1 0x64 ADD PUSH2 0xA5C JUMP JUMPDEST PUSH2 0xF5A PUSH1 0x1 PUSH1 0x1 PUSH1 0xA0 SHL SUB DUP3 AND CALLER DUP7 DUP7 PUSH2 0x21F6 JUMP JUMPDEST PUSH1 0x40 DUP1 MLOAD PUSH1 0x1 PUSH1 0x1 PUSH1 0xA0 SHL SUB DUP11 AND DUP2 MSTORE PUSH1 0x20 DUP2 ADD DUP6 SWAP1 MSTORE TIMESTAMP DUP2 DUP4 ADD MSTORE SWAP1 MLOAD CALLER SWAP2 DUP12 SWAP2 PUSH32 0xDA38851157F2984CC47615155E6DAA02931C36F0ECAA4822D8B631B5B368EB6E SWAP2 DUP2 SWAP1 SUB PUSH1 0x60 ADD SWAP1 LOG3 POP POP POP POP PUSH2 0xFC1 PUSH1 0x1 PUSH1 0x0 DUP1 MLOAD PUSH1 0x20 PUSH2 0x397D DUP4 CODECOPY DUP2 MLOAD SWAP2 MSTORE SSTORE JUMP JUMPDEST POP POP POP POP POP JUMP JUMPDEST PUSH2 0xFD0 PUSH2 0x193A JUMP JUMPDEST PUSH1 0x5 SSTORE JUMP JUMPDEST PUSH1 0x0 PUSH1 0x0 DUP1 MLOAD PUSH1 0x20 PUSH2 0x393D DUP4 CODECOPY DUP2 MLOAD SWAP2 MSTORE PUSH1 0x1 PUSH1 0x1 PUSH1 0xA0 SHL SUB DUP4 AND PUSH2 0x1010 JUMPI PUSH1 0x40 MLOAD PUSH4 0x22718AD9 PUSH1 0xE2 SHL DUP2 MSTORE PUSH1 0x0 PUSH1 0x4 DUP3 ADD MSTORE PUSH1 0x24 ADD PUSH2 0xA5C JUMP JUMPDEST PUSH1 0x1 PUSH1 0x1 PUSH1 0xA0 SHL SUB SWAP1 SWAP3 AND PUSH1 0x0 SWAP1 DUP2 MSTORE PUSH1 0x3 SWAP1 SWAP3 ADD PUSH1 0x20 MSTORE POP PUSH1 0x40 SWAP1 KECCAK256 SLOAD SWAP1 JUMP JUMPDEST PUSH2 0x1039 PUSH2 0x193A JUMP JUMPDEST PUSH2 0x1043 PUSH1 0x0 PUSH2 0x2264 JUMP JUMPDEST JUMP JUMPDEST PUSH1 0x0 PUSH2 0x1050 DUP3 PUSH2 0xBF6 JUMP JUMPDEST SWAP1 POP CALLER PUSH2 0x105C DUP4 PUSH2 0xBF6 JUMP JUMPDEST PUSH1 0x1 PUSH1 0x1 PUSH1 0xA0 SHL SUB AND EQ PUSH2 0x10B2 JUMPI PUSH1 0x40 MLOAD PUSH3 0x461BCD PUSH1 0xE5 SHL DUP2 MSTORE PUSH1 0x20 PUSH1 0x4 DUP3 ADD MSTORE PUSH1 0x17 PUSH1 0x24 DUP3 ADD MSTORE PUSH32 0x43616C6C6572206973206E6F7420746865206F776E6572000000000000000000 PUSH1 0x44 DUP3 ADD MSTORE PUSH1 0x64 ADD PUSH2 0xA5C JUMP JUMPDEST PUSH2 0x10BB DUP3 PUSH2 0x22D5 JUMP JUMPDEST PUSH1 0x0 PUSH1 0x1 PUSH1 0x1 PUSH1 0xA0 SHL SUB AND DUP2 PUSH1 0x1 PUSH1 0x1 PUSH1 0xA0 SHL SUB AND DUP4 PUSH32 0x4EF8C0478B7CB23D7C76BBB226F7898438ECE317E83AF2B79F9A015974EFCC7F TIMESTAMP PUSH1 0x40 MLOAD PUSH2 0x1102 SWAP2 DUP2 MSTORE PUSH1 0x20 ADD SWAP1 JUMP JUMPDEST PUSH1 0x40 MLOAD DUP1 SWAP2 SUB SWAP1 LOG4 POP POP JUMP JUMPDEST PUSH1 0x0 DUP1 PUSH1 0x1 DUP4 PUSH1 0x40 MLOAD PUSH2 0x1121 SWAP2 SWAP1 PUSH2 0x3643 JUMP JUMPDEST SWAP1 DUP2 MSTORE PUSH1 0x20 ADD PUSH1 0x40 MLOAD DUP1 SWAP2 SUB SWAP1 KECCAK256 SLOAD SWAP1 POP DUP1 PUSH1 0x0 EQ PUSH2 0x114A JUMPI PUSH2 0x1143 DUP2 PUSH2 0xBF6 JUMP JUMPDEST SWAP4 SWAP3 POP POP POP JUMP JUMPDEST POP PUSH1 0x0 SWAP3 SWAP2 POP POP JUMP JUMPDEST PUSH2 0x115B PUSH2 0x193A JUMP JUMPDEST PUSH1 0x3 DUP1 SLOAD PUSH1 0x1 PUSH1 0x1 PUSH1 0xA0 SHL SUB NOT AND PUSH1 0x1 PUSH1 0x1 PUSH1 0xA0 SHL SUB SWAP3 SWAP1 SWAP3 AND SWAP2 SWAP1 SWAP2 OR SWAP1 SSTORE JUMP JUMPDEST PUSH32 0x80BB2B638CC20BC4D0A60D66940F3AB4A00C1D7B313497CA82FB0B4AB0079301 DUP1 SLOAD PUSH1 0x60 SWAP2 PUSH1 0x0 DUP1 MLOAD PUSH1 0x20 PUSH2 0x393D DUP4 CODECOPY DUP2 MLOAD SWAP2 MSTORE SWAP2 PUSH2 0x959 SWAP1 PUSH2 0x3609 JUMP JUMPDEST PUSH2 0x11C4 PUSH2 0x193A JUMP JUMPDEST PUSH1 0x1 PUSH1 0x1 PUSH1 0xA0 SHL SUB DUP3 AND PUSH2 0x121A JUMPI PUSH1 0x40 MLOAD PUSH3 0x461BCD PUSH1 0xE5 SHL DUP2 MSTORE PUSH1 0x20 PUSH1 0x4 DUP3 ADD MSTORE PUSH1 0x1C PUSH1 0x24 DUP3 ADD MSTORE PUSH32 0x496E76616C6964204552432D323020746F6B656E206164647265737300000000 PUSH1 0x44 DUP3 ADD MSTORE PUSH1 0x64 ADD PUSH2 0xA5C JUMP JUMPDEST PUSH1 0x40 MLOAD PUSH4 0x70A08231 PUSH1 0xE0 SHL DUP2 MSTORE ADDRESS PUSH1 0x4 DUP3 ADD MSTORE DUP3 SWAP1 DUP3 SWAP1 PUSH1 0x1 PUSH1 0x1 PUSH1 0xA0 SHL SUB DUP4 AND SWAP1 PUSH4 0x70A08231 SWAP1 PUSH1 0x24 ADD PUSH1 0x20 PUSH1 0x40 MLOAD DUP1 DUP4 SUB DUP2 DUP7 GAS STATICCALL ISZERO DUP1 ISZERO PUSH2 0x1262 JUMPI RETURNDATASIZE PUSH1 0x0 DUP1 RETURNDATACOPY RETURNDATASIZE PUSH1 0x0 REVERT JUMPDEST POP POP POP POP PUSH1 0x40 MLOAD RETURNDATASIZE PUSH1 0x1F NOT PUSH1 0x1F DUP3 ADD AND DUP3 ADD DUP1 PUSH1 0x40 MSTORE POP DUP2 ADD SWAP1 PUSH2 0x1286 SWAP2 SWAP1 PUSH2 0x36C1 JUMP JUMPDEST LT ISZERO PUSH2 0x12D4 JUMPI PUSH1 0x40 MLOAD PUSH3 0x461BCD PUSH1 0xE5 SHL DUP2 MSTORE PUSH1 0x20 PUSH1 0x4 DUP3 ADD MSTORE PUSH1 0x1A PUSH1 0x24 DUP3 ADD MSTORE PUSH32 0x496E73756666696369656E7420746F6B656E2062616C616E6365000000000000 PUSH1 0x44 DUP3 ADD MSTORE PUSH1 0x64 ADD PUSH2 0xA5C JUMP JUMPDEST PUSH1 0x40 MLOAD PUSH4 0xA9059CBB PUSH1 0xE0 SHL DUP2 MSTORE CALLER PUSH1 0x4 DUP3 ADD MSTORE PUSH1 0x24 DUP2 ADD DUP4 SWAP1 MSTORE PUSH1 0x1 PUSH1 0x1 PUSH1 0xA0 SHL SUB DUP3 AND SWAP1 PUSH4 0xA9059CBB SWAP1 PUSH1 0x44 ADD PUSH1 0x20 PUSH1 0x40 MLOAD DUP1 DUP4 SUB DUP2 PUSH1 0x0 DUP8 GAS CALL ISZERO DUP1 ISZERO PUSH2 0x1321 JUMPI RETURNDATASIZE PUSH1 0x0 DUP1 RETURNDATACOPY RETURNDATASIZE PUSH1 0x0 REVERT JUMPDEST POP POP POP POP PUSH1 0x40 MLOAD RETURNDATASIZE PUSH1 0x1F NOT PUSH1 0x1F DUP3 ADD AND DUP3 ADD DUP1 PUSH1 0x40 MSTORE POP DUP2 ADD SWAP1 PUSH2 0x1345 SWAP2 SWAP1 PUSH2 0x36DA JUMP JUMPDEST PUSH2 0xB76 JUMPI PUSH1 0x40 MLOAD PUSH3 0x461BCD PUSH1 0xE5 SHL DUP2 MSTORE PUSH1 0x20 PUSH1 0x4 DUP3 ADD MSTORE PUSH1 0x15 PUSH1 0x24 DUP3 ADD MSTORE PUSH21 0x151BDAD95B881D1C985B9CD9995C8819985A5B1959 PUSH1 0x5A SHL PUSH1 0x44 DUP3 ADD MSTORE PUSH1 0x64 ADD PUSH2 0xA5C JUMP JUMPDEST PUSH1 0x0 PUSH1 0x20 DUP2 SWAP1 MSTORE SWAP1 DUP2 MSTORE PUSH1 0x40 SWAP1 KECCAK256 DUP1 SLOAD PUSH2 0x13A2 SWAP1 PUSH2 0x3609 JUMP JUMPDEST DUP1 PUSH1 0x1F ADD PUSH1 0x20 DUP1 SWAP2 DIV MUL PUSH1 0x20 ADD PUSH1 0x40 MLOAD SWAP1 DUP2 ADD PUSH1 0x40 MSTORE DUP1 SWAP3 SWAP2 SWAP1 DUP2 DUP2 MSTORE PUSH1 0x20 ADD DUP3 DUP1 SLOAD PUSH2 0x13CE SWAP1 PUSH2 0x3609 JUMP JUMPDEST DUP1 ISZERO PUSH2 0x141B JUMPI DUP1 PUSH1 0x1F LT PUSH2 0x13F0 JUMPI PUSH2 0x100 DUP1 DUP4 SLOAD DIV MUL DUP4 MSTORE SWAP2 PUSH1 0x20 ADD SWAP2 PUSH2 0x141B JUMP JUMPDEST DUP3 ADD SWAP2 SWAP1 PUSH1 0x0 MSTORE PUSH1 0x20 PUSH1 0x0 KECCAK256 SWAP1 JUMPDEST DUP2 SLOAD DUP2 MSTORE SWAP1 PUSH1 0x1 ADD SWAP1 PUSH1 0x20 ADD DUP1 DUP4 GT PUSH2 0x13FE JUMPI DUP3 SWAP1 SUB PUSH1 0x1F AND DUP3 ADD SWAP2 JUMPDEST POP POP POP POP POP DUP2 JUMP JUMPDEST PUSH2 0x9FD CALLER DUP4 DUP4 PUSH2 0x2310 JUMP JUMPDEST PUSH2 0x1439 DUP5 DUP5 DUP5 PUSH2 0xA36 JUMP JUMPDEST PUSH2 0xAC0 DUP5 DUP5 DUP5 DUP5 PUSH2 0x23C1 JUMP JUMPDEST PUSH32 0xF0C57E16840DF040F15088DC2F81FE391C3923BEC73E23A9662EFC9C229C6A00 DUP1 SLOAD PUSH1 0x1 PUSH1 0x40 SHL DUP2 DIV PUSH1 0xFF AND ISZERO SWAP1 PUSH8 0xFFFFFFFFFFFFFFFF AND PUSH1 0x0 DUP2 ISZERO DUP1 ISZERO PUSH2 0x148B JUMPI POP DUP3 JUMPDEST SWAP1 POP PUSH1 0x0 DUP3 PUSH8 0xFFFFFFFFFFFFFFFF AND PUSH1 0x1 EQ DUP1 ISZERO PUSH2 0x14A8 JUMPI POP ADDRESS EXTCODESIZE ISZERO JUMPDEST SWAP1 POP DUP2 ISZERO DUP1 ISZERO PUSH2 0x14B6 JUMPI POP DUP1 ISZERO JUMPDEST ISZERO PUSH2 0x14D4 JUMPI PUSH1 0x40 MLOAD PUSH4 0xF92EE8A9 PUSH1 0xE0 SHL DUP2 MSTORE PUSH1 0x4 ADD PUSH1 0x40 MLOAD DUP1 SWAP2 SUB SWAP1 REVERT JUMPDEST DUP5 SLOAD PUSH8 0xFFFFFFFFFFFFFFFF NOT AND PUSH1 0x1 OR DUP6 SSTORE DUP4 ISZERO PUSH2 0x14FE JUMPI DUP5 SLOAD PUSH1 0xFF PUSH1 0x40 SHL NOT AND PUSH1 0x1 PUSH1 0x40 SHL OR DUP6 SSTORE JUMPDEST PUSH2 0x1550 PUSH1 0x40 MLOAD DUP1 PUSH1 0x40 ADD PUSH1 0x40 MSTORE DUP1 PUSH1 0xF DUP2 MSTORE PUSH1 0x20 ADD PUSH15 0x48756D626C65446F6E6174696F6E73 PUSH1 0x88 SHL DUP2 MSTORE POP PUSH1 0x40 MLOAD DUP1 PUSH1 0x40 ADD PUSH1 0x40 MSTORE DUP1 PUSH1 0x9 DUP2 MSTORE PUSH1 0x20 ADD PUSH9 0x12111C1C9BDA9958DD PUSH1 0xBA SHL DUP2 MSTORE POP PUSH2 0x24E3 JUMP JUMPDEST PUSH2 0x1558 PUSH2 0x24F5 JUMP JUMPDEST PUSH2 0x1560 PUSH2 0x24F5 JUMP JUMPDEST PUSH2 0x1569 DUP7 PUSH2 0x24FD JUMP JUMPDEST PUSH2 0x1571 PUSH2 0x24F5 JUMP JUMPDEST PUSH2 0x1579 PUSH2 0x250E JUMP JUMPDEST PUSH1 0xF PUSH1 0x5 SSTORE PUSH6 0x5AF3107A4000 PUSH1 0x6 SSTORE PUSH1 0x0 PUSH1 0x2 SSTORE DUP4 ISZERO PUSH2 0x15D3 JUMPI DUP5 SLOAD PUSH1 0xFF PUSH1 0x40 SHL NOT AND DUP6 SSTORE PUSH1 0x40 MLOAD PUSH1 0x1 DUP2 MSTORE PUSH32 0xC7F505B2F371AE2175EE4913F4499E1F2633A7B5936321EED1CDAEB6115181D2 SWAP1 PUSH1 0x20 ADD PUSH1 0x40 MLOAD DUP1 SWAP2 SUB SWAP1 LOG1 JUMPDEST POP POP POP POP POP POP JUMP JUMPDEST PUSH1 0x60 PUSH2 0x933 DUP3 PUSH2 0x251E JUMP JUMPDEST PUSH1 0x1 PUSH1 0x1 PUSH1 0xA0 SHL SUB SWAP2 DUP3 AND PUSH1 0x0 SWAP1 DUP2 MSTORE PUSH32 0x80BB2B638CC20BC4D0A60D66940F3AB4A00C1D7B313497CA82FB0B4AB0079305 PUSH1 0x20 SWAP1 DUP2 MSTORE PUSH1 0x40 DUP1 DUP4 KECCAK256 SWAP4 SWAP1 SWAP5 AND DUP3 MSTORE SWAP2 SWAP1 SWAP2 MSTORE KECCAK256 SLOAD PUSH1 0xFF AND SWAP1 JUMP JUMPDEST PUSH2 0x163B PUSH2 0x1C6A JUMP JUMPDEST PUSH1 0x6 SLOAD PUSH1 0x7 SLOAD PUSH2 0x164B SWAP2 SWAP1 PUSH2 0x36F7 JUMP JUMPDEST CALLVALUE LT ISZERO PUSH2 0x1690 JUMPI PUSH1 0x40 MLOAD PUSH3 0x461BCD PUSH1 0xE5 SHL DUP2 MSTORE PUSH1 0x20 PUSH1 0x4 DUP3 ADD MSTORE PUSH1 0x13 PUSH1 0x24 DUP3 ADD MSTORE PUSH19 0x139BDD08195B9BDD59DA08115512081CD95B9D PUSH1 0x6A SHL PUSH1 0x44 DUP3 ADD MSTORE PUSH1 0x64 ADD PUSH2 0xA5C JUMP JUMPDEST PUSH2 0x1699 DUP4 PUSH2 0xFD5 JUMP JUMPDEST ISZERO PUSH2 0x16E6 JUMPI PUSH1 0x40 MLOAD PUSH3 0x461BCD PUSH1 0xE5 SHL DUP2 MSTORE PUSH1 0x20 PUSH1 0x4 DUP3 ADD MSTORE PUSH1 0x1C PUSH1 0x24 DUP3 ADD MSTORE PUSH32 0x4164647265737320616C7265616479206F776E73206120746F6B656E00000000 PUSH1 0x44 DUP3 ADD MSTORE PUSH1 0x64 ADD PUSH2 0xA5C JUMP JUMPDEST PUSH1 0x1 DUP2 PUSH1 0x40 MLOAD PUSH2 0x16F6 SWAP2 SWAP1 PUSH2 0x3643 JUMP JUMPDEST SWAP1 DUP2 MSTORE PUSH1 0x20 ADD PUSH1 0x40 MLOAD DUP1 SWAP2 SUB SWAP1 KECCAK256 SLOAD PUSH1 0x0 EQ PUSH2 0x1754 JUMPI PUSH1 0x40 MLOAD PUSH3 0x461BCD PUSH1 0xE5 SHL DUP2 MSTORE PUSH1 0x20 PUSH1 0x4 DUP3 ADD MSTORE PUSH1 0x1C PUSH1 0x24 DUP3 ADD MSTORE PUSH32 0x50726F6A656374207469746C6520616C72656164792065786973747300000000 PUSH1 0x44 DUP3 ADD MSTORE PUSH1 0x64 ADD PUSH2 0xA5C JUMP JUMPDEST PUSH1 0x8 DUP1 SLOAD SWAP1 DUP2 SWAP1 PUSH1 0x0 PUSH2 0x1766 DUP4 PUSH2 0x370A JUMP JUMPDEST SWAP2 SWAP1 POP SSTORE POP PUSH2 0x1775 DUP5 DUP3 PUSH2 0x2653 JUMP JUMPDEST PUSH2 0x177F DUP2 DUP5 PUSH2 0x266D JUMP JUMPDEST PUSH1 0x0 DUP2 DUP2 MSTORE PUSH1 0x20 DUP2 SWAP1 MSTORE PUSH1 0x40 SWAP1 KECCAK256 PUSH2 0x1797 DUP4 DUP3 PUSH2 0x3769 JUMP JUMPDEST POP DUP1 PUSH1 0x1 DUP4 PUSH1 0x40 MLOAD PUSH2 0x17A9 SWAP2 SWAP1 PUSH2 0x3643 JUMP JUMPDEST SWAP1 DUP2 MSTORE PUSH1 0x40 MLOAD SWAP1 DUP2 SWAP1 SUB PUSH1 0x20 ADD DUP2 KECCAK256 SWAP2 SWAP1 SWAP2 SSTORE PUSH1 0x6 SLOAD PUSH20 0x88B944E7E3D495B88CAA62FB0158F697C9A1561D SWAP2 DUP2 ISZERO PUSH2 0x8FC MUL SWAP2 SWAP1 PUSH1 0x0 DUP2 DUP2 DUP2 DUP6 DUP9 DUP9 CALL SWAP4 POP POP POP POP ISZERO DUP1 ISZERO PUSH2 0x17FC JUMPI RETURNDATASIZE PUSH1 0x0 DUP1 RETURNDATACOPY RETURNDATASIZE PUSH1 0x0 REVERT JUMPDEST POP DUP4 PUSH1 0x1 PUSH1 0x1 PUSH1 0xA0 SHL SUB AND DUP2 PUSH32 0x3C3FBB6A154E75FBEF89D966D453C10B2ECC4DBA66A0B8A755D720FAE33A8FDA DUP5 DUP7 TIMESTAMP PUSH1 0x40 MLOAD PUSH2 0x183B SWAP4 SWAP3 SWAP2 SWAP1 PUSH2 0x3829 JUMP JUMPDEST PUSH1 0x40 MLOAD DUP1 SWAP2 SUB SWAP1 LOG3 POP PUSH2 0xB76 PUSH1 0x1 PUSH1 0x0 DUP1 MLOAD PUSH1 0x20 PUSH2 0x397D DUP4 CODECOPY DUP2 MLOAD SWAP2 MSTORE SSTORE JUMP JUMPDEST PUSH2 0x1863 PUSH2 0x193A JUMP JUMPDEST PUSH1 0x1 PUSH1 0x1 PUSH1 0xA0 SHL SUB DUP2 AND PUSH2 0x188D JUMPI PUSH1 0x40 MLOAD PUSH4 0x1E4FBDF7 PUSH1 0xE0 SHL DUP2 MSTORE PUSH1 0x0 PUSH1 0x4 DUP3 ADD MSTORE PUSH1 0x24 ADD PUSH2 0xA5C JUMP JUMPDEST PUSH2 0xB58 DUP2 PUSH2 0x2264 JUMP JUMPDEST PUSH1 0x0 PUSH1 0x1 PUSH1 0x1 PUSH1 0xE0 SHL SUB NOT DUP3 AND PUSH4 0x24832483 PUSH1 0xE1 SHL EQ DUP1 PUSH2 0x933 JUMPI POP PUSH2 0x933 DUP3 PUSH2 0x26E0 JUMP JUMPDEST PUSH1 0x0 DUP1 PUSH2 0x18C7 DUP4 PUSH2 0x2730 JUMP JUMPDEST SWAP1 POP PUSH1 0x1 PUSH1 0x1 PUSH1 0xA0 SHL SUB DUP2 AND PUSH2 0x933 JUMPI PUSH1 0x40 MLOAD PUSH4 0x7E273289 PUSH1 0xE0 SHL DUP2 MSTORE PUSH1 0x4 DUP2 ADD DUP5 SWAP1 MSTORE PUSH1 0x24 ADD PUSH2 0xA5C JUMP JUMPDEST PUSH1 0x0 SWAP1 DUP2 MSTORE PUSH32 0x80BB2B638CC20BC4D0A60D66940F3AB4A00C1D7B313497CA82FB0B4AB0079304 PUSH1 0x20 MSTORE PUSH1 0x40 SWAP1 KECCAK256 SLOAD PUSH1 0x1 PUSH1 0x1 PUSH1 0xA0 SHL SUB AND SWAP1 JUMP JUMPDEST PUSH2 0xB76 DUP4 DUP4 DUP4 PUSH1 0x1 PUSH2 0x276A JUMP JUMPDEST CALLER PUSH2 0x196C PUSH32 0x9016D09D72D40FDAE2FD8CEAC6B6234C7706214FD39C1CD1E609A0528C199300 SLOAD PUSH1 0x1 PUSH1 0x1 PUSH1 0xA0 SHL SUB AND SWAP1 JUMP JUMPDEST PUSH1 0x1 PUSH1 0x1 PUSH1 0xA0 SHL SUB AND EQ PUSH2 0x1043 JUMPI PUSH1 0x40 MLOAD PUSH4 0x118CDAA7 PUSH1 0xE0 SHL DUP2 MSTORE CALLER PUSH1 0x4 DUP3 ADD MSTORE PUSH1 0x24 ADD PUSH2 0xA5C JUMP JUMPDEST PUSH1 0x0 PUSH1 0x0 DUP1 MLOAD PUSH1 0x20 PUSH2 0x393D DUP4 CODECOPY DUP2 MLOAD SWAP2 MSTORE DUP2 PUSH2 0x19B0 DUP6 PUSH2 0x2730 JUMP JUMPDEST SWAP1 POP PUSH1 0x1 PUSH1 0x1 PUSH1 0xA0 SHL SUB DUP5 AND ISZERO PUSH2 0x19CC JUMPI PUSH2 0x19CC DUP2 DUP6 DUP8 PUSH2 0x2880 JUMP JUMPDEST PUSH1 0x1 PUSH1 0x1 PUSH1 0xA0 SHL SUB DUP2 AND ISZERO PUSH2 0x1A0C JUMPI PUSH2 0x19E9 PUSH1 0x0 DUP7 PUSH1 0x0 DUP1 PUSH2 0x276A JUMP JUMPDEST PUSH1 0x1 PUSH1 0x1 PUSH1 0xA0 SHL SUB DUP2 AND PUSH1 0x0 SWAP1 DUP2 MSTORE PUSH1 0x3 DUP4 ADD PUSH1 0x20 MSTORE PUSH1 0x40 SWAP1 KECCAK256 DUP1 SLOAD PUSH1 0x0 NOT ADD SWAP1 SSTORE JUMPDEST PUSH1 0x1 PUSH1 0x1 PUSH1 0xA0 SHL SUB DUP7 AND ISZERO PUSH2 0x1A3D JUMPI PUSH1 0x1 PUSH1 0x1 PUSH1 0xA0 SHL SUB DUP7 AND PUSH1 0x0 SWAP1 DUP2 MSTORE PUSH1 0x3 DUP4 ADD PUSH1 0x20 MSTORE PUSH1 0x40 SWAP1 KECCAK256 DUP1 SLOAD PUSH1 0x1 ADD SWAP1 SSTORE JUMPDEST PUSH1 0x0 DUP6 DUP2 MSTORE PUSH1 0x2 DUP4 ADD PUSH1 0x20 MSTORE PUSH1 0x40 DUP1 DUP3 KECCAK256 DUP1 SLOAD PUSH1 0x1 PUSH1 0x1 PUSH1 0xA0 SHL SUB NOT AND PUSH1 0x1 PUSH1 0x1 PUSH1 0xA0 SHL SUB DUP11 DUP2 AND SWAP2 DUP3 OR SWAP1 SWAP3 SSTORE SWAP2 MLOAD DUP9 SWAP4 SWAP2 DUP6 AND SWAP2 PUSH32 0xDDF252AD1BE2C89B69C2B068FC378DAA952BA7F163C4A11628F55A4DF523B3EF SWAP2 LOG4 SWAP6 SWAP5 POP POP POP POP POP JUMP JUMPDEST ADDRESS PUSH1 0x1 PUSH1 0x1 PUSH1 0xA0 SHL SUB PUSH32 0x0 AND EQ DUP1 PUSH2 0x1B26 JUMPI POP PUSH32 0x0 PUSH1 0x1 PUSH1 0x1 PUSH1 0xA0 SHL SUB AND PUSH2 0x1B1A PUSH1 0x0 DUP1 MLOAD PUSH1 0x20 PUSH2 0x395D DUP4 CODECOPY DUP2 MLOAD SWAP2 MSTORE SLOAD PUSH1 0x1 PUSH1 0x1 PUSH1 0xA0 SHL SUB AND SWAP1 JUMP JUMPDEST PUSH1 0x1 PUSH1 0x1 PUSH1 0xA0 SHL SUB AND EQ ISZERO JUMPDEST ISZERO PUSH2 0x1043 JUMPI PUSH1 0x40 MLOAD PUSH4 0x703E46DD PUSH1 0xE1 SHL DUP2 MSTORE PUSH1 0x4 ADD PUSH1 0x40 MLOAD DUP1 SWAP2 SUB SWAP1 REVERT JUMPDEST PUSH2 0x1B4C PUSH2 0x193A JUMP JUMPDEST PUSH1 0x2 DUP1 SLOAD SWAP1 PUSH1 0x0 PUSH2 0x1B5C DUP4 PUSH2 0x370A JUMP JUMPDEST SWAP2 SWAP1 POP SSTORE POP POP JUMP JUMPDEST DUP2 PUSH1 0x1 PUSH1 0x1 PUSH1 0xA0 SHL SUB AND PUSH4 0x52D1902D PUSH1 0x40 MLOAD DUP2 PUSH4 0xFFFFFFFF AND PUSH1 0xE0 SHL DUP2 MSTORE PUSH1 0x4 ADD PUSH1 0x20 PUSH1 0x40 MLOAD DUP1 DUP4 SUB DUP2 DUP7 GAS STATICCALL SWAP3 POP POP POP DUP1 ISZERO PUSH2 0x1BBE JUMPI POP PUSH1 0x40 DUP1 MLOAD PUSH1 0x1F RETURNDATASIZE SWAP1 DUP2 ADD PUSH1 0x1F NOT AND DUP3 ADD SWAP1 SWAP3 MSTORE PUSH2 0x1BBB SWAP2 DUP2 ADD SWAP1 PUSH2 0x36C1 JUMP JUMPDEST PUSH1 0x1 JUMPDEST PUSH2 0x1BE6 JUMPI PUSH1 0x40 MLOAD PUSH4 0x4C9C8CE3 PUSH1 0xE0 SHL DUP2 MSTORE PUSH1 0x1 PUSH1 0x1 PUSH1 0xA0 SHL SUB DUP4 AND PUSH1 0x4 DUP3 ADD MSTORE PUSH1 0x24 ADD PUSH2 0xA5C JUMP JUMPDEST PUSH1 0x0 DUP1 MLOAD PUSH1 0x20 PUSH2 0x395D DUP4 CODECOPY DUP2 MLOAD SWAP2 MSTORE DUP2 EQ PUSH2 0x1C17 JUMPI PUSH1 0x40 MLOAD PUSH4 0x2A875269 PUSH1 0xE2 SHL DUP2 MSTORE PUSH1 0x4 DUP2 ADD DUP3 SWAP1 MSTORE PUSH1 0x24 ADD PUSH2 0xA5C JUMP JUMPDEST PUSH2 0xB76 DUP4 DUP4 PUSH2 0x28E4 JUMP JUMPDEST ADDRESS PUSH1 0x1 PUSH1 0x1 PUSH1 0xA0 SHL SUB PUSH32 0x0 AND EQ PUSH2 0x1043 JUMPI PUSH1 0x40 MLOAD PUSH4 0x703E46DD PUSH1 0xE1 SHL DUP2 MSTORE PUSH1 0x4 ADD PUSH1 0x40 MLOAD DUP1 SWAP2 SUB SWAP1 REVERT JUMPDEST PUSH1 0x0 DUP1 MLOAD PUSH1 0x20 PUSH2 0x397D DUP4 CODECOPY DUP2 MLOAD SWAP2 MSTORE DUP1 SLOAD PUSH1 0x1 NOT ADD PUSH2 0x1C9C JUMPI PUSH1 0x40 MLOAD PUSH4 0x3EE5AEB5 PUSH1 0xE0 SHL DUP2 MSTORE PUSH1 0x4 ADD PUSH1 0x40 MLOAD DUP1 SWAP2 SUB SWAP1 REVERT JUMPDEST PUSH1 0x2 SWAP1 SSTORE JUMP JUMPDEST PUSH1 0x0 DUP1 DUP1 PUSH1 0x4 PUSH2 0x1CB3 DUP7 PUSH1 0x3 PUSH2 0x3675 JUMP JUMPDEST PUSH2 0x1CBD SWAP2 SWAP1 PUSH2 0x368C JUMP JUMPDEST SWAP1 POP PUSH1 0x4 PUSH1 0x0 SWAP1 SLOAD SWAP1 PUSH2 0x100 EXP SWAP1 DIV PUSH1 0x1 PUSH1 0x1 PUSH1 0xA0 SHL SUB AND PUSH1 0x1 PUSH1 0x1 PUSH1 0xA0 SHL SUB AND PUSH4 0xD0E30DB0 DUP3 PUSH1 0x40 MLOAD DUP3 PUSH4 0xFFFFFFFF AND PUSH1 0xE0 SHL DUP2 MSTORE PUSH1 0x4 ADD PUSH1 0x0 PUSH1 0x40 MLOAD DUP1 DUP4 SUB DUP2 DUP6 DUP9 DUP1 EXTCODESIZE ISZERO DUP1 ISZERO PUSH2 0x1D0F JUMPI PUSH1 0x0 DUP1 REVERT JUMPDEST POP GAS CALL ISZERO DUP1 ISZERO PUSH2 0x1D23 JUMPI RETURNDATASIZE PUSH1 0x0 DUP1 RETURNDATACOPY RETURNDATASIZE PUSH1 0x0 REVERT JUMPDEST POP POP POP POP POP PUSH1 0x0 PUSH1 0x2 DUP7 PUSH2 0x1D37 SWAP2 SWAP1 PUSH2 0x368C JUMP JUMPDEST SWAP1 POP PUSH1 0x0 PUSH2 0x1D46 PUSH1 0x4 DUP9 PUSH2 0x368C JUMP JUMPDEST PUSH1 0x4 SLOAD SWAP1 SWAP2 POP PUSH2 0x1D74 SWAP1 PUSH1 0x1 PUSH1 0x1 PUSH1 0xA0 SHL SUB AND PUSH20 0x88B944E7E3D495B88CAA62FB0158F697C9A1561D DUP5 PUSH2 0x293A JUMP JUMPDEST PUSH1 0x4 SLOAD PUSH2 0x1D9F SWAP1 PUSH1 0x1 PUSH1 0x1 PUSH1 0xA0 SHL SUB AND PUSH20 0xFDA30F9D6A3864F092586CF755FC8FCDAF8BB5AE DUP4 PUSH2 0x293A JUMP JUMPDEST PUSH1 0x40 DUP1 MLOAD PUSH1 0xE0 DUP2 ADD DUP3 MSTORE PUSH1 0x4 DUP1 SLOAD PUSH1 0x1 PUSH1 0x1 PUSH1 0xA0 SHL SUB SWAP1 DUP2 AND DUP4 MSTORE PUSH1 0x3 SLOAD DUP2 AND PUSH1 0x20 DUP5 ADD MSTORE PUSH2 0xBB8 DUP4 DUP6 ADD MSTORE ADDRESS PUSH1 0x60 DUP5 ADD MSTORE PUSH1 0x80 DUP4 ADD DUP6 SWAP1 MSTORE PUSH1 0xA0 DUP4 ADD DUP11 SWAP1 MSTORE DUP8 DUP2 AND PUSH1 0xC0 DUP5 ADD MSTORE SWAP3 MLOAD PUSH4 0x4E45AAF PUSH1 0xE0 SHL DUP2 MSTORE SWAP2 SWAP3 PUSH32 0x0 AND SWAP2 PUSH4 0x4E45AAF SWAP2 DUP6 SWAP2 PUSH2 0x1E2C SWAP2 DUP7 SWAP2 ADD PUSH2 0x385F JUMP JUMPDEST PUSH1 0x20 PUSH1 0x40 MLOAD DUP1 DUP4 SUB DUP2 DUP6 DUP9 GAS CALL ISZERO DUP1 ISZERO PUSH2 0x1E4A JUMPI RETURNDATASIZE PUSH1 0x0 DUP1 RETURNDATACOPY RETURNDATASIZE PUSH1 0x0 REVERT JUMPDEST POP POP POP POP POP PUSH1 0x40 MLOAD RETURNDATASIZE PUSH1 0x1F NOT PUSH1 0x1F DUP3 ADD AND DUP3 ADD DUP1 PUSH1 0x40 MSTORE POP DUP2 ADD SWAP1 PUSH2 0x1E6F SWAP2 SWAP1 PUSH2 0x36C1 JUMP JUMPDEST PUSH1 0x3 SLOAD SWAP1 SWAP7 POP PUSH2 0x1E9D SWAP1 PUSH1 0x1 PUSH1 0x1 PUSH1 0xA0 SHL SUB AND PUSH20 0xFDA30F9D6A3864F092586CF755FC8FCDAF8BB5AE DUP9 PUSH2 0x293A JUMP JUMPDEST POP POP POP POP POP SWAP3 SWAP2 POP POP JUMP JUMPDEST PUSH1 0x0 PUSH2 0x1EB6 DUP6 CALLER ADDRESS DUP8 PUSH2 0x2A33 JUMP JUMPDEST PUSH2 0x1EE1 DUP6 PUSH32 0x0 DUP7 PUSH2 0x2B35 JUMP JUMPDEST PUSH1 0x4 SLOAD PUSH1 0x0 SWAP1 DUP2 SWAP1 PUSH1 0x1 PUSH1 0x1 PUSH1 0xA0 SHL SUB SWAP1 DUP2 AND SWAP1 DUP9 AND SUB PUSH2 0x1F72 JUMPI PUSH2 0x1F07 PUSH1 0x2 DUP8 PUSH2 0x368C JUMP JUMPDEST SWAP2 POP PUSH2 0x1F14 PUSH1 0x4 DUP8 PUSH2 0x368C JUMP JUMPDEST PUSH1 0x4 SLOAD SWAP1 SWAP2 POP PUSH2 0x1F42 SWAP1 PUSH1 0x1 PUSH1 0x1 PUSH1 0xA0 SHL SUB AND PUSH20 0x88B944E7E3D495B88CAA62FB0158F697C9A1561D DUP5 PUSH2 0x293A JUMP JUMPDEST PUSH1 0x4 SLOAD PUSH2 0x1F6D SWAP1 PUSH1 0x1 PUSH1 0x1 PUSH1 0xA0 SHL SUB AND PUSH20 0xFDA30F9D6A3864F092586CF755FC8FCDAF8BB5AE DUP4 PUSH2 0x293A JUMP JUMPDEST PUSH2 0x20B3 JUMP JUMPDEST PUSH1 0x40 DUP1 MLOAD PUSH1 0xE0 DUP2 ADD DUP3 MSTORE PUSH1 0x1 PUSH1 0x1 PUSH1 0xA0 SHL SUB DUP1 DUP11 AND DUP3 MSTORE PUSH1 0x4 DUP1 SLOAD DUP3 AND PUSH1 0x20 DUP5 ADD MSTORE PUSH2 0xBB8 DUP4 DUP6 ADD MSTORE ADDRESS PUSH1 0x60 DUP5 ADD MSTORE PUSH1 0x80 DUP4 ADD DUP11 SWAP1 MSTORE PUSH1 0xA0 DUP4 ADD DUP10 SWAP1 MSTORE PUSH1 0x0 PUSH1 0xC0 DUP5 ADD MSTORE SWAP3 MLOAD PUSH4 0x4E45AAF PUSH1 0xE0 SHL DUP2 MSTORE SWAP2 SWAP3 PUSH32 0x0 SWAP1 SWAP2 AND SWAP2 PUSH4 0x4E45AAF SWAP2 PUSH2 0x1FFB SWAP2 DUP6 SWAP2 ADD PUSH2 0x385F JUMP JUMPDEST PUSH1 0x20 PUSH1 0x40 MLOAD DUP1 DUP4 SUB DUP2 PUSH1 0x0 DUP8 GAS CALL ISZERO DUP1 ISZERO PUSH2 0x201A JUMPI RETURNDATASIZE PUSH1 0x0 DUP1 RETURNDATACOPY RETURNDATASIZE PUSH1 0x0 REVERT JUMPDEST POP POP POP POP PUSH1 0x40 MLOAD RETURNDATASIZE PUSH1 0x1F NOT PUSH1 0x1F DUP3 ADD AND DUP3 ADD DUP1 PUSH1 0x40 MSTORE POP DUP2 ADD SWAP1 PUSH2 0x203E SWAP2 SWAP1 PUSH2 0x36C1 JUMP JUMPDEST SWAP4 POP PUSH2 0x204B PUSH1 0x2 DUP6 PUSH2 0x368C JUMP JUMPDEST SWAP3 POP PUSH2 0x2058 PUSH1 0x4 DUP6 PUSH2 0x368C JUMP JUMPDEST PUSH1 0x4 SLOAD SWAP1 SWAP3 POP PUSH2 0x2086 SWAP1 PUSH1 0x1 PUSH1 0x1 PUSH1 0xA0 SHL SUB AND PUSH20 0x88B944E7E3D495B88CAA62FB0158F697C9A1561D DUP6 PUSH2 0x293A JUMP JUMPDEST PUSH1 0x4 SLOAD PUSH2 0x20B1 SWAP1 PUSH1 0x1 PUSH1 0x1 PUSH1 0xA0 SHL SUB AND PUSH20 0xFDA30F9D6A3864F092586CF755FC8FCDAF8BB5AE DUP5 PUSH2 0x293A JUMP JUMPDEST POP JUMPDEST PUSH1 0x4 SLOAD PUSH2 0x20EA SWAP1 PUSH1 0x1 PUSH1 0x1 PUSH1 0xA0 SHL SUB AND PUSH32 0x0 DUP4 PUSH2 0x2B35 JUMP JUMPDEST PUSH1 0x40 DUP1 MLOAD PUSH1 0xE0 DUP2 ADD DUP3 MSTORE PUSH1 0x4 DUP1 SLOAD PUSH1 0x1 PUSH1 0x1 PUSH1 0xA0 SHL SUB SWAP1 DUP2 AND DUP4 MSTORE PUSH1 0x3 SLOAD DUP2 AND PUSH1 0x20 DUP5 ADD MSTORE PUSH2 0xBB8 DUP4 DUP6 ADD MSTORE ADDRESS PUSH1 0x60 DUP5 ADD MSTORE PUSH1 0x80 DUP4 ADD DUP6 SWAP1 MSTORE PUSH1 0xA0 DUP4 ADD DUP9 SWAP1 MSTORE PUSH1 0x0 PUSH1 0xC0 DUP5 ADD DUP2 SWAP1 MSTORE SWAP4 MLOAD PUSH4 0x4E45AAF PUSH1 0xE0 SHL DUP2 MSTORE SWAP3 SWAP4 SWAP3 PUSH32 0x0 SWAP1 SWAP2 AND SWAP2 PUSH4 0x4E45AAF SWAP2 PUSH2 0x2179 SWAP2 DUP7 SWAP2 ADD PUSH2 0x385F JUMP JUMPDEST PUSH1 0x20 PUSH1 0x40 MLOAD DUP1 DUP4 SUB DUP2 PUSH1 0x0 DUP8 GAS CALL ISZERO DUP1 ISZERO PUSH2 0x2198 JUMPI RETURNDATASIZE PUSH1 0x0 DUP1 RETURNDATACOPY RETURNDATASIZE PUSH1 0x0 REVERT JUMPDEST POP POP POP POP PUSH1 0x40 MLOAD RETURNDATASIZE PUSH1 0x1F NOT PUSH1 0x1F DUP3 ADD AND DUP3 ADD DUP1 PUSH1 0x40 MSTORE POP DUP2 ADD SWAP1 PUSH2 0x21BC SWAP2 SWAP1 PUSH2 0x36C1 JUMP JUMPDEST PUSH1 0x3 SLOAD SWAP1 SWAP2 POP PUSH2 0x21EA SWAP1 PUSH1 0x1 PUSH1 0x1 PUSH1 0xA0 SHL SUB AND PUSH20 0xFDA30F9D6A3864F092586CF755FC8FCDAF8BB5AE DUP4 PUSH2 0x293A JUMP JUMPDEST POP POP POP POP SWAP5 SWAP4 POP POP POP POP JUMP JUMPDEST PUSH1 0x40 DUP1 MLOAD PUSH1 0x1 PUSH1 0x1 PUSH1 0xA0 SHL SUB DUP6 DUP2 AND PUSH1 0x24 DUP4 ADD MSTORE DUP5 AND PUSH1 0x44 DUP3 ADD MSTORE PUSH1 0x64 DUP1 DUP3 ADD DUP5 SWAP1 MSTORE DUP3 MLOAD DUP1 DUP4 SUB SWAP1 SWAP2 ADD DUP2 MSTORE PUSH1 0x84 SWAP1 SWAP2 ADD SWAP1 SWAP2 MSTORE PUSH1 0x20 DUP2 ADD DUP1 MLOAD PUSH1 0x1 PUSH1 0x1 PUSH1 0xE0 SHL SUB AND PUSH4 0x23B872DD PUSH1 0xE0 SHL OR SWAP1 MSTORE PUSH2 0xAC0 SWAP1 DUP6 SWAP1 PUSH2 0x2C2E JUMP JUMPDEST PUSH1 0x1 PUSH1 0x0 DUP1 MLOAD PUSH1 0x20 PUSH2 0x397D DUP4 CODECOPY DUP2 MLOAD SWAP2 MSTORE SSTORE JUMP JUMPDEST PUSH32 0x9016D09D72D40FDAE2FD8CEAC6B6234C7706214FD39C1CD1E609A0528C199300 DUP1 SLOAD PUSH1 0x1 PUSH1 0x1 PUSH1 0xA0 SHL SUB NOT DUP2 AND PUSH1 0x1 PUSH1 0x1 PUSH1 0xA0 SHL SUB DUP5 DUP2 AND SWAP2 DUP3 OR DUP5 SSTORE PUSH1 0x40 MLOAD SWAP3 AND SWAP2 DUP3 SWAP1 PUSH32 0x8BE0079C531659141344CD1FD0A4F28419497F9722A3DAAFE3B4186F6B6457E0 SWAP1 PUSH1 0x0 SWAP1 LOG3 POP POP POP JUMP JUMPDEST PUSH1 0x0 PUSH2 0x22E4 PUSH1 0x0 DUP4 PUSH1 0x0 PUSH2 0x1995 JUMP JUMPDEST SWAP1 POP PUSH1 0x1 PUSH1 0x1 PUSH1 0xA0 SHL SUB DUP2 AND PUSH2 0x9FD JUMPI PUSH1 0x40 MLOAD PUSH4 0x7E273289 PUSH1 0xE0 SHL DUP2 MSTORE PUSH1 0x4 DUP2 ADD DUP4 SWAP1 MSTORE PUSH1 0x24 ADD PUSH2 0xA5C JUMP JUMPDEST PUSH1 0x0 DUP1 MLOAD PUSH1 0x20 PUSH2 0x393D DUP4 CODECOPY DUP2 MLOAD SWAP2 MSTORE PUSH1 0x1 PUSH1 0x1 PUSH1 0xA0 SHL SUB DUP4 AND PUSH2 0x2351 JUMPI PUSH1 0x40 MLOAD PUSH4 0xB611743 PUSH1 0xE3 SHL DUP2 MSTORE PUSH1 0x1 PUSH1 0x1 PUSH1 0xA0 SHL SUB DUP5 AND PUSH1 0x4 DUP3 ADD MSTORE PUSH1 0x24 ADD PUSH2 0xA5C JUMP JUMPDEST PUSH1 0x1 PUSH1 0x1 PUSH1 0xA0 SHL SUB DUP5 DUP2 AND PUSH1 0x0 DUP2 DUP2 MSTORE PUSH1 0x5 DUP5 ADD PUSH1 0x20 SWAP1 DUP2 MSTORE PUSH1 0x40 DUP1 DUP4 KECCAK256 SWAP5 DUP9 AND DUP1 DUP5 MSTORE SWAP5 DUP3 MSTORE SWAP2 DUP3 SWAP1 KECCAK256 DUP1 SLOAD PUSH1 0xFF NOT AND DUP8 ISZERO ISZERO SWAP1 DUP2 OR SWAP1 SWAP2 SSTORE SWAP2 MLOAD SWAP2 DUP3 MSTORE PUSH32 0x17307EAB39AB6107E8899845AD3D59BD9653F200F220920489CA2B5937696C31 SWAP2 ADD PUSH1 0x40 MLOAD DUP1 SWAP2 SUB SWAP1 LOG3 POP POP POP POP JUMP JUMPDEST PUSH1 0x1 PUSH1 0x1 PUSH1 0xA0 SHL SUB DUP4 AND EXTCODESIZE ISZERO PUSH2 0xAC0 JUMPI PUSH1 0x40 MLOAD PUSH4 0xA85BD01 PUSH1 0xE1 SHL DUP2 MSTORE PUSH1 0x1 PUSH1 0x1 PUSH1 0xA0 SHL SUB DUP5 AND SWAP1 PUSH4 0x150B7A02 SWAP1 PUSH2 0x2403 SWAP1 CALLER SWAP1 DUP9 SWAP1 DUP8 SWAP1 DUP8 SWAP1 PUSH1 0x4 ADD PUSH2 0x38BD JUMP JUMPDEST PUSH1 0x20 PUSH1 0x40 MLOAD DUP1 DUP4 SUB DUP2 PUSH1 0x0 DUP8 GAS CALL SWAP3 POP POP POP DUP1 ISZERO PUSH2 0x243E JUMPI POP PUSH1 0x40 DUP1 MLOAD PUSH1 0x1F RETURNDATASIZE SWAP1 DUP2 ADD PUSH1 0x1F NOT AND DUP3 ADD SWAP1 SWAP3 MSTORE PUSH2 0x243B SWAP2 DUP2 ADD SWAP1 PUSH2 0x38F0 JUMP JUMPDEST PUSH1 0x1 JUMPDEST PUSH2 0x24A7 JUMPI RETURNDATASIZE DUP1 DUP1 ISZERO PUSH2 0x246C JUMPI PUSH1 0x40 MLOAD SWAP2 POP PUSH1 0x1F NOT PUSH1 0x3F RETURNDATASIZE ADD AND DUP3 ADD PUSH1 0x40 MSTORE RETURNDATASIZE DUP3 MSTORE RETURNDATASIZE PUSH1 0x0 PUSH1 0x20 DUP5 ADD RETURNDATACOPY PUSH2 0x2471 JUMP JUMPDEST PUSH1 0x60 SWAP2 POP JUMPDEST POP DUP1 MLOAD PUSH1 0x0 SUB PUSH2 0x249F JUMPI PUSH1 0x40 MLOAD PUSH4 0x32505749 PUSH1 0xE1 SHL DUP2 MSTORE PUSH1 0x1 PUSH1 0x1 PUSH1 0xA0 SHL SUB DUP6 AND PUSH1 0x4 DUP3 ADD MSTORE PUSH1 0x24 ADD PUSH2 0xA5C JUMP JUMPDEST DUP1 MLOAD DUP2 PUSH1 0x20 ADD REVERT JUMPDEST PUSH1 0x1 PUSH1 0x1 PUSH1 0xE0 SHL SUB NOT DUP2 AND PUSH4 0xA85BD01 PUSH1 0xE1 SHL EQ PUSH2 0xFC1 JUMPI PUSH1 0x40 MLOAD PUSH4 0x32505749 PUSH1 0xE1 SHL DUP2 MSTORE PUSH1 0x1 PUSH1 0x1 PUSH1 0xA0 SHL SUB DUP6 AND PUSH1 0x4 DUP3 ADD MSTORE PUSH1 0x24 ADD PUSH2 0xA5C JUMP JUMPDEST PUSH2 0x24EB PUSH2 0x2C91 JUMP JUMPDEST PUSH2 0x9FD DUP3 DUP3 PUSH2 0x2CDA JUMP JUMPDEST PUSH2 0x1043 PUSH2 0x2C91 JUMP JUMPDEST PUSH2 0x2505 PUSH2 0x2C91 JUMP JUMPDEST PUSH2 0xB58 DUP2 PUSH2 0x2D0B JUMP JUMPDEST PUSH2 0x2516 PUSH2 0x2C91 JUMP JUMPDEST PUSH2 0x1043 PUSH2 0x2D13 JUMP JUMPDEST PUSH1 0x60 PUSH32 0x542A41881EE128A365A727B282C86FA859579490B9BB45AAB8503648C8E7900 PUSH2 0x254A DUP4 PUSH2 0x18BB JUMP JUMPDEST POP PUSH1 0x0 DUP4 DUP2 MSTORE PUSH1 0x20 DUP3 SWAP1 MSTORE PUSH1 0x40 DUP2 KECCAK256 DUP1 SLOAD PUSH2 0x2564 SWAP1 PUSH2 0x3609 JUMP JUMPDEST DUP1 PUSH1 0x1F ADD PUSH1 0x20 DUP1 SWAP2 DIV MUL PUSH1 0x20 ADD PUSH1 0x40 MLOAD SWAP1 DUP2 ADD PUSH1 0x40 MSTORE DUP1 SWAP3 SWAP2 SWAP1 DUP2 DUP2 MSTORE PUSH1 0x20 ADD DUP3 DUP1 SLOAD PUSH2 0x2590 SWAP1 PUSH2 0x3609 JUMP JUMPDEST DUP1 ISZERO PUSH2 0x25DD JUMPI DUP1 PUSH1 0x1F LT PUSH2 0x25B2 JUMPI PUSH2 0x100 DUP1 DUP4 SLOAD DIV MUL DUP4 MSTORE SWAP2 PUSH1 0x20 ADD SWAP2 PUSH2 0x25DD JUMP JUMPDEST DUP3 ADD SWAP2 SWAP1 PUSH1 0x0 MSTORE PUSH1 0x20 PUSH1 0x0 KECCAK256 SWAP1 JUMPDEST DUP2 SLOAD DUP2 MSTORE SWAP1 PUSH1 0x1 ADD SWAP1 PUSH1 0x20 ADD DUP1 DUP4 GT PUSH2 0x25C0 JUMPI DUP3 SWAP1 SUB PUSH1 0x1F AND DUP3 ADD SWAP2 JUMPDEST POP POP POP POP POP SWAP1 POP PUSH1 0x0 PUSH2 0x25FB PUSH1 0x40 DUP1 MLOAD PUSH1 0x20 DUP2 ADD SWAP1 SWAP2 MSTORE PUSH1 0x0 DUP2 MSTORE SWAP1 JUMP JUMPDEST SWAP1 POP DUP1 MLOAD PUSH1 0x0 SUB PUSH2 0x260E JUMPI POP SWAP4 SWAP3 POP POP POP JUMP JUMPDEST DUP2 MLOAD ISZERO PUSH2 0x2641 JUMPI DUP1 DUP3 PUSH1 0x40 MLOAD PUSH1 0x20 ADD PUSH2 0x2628 SWAP3 SWAP2 SWAP1 PUSH2 0x390D JUMP JUMPDEST PUSH1 0x40 MLOAD PUSH1 0x20 DUP2 DUP4 SUB SUB DUP2 MSTORE SWAP1 PUSH1 0x40 MSTORE SWAP4 POP POP POP POP SWAP2 SWAP1 POP JUMP JUMPDEST PUSH2 0x264A DUP6 PUSH2 0x2D1B JUMP JUMPDEST SWAP6 SWAP5 POP POP POP POP POP JUMP JUMPDEST PUSH2 0x9FD DUP3 DUP3 PUSH1 0x40 MLOAD DUP1 PUSH1 0x20 ADD PUSH1 0x40 MSTORE DUP1 PUSH1 0x0 DUP2 MSTORE POP PUSH2 0x2D8F JUMP JUMPDEST PUSH1 0x0 DUP3 DUP2 MSTORE PUSH32 0x542A41881EE128A365A727B282C86FA859579490B9BB45AAB8503648C8E7900 PUSH1 0x20 DUP2 SWAP1 MSTORE PUSH1 0x40 SWAP1 SWAP2 KECCAK256 PUSH2 0x26A7 DUP4 DUP3 PUSH2 0x3769 JUMP JUMPDEST POP PUSH1 0x40 MLOAD DUP4 DUP2 MSTORE PUSH32 0xF8E1A15ABA9398E019F0B49DF1A4FDE98EE17AE345CB5F6B5E2C27F5033E8CE7 SWAP1 PUSH1 0x20 ADD PUSH1 0x40 MLOAD DUP1 SWAP2 SUB SWAP1 LOG1 POP POP POP JUMP JUMPDEST PUSH1 0x0 PUSH1 0x1 PUSH1 0x1 PUSH1 0xE0 SHL SUB NOT DUP3 AND PUSH4 0x80AC58CD PUSH1 0xE0 SHL EQ DUP1 PUSH2 0x2711 JUMPI POP PUSH1 0x1 PUSH1 0x1 PUSH1 0xE0 SHL SUB NOT DUP3 AND PUSH4 0x5B5E139F PUSH1 0xE0 SHL EQ JUMPDEST DUP1 PUSH2 0x933 JUMPI POP PUSH4 0x1FFC9A7 PUSH1 0xE0 SHL PUSH1 0x1 PUSH1 0x1 PUSH1 0xE0 SHL SUB NOT DUP4 AND EQ PUSH2 0x933 JUMP JUMPDEST PUSH1 0x0 SWAP1 DUP2 MSTORE PUSH32 0x80BB2B638CC20BC4D0A60D66940F3AB4A00C1D7B313497CA82FB0B4AB0079302 PUSH1 0x20 MSTORE PUSH1 0x40 SWAP1 KECCAK256 SLOAD PUSH1 0x1 PUSH1 0x1 PUSH1 0xA0 SHL SUB AND SWAP1 JUMP JUMPDEST PUSH1 0x0 DUP1 MLOAD PUSH1 0x20 PUSH2 0x393D DUP4 CODECOPY DUP2 MLOAD SWAP2 MSTORE DUP2 DUP1 PUSH2 0x278D JUMPI POP PUSH1 0x1 PUSH1 0x1 PUSH1 0xA0 SHL SUB DUP4 AND ISZERO ISZERO JUMPDEST ISZERO PUSH2 0x284F JUMPI PUSH1 0x0 PUSH2 0x279D DUP6 PUSH2 0x18BB JUMP JUMPDEST SWAP1 POP PUSH1 0x1 PUSH1 0x1 PUSH1 0xA0 SHL SUB DUP5 AND ISZERO DUP1 ISZERO SWAP1 PUSH2 0x27C9 JUMPI POP DUP4 PUSH1 0x1 PUSH1 0x1 PUSH1 0xA0 SHL SUB AND DUP2 PUSH1 0x1 PUSH1 0x1 PUSH1 0xA0 SHL SUB AND EQ ISZERO JUMPDEST DUP1 ISZERO PUSH2 0x27DC JUMPI POP PUSH2 0x27DA DUP2 DUP6 PUSH2 0x15E6 JUMP JUMPDEST ISZERO JUMPDEST ISZERO PUSH2 0x2805 JUMPI PUSH1 0x40 MLOAD PUSH4 0xA9FBF51F PUSH1 0xE0 SHL DUP2 MSTORE PUSH1 0x1 PUSH1 0x1 PUSH1 0xA0 SHL SUB DUP6 AND PUSH1 0x4 DUP3 ADD MSTORE PUSH1 0x24 ADD PUSH2 0xA5C JUMP JUMPDEST DUP3 ISZERO PUSH2 0x284D JUMPI DUP5 DUP7 PUSH1 0x1 PUSH1 0x1 PUSH1 0xA0 SHL SUB AND DUP3 PUSH1 0x1 PUSH1 0x1 PUSH1 0xA0 SHL SUB AND PUSH32 0x8C5BE1E5EBEC7D5BD14F71427D1E84F3DD0314C0F7B2291E5B200AC8C7C3B925 PUSH1 0x40 MLOAD PUSH1 0x40 MLOAD DUP1 SWAP2 SUB SWAP1 LOG4 JUMPDEST POP JUMPDEST PUSH1 0x0 SWAP4 DUP5 MSTORE PUSH1 0x4 ADD PUSH1 0x20 MSTORE POP POP PUSH1 0x40 SWAP1 KECCAK256 DUP1 SLOAD PUSH1 0x1 PUSH1 0x1 PUSH1 0xA0 SHL SUB NOT AND PUSH1 0x1 PUSH1 0x1 PUSH1 0xA0 SHL SUB SWAP3 SWAP1 SWAP3 AND SWAP2 SWAP1 SWAP2 OR SWAP1 SSTORE JUMP JUMPDEST PUSH2 0x288B DUP4 DUP4 DUP4 PUSH2 0x2DA6 JUMP JUMPDEST PUSH2 0xB76 JUMPI PUSH1 0x1 PUSH1 0x1 PUSH1 0xA0 SHL SUB DUP4 AND PUSH2 0x28B9 JUMPI PUSH1 0x40 MLOAD PUSH4 0x7E273289 PUSH1 0xE0 SHL DUP2 MSTORE PUSH1 0x4 DUP2 ADD DUP3 SWAP1 MSTORE PUSH1 0x24 ADD PUSH2 0xA5C JUMP JUMPDEST PUSH1 0x40 MLOAD PUSH4 0x177E802F PUSH1 0xE0 SHL DUP2 MSTORE PUSH1 0x1 PUSH1 0x1 PUSH1 0xA0 SHL SUB DUP4 AND PUSH1 0x4 DUP3 ADD MSTORE PUSH1 0x24 DUP2 ADD DUP3 SWAP1 MSTORE PUSH1 0x44 ADD PUSH2 0xA5C JUMP JUMPDEST PUSH2 0x28ED DUP3 PUSH2 0x2E0C JUMP JUMPDEST PUSH1 0x40 MLOAD PUSH1 0x1 PUSH1 0x1 PUSH1 0xA0 SHL SUB DUP4 AND SWAP1 PUSH32 0xBC7CD75A20EE27FD9ADEBAB32041F755214DBC6BFFA90CC0225B39DA2E5C2D3B SWAP1 PUSH1 0x0 SWAP1 LOG2 DUP1 MLOAD ISZERO PUSH2 0x2932 JUMPI PUSH2 0xB76 DUP3 DUP3 PUSH2 0x2E71 JUMP JUMPDEST PUSH2 0x9FD PUSH2 0x2EDE JUMP JUMPDEST PUSH1 0x40 DUP1 MLOAD PUSH1 0x1 PUSH1 0x1 PUSH1 0xA0 SHL SUB DUP5 DUP2 AND PUSH1 0x24 DUP4 ADD MSTORE PUSH1 0x44 DUP1 DUP4 ADD DUP6 SWAP1 MSTORE DUP4 MLOAD DUP1 DUP5 SUB SWAP1 SWAP2 ADD DUP2 MSTORE PUSH1 0x64 SWAP1 SWAP3 ADD DUP4 MSTORE PUSH1 0x20 DUP3 ADD DUP1 MLOAD PUSH1 0x1 PUSH1 0x1 PUSH1 0xE0 SHL SUB AND PUSH4 0xA9059CBB PUSH1 0xE0 SHL OR SWAP1 MSTORE SWAP2 MLOAD PUSH1 0x0 SWAP3 DUP4 SWAP3 SWAP1 DUP8 AND SWAP2 PUSH2 0x2996 SWAP2 SWAP1 PUSH2 0x3643 JUMP JUMPDEST PUSH1 0x0 PUSH1 0x40 MLOAD DUP1 DUP4 SUB DUP2 PUSH1 0x0 DUP7 GAS CALL SWAP2 POP POP RETURNDATASIZE DUP1 PUSH1 0x0 DUP2 EQ PUSH2 0x29D3 JUMPI PUSH1 0x40 MLOAD SWAP2 POP PUSH1 0x1F NOT PUSH1 0x3F RETURNDATASIZE ADD AND DUP3 ADD PUSH1 0x40 MSTORE RETURNDATASIZE DUP3 MSTORE RETURNDATASIZE PUSH1 0x0 PUSH1 0x20 DUP5 ADD RETURNDATACOPY PUSH2 0x29D8 JUMP JUMPDEST PUSH1 0x60 SWAP2 POP JUMPDEST POP SWAP2 POP SWAP2 POP DUP2 DUP1 ISZERO PUSH2 0x2A02 JUMPI POP DUP1 MLOAD ISZERO DUP1 PUSH2 0x2A02 JUMPI POP DUP1 DUP1 PUSH1 0x20 ADD SWAP1 MLOAD DUP2 ADD SWAP1 PUSH2 0x2A02 SWAP2 SWAP1 PUSH2 0x36DA JUMP JUMPDEST PUSH2 0xFC1 JUMPI PUSH1 0x40 MLOAD PUSH3 0x461BCD PUSH1 0xE5 SHL DUP2 MSTORE PUSH1 0x20 PUSH1 0x4 DUP3 ADD MSTORE PUSH1 0x2 PUSH1 0x24 DUP3 ADD MSTORE PUSH2 0x14D5 PUSH1 0xF2 SHL PUSH1 0x44 DUP3 ADD MSTORE PUSH1 0x64 ADD PUSH2 0xA5C JUMP JUMPDEST PUSH1 0x40 DUP1 MLOAD PUSH1 0x1 PUSH1 0x1 PUSH1 0xA0 SHL SUB DUP6 DUP2 AND PUSH1 0x24 DUP4 ADD MSTORE DUP5 DUP2 AND PUSH1 0x44 DUP4 ADD MSTORE PUSH1 0x64 DUP1 DUP4 ADD DUP6 SWAP1 MSTORE DUP4 MLOAD DUP1 DUP5 SUB SWAP1 SWAP2 ADD DUP2 MSTORE PUSH1 0x84 SWAP1 SWAP3 ADD DUP4 MSTORE PUSH1 0x20 DUP3 ADD DUP1 MLOAD PUSH1 0x1 PUSH1 0x1 PUSH1 0xE0 SHL SUB AND PUSH4 0x23B872DD PUSH1 0xE0 SHL OR SWAP1 MSTORE SWAP2 MLOAD PUSH1 0x0 SWAP3 DUP4 SWAP3 SWAP1 DUP9 AND SWAP2 PUSH2 0x2A97 SWAP2 SWAP1 PUSH2 0x3643 JUMP JUMPDEST PUSH1 0x0 PUSH1 0x40 MLOAD DUP1 DUP4 SUB DUP2 PUSH1 0x0 DUP7 GAS CALL SWAP2 POP POP RETURNDATASIZE DUP1 PUSH1 0x0 DUP2 EQ PUSH2 0x2AD4 JUMPI PUSH1 0x40 MLOAD SWAP2 POP PUSH1 0x1F NOT PUSH1 0x3F RETURNDATASIZE ADD AND DUP3 ADD PUSH1 0x40 MSTORE RETURNDATASIZE DUP3 MSTORE RETURNDATASIZE PUSH1 0x0 PUSH1 0x20 DUP5 ADD RETURNDATACOPY PUSH2 0x2AD9 JUMP JUMPDEST PUSH1 0x60 SWAP2 POP JUMPDEST POP SWAP2 POP SWAP2 POP DUP2 DUP1 ISZERO PUSH2 0x2B03 JUMPI POP DUP1 MLOAD ISZERO DUP1 PUSH2 0x2B03 JUMPI POP DUP1 DUP1 PUSH1 0x20 ADD SWAP1 MLOAD DUP2 ADD SWAP1 PUSH2 0x2B03 SWAP2 SWAP1 PUSH2 0x36DA JUMP JUMPDEST PUSH2 0x15D3 JUMPI PUSH1 0x40 MLOAD PUSH3 0x461BCD PUSH1 0xE5 SHL DUP2 MSTORE PUSH1 0x20 PUSH1 0x4 DUP3 ADD MSTORE PUSH1 0x3 PUSH1 0x24 DUP3 ADD MSTORE PUSH3 0x29AA23 PUSH1 0xE9 SHL PUSH1 0x44 DUP3 ADD MSTORE PUSH1 0x64 ADD PUSH2 0xA5C JUMP JUMPDEST PUSH1 0x40 DUP1 MLOAD PUSH1 0x1 PUSH1 0x1 PUSH1 0xA0 SHL SUB DUP5 DUP2 AND PUSH1 0x24 DUP4 ADD MSTORE PUSH1 0x44 DUP1 DUP4 ADD DUP6 SWAP1 MSTORE DUP4 MLOAD DUP1 DUP5 SUB SWAP1 SWAP2 ADD DUP2 MSTORE PUSH1 0x64 SWAP1 SWAP3 ADD DUP4 MSTORE PUSH1 0x20 DUP3 ADD DUP1 MLOAD PUSH1 0x1 PUSH1 0x1 PUSH1 0xE0 SHL SUB AND PUSH4 0x95EA7B3 PUSH1 0xE0 SHL OR SWAP1 MSTORE SWAP2 MLOAD PUSH1 0x0 SWAP3 DUP4 SWAP3 SWAP1 DUP8 AND SWAP2 PUSH2 0x2B91 SWAP2 SWAP1 PUSH2 0x3643 JUMP JUMPDEST PUSH1 0x0 PUSH1 0x40 MLOAD DUP1 DUP4 SUB DUP2 PUSH1 0x0 DUP7 GAS CALL SWAP2 POP POP RETURNDATASIZE DUP1 PUSH1 0x0 DUP2 EQ PUSH2 0x2BCE JUMPI PUSH1 0x40 MLOAD SWAP2 POP PUSH1 0x1F NOT PUSH1 0x3F RETURNDATASIZE ADD AND DUP3 ADD PUSH1 0x40 MSTORE RETURNDATASIZE DUP3 MSTORE RETURNDATASIZE PUSH1 0x0 PUSH1 0x20 DUP5 ADD RETURNDATACOPY PUSH2 0x2BD3 JUMP JUMPDEST PUSH1 0x60 SWAP2 POP JUMPDEST POP SWAP2 POP SWAP2 POP DUP2 DUP1 ISZERO PUSH2 0x2BFD JUMPI POP DUP1 MLOAD ISZERO DUP1 PUSH2 0x2BFD JUMPI POP DUP1 DUP1 PUSH1 0x20 ADD SWAP1 MLOAD DUP2 ADD SWAP1 PUSH2 0x2BFD SWAP2 SWAP1 PUSH2 0x36DA JUMP JUMPDEST PUSH2 0xFC1 JUMPI PUSH1 0x40 MLOAD PUSH3 0x461BCD PUSH1 0xE5 SHL DUP2 MSTORE PUSH1 0x20 PUSH1 0x4 DUP3 ADD MSTORE PUSH1 0x2 PUSH1 0x24 DUP3 ADD MSTORE PUSH2 0x5341 PUSH1 0xF0 SHL PUSH1 0x44 DUP3 ADD MSTORE PUSH1 0x64 ADD PUSH2 0xA5C JUMP JUMPDEST PUSH1 0x0 PUSH2 0x2C43 PUSH1 0x1 PUSH1 0x1 PUSH1 0xA0 SHL SUB DUP5 AND DUP4 PUSH2 0x2EFD JUMP JUMPDEST SWAP1 POP DUP1 MLOAD PUSH1 0x0 EQ ISZERO DUP1 ISZERO PUSH2 0x2C68 JUMPI POP DUP1 DUP1 PUSH1 0x20 ADD SWAP1 MLOAD DUP2 ADD SWAP1 PUSH2 0x2C66 SWAP2 SWAP1 PUSH2 0x36DA JUMP JUMPDEST ISZERO JUMPDEST ISZERO PUSH2 0xB76 JUMPI PUSH1 0x40 MLOAD PUSH4 0x5274AFE7 PUSH1 0xE0 SHL DUP2 MSTORE PUSH1 0x1 PUSH1 0x1 PUSH1 0xA0 SHL SUB DUP5 AND PUSH1 0x4 DUP3 ADD MSTORE PUSH1 0x24 ADD PUSH2 0xA5C JUMP JUMPDEST PUSH32 0xF0C57E16840DF040F15088DC2F81FE391C3923BEC73E23A9662EFC9C229C6A00 SLOAD PUSH1 0x1 PUSH1 0x40 SHL SWAP1 DIV PUSH1 0xFF AND PUSH2 0x1043 JUMPI PUSH1 0x40 MLOAD PUSH4 0x1AFCD79F PUSH1 0xE3 SHL DUP2 MSTORE PUSH1 0x4 ADD PUSH1 0x40 MLOAD DUP1 SWAP2 SUB SWAP1 REVERT JUMPDEST PUSH2 0x2CE2 PUSH2 0x2C91 JUMP JUMPDEST PUSH1 0x0 DUP1 MLOAD PUSH1 0x20 PUSH2 0x393D DUP4 CODECOPY DUP2 MLOAD SWAP2 MSTORE DUP1 PUSH2 0x2CFC DUP5 DUP3 PUSH2 0x3769 JUMP JUMPDEST POP PUSH1 0x1 DUP2 ADD PUSH2 0xAC0 DUP4 DUP3 PUSH2 0x3769 JUMP JUMPDEST PUSH2 0x1863 PUSH2 0x2C91 JUMP JUMPDEST PUSH2 0x2250 PUSH2 0x2C91 JUMP JUMPDEST PUSH1 0x60 PUSH2 0x2D26 DUP3 PUSH2 0x18BB JUMP JUMPDEST POP PUSH1 0x0 PUSH2 0x2D3E PUSH1 0x40 DUP1 MLOAD PUSH1 0x20 DUP2 ADD SWAP1 SWAP2 MSTORE PUSH1 0x0 DUP2 MSTORE SWAP1 JUMP JUMPDEST SWAP1 POP PUSH1 0x0 DUP2 MLOAD GT PUSH2 0x2D5E JUMPI PUSH1 0x40 MLOAD DUP1 PUSH1 0x20 ADD PUSH1 0x40 MSTORE DUP1 PUSH1 0x0 DUP2 MSTORE POP PUSH2 0x1143 JUMP JUMPDEST DUP1 PUSH2 0x2D68 DUP5 PUSH2 0x2F0B JUMP JUMPDEST PUSH1 0x40 MLOAD PUSH1 0x20 ADD PUSH2 0x2D79 SWAP3 SWAP2 SWAP1 PUSH2 0x390D JUMP JUMPDEST PUSH1 0x40 MLOAD PUSH1 0x20 DUP2 DUP4 SUB SUB DUP2 MSTORE SWAP1 PUSH1 0x40 MSTORE SWAP4 SWAP3 POP POP POP JUMP JUMPDEST PUSH2 0x2D99 DUP4 DUP4 PUSH2 0x2F9E JUMP JUMPDEST PUSH2 0xB76 PUSH1 0x0 DUP5 DUP5 DUP5 PUSH2 0x23C1 JUMP JUMPDEST PUSH1 0x0 PUSH1 0x1 PUSH1 0x1 PUSH1 0xA0 SHL SUB DUP4 AND ISZERO DUP1 ISZERO SWAP1 PUSH2 0x2E04 JUMPI POP DUP3 PUSH1 0x1 PUSH1 0x1 PUSH1 0xA0 SHL SUB AND DUP5 PUSH1 0x1 PUSH1 0x1 PUSH1 0xA0 SHL SUB AND EQ DUP1 PUSH2 0x2DE0 JUMPI POP PUSH2 0x2DE0 DUP5 DUP5 PUSH2 0x15E6 JUMP JUMPDEST DUP1 PUSH2 0x2E04 JUMPI POP DUP3 PUSH1 0x1 PUSH1 0x1 PUSH1 0xA0 SHL SUB AND PUSH2 0x2DF9 DUP4 PUSH2 0x18F3 JUMP JUMPDEST PUSH1 0x1 PUSH1 0x1 PUSH1 0xA0 SHL SUB AND EQ JUMPDEST SWAP5 SWAP4 POP POP POP POP JUMP JUMPDEST DUP1 PUSH1 0x1 PUSH1 0x1 PUSH1 0xA0 SHL SUB AND EXTCODESIZE PUSH1 0x0 SUB PUSH2 0x2E42 JUMPI PUSH1 0x40 MLOAD PUSH4 0x4C9C8CE3 PUSH1 0xE0 SHL DUP2 MSTORE PUSH1 0x1 PUSH1 0x1 PUSH1 0xA0 SHL SUB DUP3 AND PUSH1 0x4 DUP3 ADD MSTORE PUSH1 0x24 ADD PUSH2 0xA5C JUMP JUMPDEST PUSH1 0x0 DUP1 MLOAD PUSH1 0x20 PUSH2 0x395D DUP4 CODECOPY DUP2 MLOAD SWAP2 MSTORE DUP1 SLOAD PUSH1 0x1 PUSH1 0x1 PUSH1 0xA0 SHL SUB NOT AND PUSH1 0x1 PUSH1 0x1 PUSH1 0xA0 SHL SUB SWAP3 SWAP1 SWAP3 AND SWAP2 SWAP1 SWAP2 OR SWAP1 SSTORE JUMP JUMPDEST PUSH1 0x60 PUSH1 0x0 DUP1 DUP5 PUSH1 0x1 PUSH1 0x1 PUSH1 0xA0 SHL SUB AND DUP5 PUSH1 0x40 MLOAD PUSH2 0x2E8E SWAP2 SWAP1 PUSH2 0x3643 JUMP JUMPDEST PUSH1 0x0 PUSH1 0x40 MLOAD DUP1 DUP4 SUB DUP2 DUP6 GAS DELEGATECALL SWAP2 POP POP RETURNDATASIZE DUP1 PUSH1 0x0 DUP2 EQ PUSH2 0x2EC9 JUMPI PUSH1 0x40 MLOAD SWAP2 POP PUSH1 0x1F NOT PUSH1 0x3F RETURNDATASIZE ADD AND DUP3 ADD PUSH1 0x40 MSTORE RETURNDATASIZE DUP3 MSTORE RETURNDATASIZE PUSH1 0x0 PUSH1 0x20 DUP5 ADD RETURNDATACOPY PUSH2 0x2ECE JUMP JUMPDEST PUSH1 0x60 SWAP2 POP JUMPDEST POP SWAP2 POP SWAP2 POP PUSH2 0x264A DUP6 DUP4 DUP4 PUSH2 0x3003 JUMP JUMPDEST CALLVALUE ISZERO PUSH2 0x1043 JUMPI PUSH1 0x40 MLOAD PUSH4 0xB398979F PUSH1 0xE0 SHL DUP2 MSTORE PUSH1 0x4 ADD PUSH1 0x40 MLOAD DUP1 SWAP2 SUB SWAP1 REVERT JUMPDEST PUSH1 0x60 PUSH2 0x1143 DUP4 DUP4 PUSH1 0x0 PUSH2 0x305F JUMP JUMPDEST PUSH1 0x60 PUSH1 0x0 PUSH2 0x2F18 DUP4 PUSH2 0x30FC JUMP JUMPDEST PUSH1 0x1 ADD SWAP1 POP PUSH1 0x0 DUP2 PUSH8 0xFFFFFFFFFFFFFFFF DUP2 GT ISZERO PUSH2 0x2F38 JUMPI PUSH2 0x2F38 PUSH2 0x32F2 JUMP JUMPDEST PUSH1 0x40 MLOAD SWAP1 DUP1 DUP3 MSTORE DUP1 PUSH1 0x1F ADD PUSH1 0x1F NOT AND PUSH1 0x20 ADD DUP3 ADD PUSH1 0x40 MSTORE DUP1 ISZERO PUSH2 0x2F62 JUMPI PUSH1 0x20 DUP3 ADD DUP2 DUP1 CALLDATASIZE DUP4 CALLDATACOPY ADD SWAP1 POP JUMPDEST POP SWAP1 POP DUP2 DUP2 ADD PUSH1 0x20 ADD JUMPDEST PUSH1 0x0 NOT ADD PUSH16 0x181899199A1A9B1B9C1CB0B131B232B3 PUSH1 0x81 SHL PUSH1 0xA DUP7 MOD BYTE DUP2 MSTORE8 PUSH1 0xA DUP6 DIV SWAP5 POP DUP5 PUSH2 0x2F6C JUMPI POP SWAP4 SWAP3 POP POP POP JUMP JUMPDEST PUSH1 0x1 PUSH1 0x1 PUSH1 0xA0 SHL SUB DUP3 AND PUSH2 0x2FC8 JUMPI PUSH1 0x40 MLOAD PUSH4 0x32505749 PUSH1 0xE1 SHL DUP2 MSTORE PUSH1 0x0 PUSH1 0x4 DUP3 ADD MSTORE PUSH1 0x24 ADD PUSH2 0xA5C JUMP JUMPDEST PUSH1 0x0 PUSH2 0x2FD6 DUP4 DUP4 PUSH1 0x0 PUSH2 0x1995 JUMP JUMPDEST SWAP1 POP PUSH1 0x1 PUSH1 0x1 PUSH1 0xA0 SHL SUB DUP2 AND ISZERO PUSH2 0xB76 JUMPI PUSH1 0x40 MLOAD PUSH4 0x39E35637 PUSH1 0xE1 SHL DUP2 MSTORE PUSH1 0x0 PUSH1 0x4 DUP3 ADD MSTORE PUSH1 0x24 ADD PUSH2 0xA5C JUMP JUMPDEST PUSH1 0x60 DUP3 PUSH2 0x3018 JUMPI PUSH2 0x3013 DUP3 PUSH2 0x31D4 JUMP JUMPDEST PUSH2 0x1143 JUMP JUMPDEST DUP2 MLOAD ISZERO DUP1 ISZERO PUSH2 0x302F JUMPI POP PUSH1 0x1 PUSH1 0x1 PUSH1 0xA0 SHL SUB DUP5 AND EXTCODESIZE ISZERO JUMPDEST ISZERO PUSH2 0x3058 JUMPI PUSH1 0x40 MLOAD PUSH4 0x9996B315 PUSH1 0xE0 SHL DUP2 MSTORE PUSH1 0x1 PUSH1 0x1 PUSH1 0xA0 SHL SUB DUP6 AND PUSH1 0x4 DUP3 ADD MSTORE PUSH1 0x24 ADD PUSH2 0xA5C JUMP JUMPDEST POP DUP1 PUSH2 0x1143 JUMP JUMPDEST PUSH1 0x60 DUP2 SELFBALANCE LT ISZERO PUSH2 0x3084 JUMPI PUSH1 0x40 MLOAD PUSH4 0xCD786059 PUSH1 0xE0 SHL DUP2 MSTORE ADDRESS PUSH1 0x4 DUP3 ADD MSTORE PUSH1 0x24 ADD PUSH2 0xA5C JUMP JUMPDEST PUSH1 0x0 DUP1 DUP6 PUSH1 0x1 PUSH1 0x1 PUSH1 0xA0 SHL SUB AND DUP5 DUP7 PUSH1 0x40 MLOAD PUSH2 0x30A0 SWAP2 SWAP1 PUSH2 0x3643 JUMP JUMPDEST PUSH1 0x0 PUSH1 0x40 MLOAD DUP1 DUP4 SUB DUP2 DUP6 DUP8 GAS CALL SWAP3 POP POP POP RETURNDATASIZE DUP1 PUSH1 0x0 DUP2 EQ PUSH2 0x30DD JUMPI PUSH1 0x40 MLOAD SWAP2 POP PUSH1 0x1F NOT PUSH1 0x3F RETURNDATASIZE ADD AND DUP3 ADD PUSH1 0x40 MSTORE RETURNDATASIZE DUP3 MSTORE RETURNDATASIZE PUSH1 0x0 PUSH1 0x20 DUP5 ADD RETURNDATACOPY PUSH2 0x30E2 JUMP JUMPDEST PUSH1 0x60 SWAP2 POP JUMPDEST POP SWAP2 POP SWAP2 POP PUSH2 0x30F2 DUP7 DUP4 DUP4 PUSH2 0x3003 JUMP JUMPDEST SWAP7 SWAP6 POP POP POP POP POP POP JUMP JUMPDEST PUSH1 0x0 DUP1 PUSH19 0x184F03E93FF9F4DAA797ED6E38ED64BF6A1F01 PUSH1 0x40 SHL DUP4 LT PUSH2 0x313B JUMPI PUSH19 0x184F03E93FF9F4DAA797ED6E38ED64BF6A1F01 PUSH1 0x40 SHL DUP4 DIV SWAP3 POP PUSH1 0x40 ADD JUMPDEST PUSH14 0x4EE2D6D415B85ACEF8100000000 DUP4 LT PUSH2 0x3167 JUMPI PUSH14 0x4EE2D6D415B85ACEF8100000000 DUP4 DIV SWAP3 POP PUSH1 0x20 ADD JUMPDEST PUSH7 0x2386F26FC10000 DUP4 LT PUSH2 0x3185 JUMPI PUSH7 0x2386F26FC10000 DUP4 DIV SWAP3 POP PUSH1 0x10 ADD JUMPDEST PUSH4 0x5F5E100 DUP4 LT PUSH2 0x319D JUMPI PUSH4 0x5F5E100 DUP4 DIV SWAP3 POP PUSH1 0x8 ADD JUMPDEST PUSH2 0x2710 DUP4 LT PUSH2 0x31B1 JUMPI PUSH2 0x2710 DUP4 DIV SWAP3 POP PUSH1 0x4 ADD JUMPDEST PUSH1 0x64 DUP4 LT PUSH2 0x31C3 JUMPI PUSH1 0x64 DUP4 DIV SWAP3 POP PUSH1 0x2 ADD JUMPDEST PUSH1 0xA DUP4 LT PUSH2 0x933 JUMPI PUSH1 0x1 ADD SWAP3 SWAP2 POP POP JUMP JUMPDEST DUP1 MLOAD ISZERO PUSH2 0x31E4 JUMPI DUP1 MLOAD DUP1 DUP3 PUSH1 0x20 ADD REVERT JUMPDEST PUSH1 0x40 MLOAD PUSH4 0xA12F521 PUSH1 0xE1 SHL DUP2 MSTORE PUSH1 0x4 ADD PUSH1 0x40 MLOAD DUP1 SWAP2 SUB SWAP1 REVERT JUMPDEST PUSH1 0x1 PUSH1 0x1 PUSH1 0xE0 SHL SUB NOT DUP2 AND DUP2 EQ PUSH2 0xB58 JUMPI PUSH1 0x0 DUP1 REVERT JUMPDEST PUSH1 0x0 PUSH1 0x20 DUP3 DUP5 SUB SLT ISZERO PUSH2 0x3225 JUMPI PUSH1 0x0 DUP1 REVERT JUMPDEST DUP2 CALLDATALOAD PUSH2 0x1143 DUP2 PUSH2 0x31FD JUMP JUMPDEST PUSH1 0x0 JUMPDEST DUP4 DUP2 LT ISZERO PUSH2 0x324B JUMPI DUP2 DUP2 ADD MLOAD DUP4 DUP3 ADD MSTORE PUSH1 0x20 ADD PUSH2 0x3233 JUMP JUMPDEST POP POP PUSH1 0x0 SWAP2 ADD MSTORE JUMP JUMPDEST PUSH1 0x0 DUP2 MLOAD DUP1 DUP5 MSTORE PUSH2 0x326C DUP2 PUSH1 0x20 DUP7 ADD PUSH1 0x20 DUP7 ADD PUSH2 0x3230 JUMP JUMPDEST PUSH1 0x1F ADD PUSH1 0x1F NOT AND SWAP3 SWAP1 SWAP3 ADD PUSH1 0x20 ADD SWAP3 SWAP2 POP POP JUMP JUMPDEST PUSH1 0x20 DUP2 MSTORE PUSH1 0x0 PUSH2 0x1143 PUSH1 0x20 DUP4 ADD DUP5 PUSH2 0x3254 JUMP JUMPDEST PUSH1 0x0 PUSH1 0x20 DUP3 DUP5 SUB SLT ISZERO PUSH2 0x32A5 JUMPI PUSH1 0x0 DUP1 REVERT JUMPDEST POP CALLDATALOAD SWAP2 SWAP1 POP JUMP JUMPDEST DUP1 CALLDATALOAD PUSH1 0x1 PUSH1 0x1 PUSH1 0xA0 SHL SUB DUP2 AND DUP2 EQ PUSH2 0x32C3 JUMPI PUSH1 0x0 DUP1 REVERT JUMPDEST SWAP2 SWAP1 POP JUMP JUMPDEST PUSH1 0x0 DUP1 PUSH1 0x40 DUP4 DUP6 SUB SLT ISZERO PUSH2 0x32DB JUMPI PUSH1 0x0 DUP1 REVERT JUMPDEST PUSH2 0x32E4 DUP4 PUSH2 0x32AC JUMP JUMPDEST SWAP5 PUSH1 0x20 SWAP4 SWAP1 SWAP4 ADD CALLDATALOAD SWAP4 POP POP POP JUMP JUMPDEST PUSH4 0x4E487B71 PUSH1 0xE0 SHL PUSH1 0x0 MSTORE PUSH1 0x41 PUSH1 0x4 MSTORE PUSH1 0x24 PUSH1 0x0 REVERT JUMPDEST PUSH1 0x0 DUP3 PUSH1 0x1F DUP4 ADD SLT PUSH2 0x3319 JUMPI PUSH1 0x0 DUP1 REVERT JUMPDEST DUP2 CALLDATALOAD PUSH8 0xFFFFFFFFFFFFFFFF DUP1 DUP3 GT ISZERO PUSH2 0x3334 JUMPI PUSH2 0x3334 PUSH2 0x32F2 JUMP JUMPDEST PUSH1 0x40 MLOAD PUSH1 0x1F DUP4 ADD PUSH1 0x1F NOT SWAP1 DUP2 AND PUSH1 0x3F ADD AND DUP2 ADD SWAP1 DUP3 DUP3 GT DUP2 DUP4 LT OR ISZERO PUSH2 0x335C JUMPI PUSH2 0x335C PUSH2 0x32F2 JUMP JUMPDEST DUP2 PUSH1 0x40 MSTORE DUP4 DUP2 MSTORE DUP7 PUSH1 0x20 DUP6 DUP9 ADD ADD GT ISZERO PUSH2 0x3375 JUMPI PUSH1 0x0 DUP1 REVERT JUMPDEST DUP4 PUSH1 0x20 DUP8 ADD PUSH1 0x20 DUP4 ADD CALLDATACOPY PUSH1 0x0 PUSH1 0x20 DUP6 DUP4 ADD ADD MSTORE DUP1 SWAP5 POP POP POP POP POP SWAP3 SWAP2 POP POP JUMP JUMPDEST PUSH1 0x0 PUSH1 0x20 DUP3 DUP5 SUB SLT ISZERO PUSH2 0x33A7 JUMPI PUSH1 0x0 DUP1 REVERT JUMPDEST DUP2 CALLDATALOAD PUSH8 0xFFFFFFFFFFFFFFFF DUP2 GT ISZERO PUSH2 0x33BE JUMPI PUSH1 0x0 DUP1 REVERT JUMPDEST PUSH2 0x2E04 DUP5 DUP3 DUP6 ADD PUSH2 0x3308 JUMP JUMPDEST PUSH1 0x0 DUP1 PUSH1 0x0 PUSH1 0x60 DUP5 DUP7 SUB SLT ISZERO PUSH2 0x33DF JUMPI PUSH1 0x0 DUP1 REVERT JUMPDEST PUSH2 0x33E8 DUP5 PUSH2 0x32AC JUMP JUMPDEST SWAP3 POP PUSH2 0x33F6 PUSH1 0x20 DUP6 ADD PUSH2 0x32AC JUMP JUMPDEST SWAP2 POP PUSH1 0x40 DUP5 ADD CALLDATALOAD SWAP1 POP SWAP3 POP SWAP3 POP SWAP3 JUMP JUMPDEST PUSH1 0x0 DUP1 PUSH1 0x40 DUP4 DUP6 SUB SLT ISZERO PUSH2 0x3419 JUMPI PUSH1 0x0 DUP1 REVERT JUMPDEST PUSH2 0x3422 DUP4 PUSH2 0x32AC JUMP JUMPDEST SWAP2 POP PUSH1 0x20 DUP4 ADD CALLDATALOAD PUSH8 0xFFFFFFFFFFFFFFFF DUP2 GT ISZERO PUSH2 0x343E JUMPI PUSH1 0x0 DUP1 REVERT JUMPDEST PUSH2 0x344A DUP6 DUP3 DUP7 ADD PUSH2 0x3308 JUMP JUMPDEST SWAP2 POP POP SWAP3 POP SWAP3 SWAP1 POP JUMP JUMPDEST PUSH1 0x0 PUSH1 0x20 DUP3 DUP5 SUB SLT ISZERO PUSH2 0x3466 JUMPI PUSH1 0x0 DUP1 REVERT JUMPDEST PUSH2 0x1143 DUP3 PUSH2 0x32AC JUMP JUMPDEST PUSH1 0x0 DUP1 PUSH1 0x0 DUP1 PUSH1 0x0 PUSH1 0xA0 DUP7 DUP9 SUB SLT ISZERO PUSH2 0x3487 JUMPI PUSH1 0x0 DUP1 REVERT JUMPDEST DUP6 CALLDATALOAD SWAP5 POP PUSH2 0x3497 PUSH1 0x20 DUP8 ADD PUSH2 0x32AC JUMP JUMPDEST SWAP5 SWAP8 SWAP5 SWAP7 POP POP POP POP PUSH1 0x40 DUP4 ADD CALLDATALOAD SWAP3 PUSH1 0x60 DUP2 ADD CALLDATALOAD SWAP3 PUSH1 0x80 SWAP1 SWAP2 ADD CALLDATALOAD SWAP2 POP JUMP JUMPDEST DUP1 ISZERO ISZERO DUP2 EQ PUSH2 0xB58 JUMPI PUSH1 0x0 DUP1 REVERT JUMPDEST PUSH1 0x0 DUP1 PUSH1 0x40 DUP4 DUP6 SUB SLT ISZERO PUSH2 0x34D6 JUMPI PUSH1 0x0 DUP1 REVERT JUMPDEST PUSH2 0x34DF DUP4 PUSH2 0x32AC JUMP JUMPDEST SWAP2 POP PUSH1 0x20 DUP4 ADD CALLDATALOAD PUSH2 0x34EF DUP2 PUSH2 0x34B5 JUMP JUMPDEST DUP1 SWAP2 POP POP SWAP3 POP SWAP3 SWAP1 POP JUMP JUMPDEST PUSH1 0x0 DUP1 PUSH1 0x0 DUP1 PUSH1 0x80 DUP6 DUP8 SUB SLT ISZERO PUSH2 0x3510 JUMPI PUSH1 0x0 DUP1 REVERT JUMPDEST PUSH2 0x3519 DUP6 PUSH2 0x32AC JUMP JUMPDEST SWAP4 POP PUSH2 0x3527 PUSH1 0x20 DUP7 ADD PUSH2 0x32AC JUMP JUMPDEST SWAP3 POP PUSH1 0x40 DUP6 ADD CALLDATALOAD SWAP2 POP PUSH1 0x60 DUP6 ADD CALLDATALOAD PUSH8 0xFFFFFFFFFFFFFFFF DUP2 GT ISZERO PUSH2 0x354A JUMPI PUSH1 0x0 DUP1 REVERT JUMPDEST PUSH2 0x3556 DUP8 DUP3 DUP9 ADD PUSH2 0x3308 JUMP JUMPDEST SWAP2 POP POP SWAP3 SWAP6 SWAP2 SWAP5 POP SWAP3 POP JUMP JUMPDEST PUSH1 0x0 DUP1 PUSH1 0x40 DUP4 DUP6 SUB SLT ISZERO PUSH2 0x3575 JUMPI PUSH1 0x0 DUP1 REVERT JUMPDEST PUSH2 0x357E DUP4 PUSH2 0x32AC JUMP JUMPDEST SWAP2 POP PUSH2 0x358C PUSH1 0x20 DUP5 ADD PUSH2 0x32AC JUMP JUMPDEST SWAP1 POP SWAP3 POP SWAP3 SWAP1 POP JUMP JUMPDEST PUSH1 0x0 DUP1 PUSH1 0x0 PUSH1 0x60 DUP5 DUP7 SUB SLT ISZERO PUSH2 0x35AA JUMPI PUSH1 0x0 DUP1 REVERT JUMPDEST PUSH2 0x35B3 DUP5 PUSH2 0x32AC JUMP JUMPDEST SWAP3 POP PUSH1 0x20 DUP5 ADD CALLDATALOAD PUSH8 0xFFFFFFFFFFFFFFFF DUP1 DUP3 GT ISZERO PUSH2 0x35D0 JUMPI PUSH1 0x0 DUP1 REVERT JUMPDEST PUSH2 0x35DC DUP8 DUP4 DUP9 ADD PUSH2 0x3308 JUMP JUMPDEST SWAP4 POP PUSH1 0x40 DUP7 ADD CALLDATALOAD SWAP2 POP DUP1 DUP3 GT ISZERO PUSH2 0x35F2 JUMPI PUSH1 0x0 DUP1 REVERT JUMPDEST POP PUSH2 0x35FF DUP7 DUP3 DUP8 ADD PUSH2 0x3308 JUMP JUMPDEST SWAP2 POP POP SWAP3 POP SWAP3 POP SWAP3 JUMP JUMPDEST PUSH1 0x1 DUP2 DUP2 SHR SWAP1 DUP3 AND DUP1 PUSH2 0x361D JUMPI PUSH1 0x7F DUP3 AND SWAP2 POP JUMPDEST PUSH1 0x20 DUP3 LT DUP2 SUB PUSH2 0x363D JUMPI PUSH4 0x4E487B71 PUSH1 0xE0 SHL PUSH1 0x0 MSTORE PUSH1 0x22 PUSH1 0x4 MSTORE PUSH1 0x24 PUSH1 0x0 REVERT JUMPDEST POP SWAP2 SWAP1 POP JUMP JUMPDEST PUSH1 0x0 DUP3 MLOAD PUSH2 0x3655 DUP2 DUP5 PUSH1 0x20 DUP8 ADD PUSH2 0x3230 JUMP JUMPDEST SWAP2 SWAP1 SWAP2 ADD SWAP3 SWAP2 POP POP JUMP JUMPDEST PUSH4 0x4E487B71 PUSH1 0xE0 SHL PUSH1 0x0 MSTORE PUSH1 0x11 PUSH1 0x4 MSTORE PUSH1 0x24 PUSH1 0x0 REVERT JUMPDEST DUP1 DUP3 MUL DUP2 ISZERO DUP3 DUP3 DIV DUP5 EQ OR PUSH2 0x933 JUMPI PUSH2 0x933 PUSH2 0x365F JUMP JUMPDEST PUSH1 0x0 DUP3 PUSH2 0x36A9 JUMPI PUSH4 0x4E487B71 PUSH1 0xE0 SHL PUSH1 0x0 MSTORE PUSH1 0x12 PUSH1 0x4 MSTORE PUSH1 0x24 PUSH1 0x0 REVERT JUMPDEST POP DIV SWAP1 JUMP JUMPDEST DUP2 DUP2 SUB DUP2 DUP2 GT ISZERO PUSH2 0x933 JUMPI PUSH2 0x933 PUSH2 0x365F JUMP JUMPDEST PUSH1 0x0 PUSH1 0x20 DUP3 DUP5 SUB SLT ISZERO PUSH2 0x36D3 JUMPI PUSH1 0x0 DUP1 REVERT JUMPDEST POP MLOAD SWAP2 SWAP1 POP JUMP JUMPDEST PUSH1 0x0 PUSH1 0x20 DUP3 DUP5 SUB SLT ISZERO PUSH2 0x36EC JUMPI PUSH1 0x0 DUP1 REVERT JUMPDEST DUP2 MLOAD PUSH2 0x1143 DUP2 PUSH2 0x34B5 JUMP JUMPDEST DUP1 DUP3 ADD DUP1 DUP3 GT ISZERO PUSH2 0x933 JUMPI PUSH2 0x933 PUSH2 0x365F JUMP JUMPDEST PUSH1 0x0 PUSH1 0x1 DUP3 ADD PUSH2 0x371C JUMPI PUSH2 0x371C PUSH2 0x365F JUMP JUMPDEST POP PUSH1 0x1 ADD SWAP1 JUMP JUMPDEST PUSH1 0x1F DUP3 GT ISZERO PUSH2 0xB76 JUMPI PUSH1 0x0 DUP2 DUP2 MSTORE PUSH1 0x20 DUP2 KECCAK256 PUSH1 0x1F DUP6 ADD PUSH1 0x5 SHR DUP2 ADD PUSH1 0x20 DUP7 LT ISZERO PUSH2 0x374A JUMPI POP DUP1 JUMPDEST PUSH1 0x1F DUP6 ADD PUSH1 0x5 SHR DUP3 ADD SWAP2 POP JUMPDEST DUP2 DUP2 LT ISZERO PUSH2 0x15D3 JUMPI DUP3 DUP2 SSTORE PUSH1 0x1 ADD PUSH2 0x3756 JUMP JUMPDEST DUP2 MLOAD PUSH8 0xFFFFFFFFFFFFFFFF DUP2 GT ISZERO PUSH2 0x3783 JUMPI PUSH2 0x3783 PUSH2 0x32F2 JUMP JUMPDEST PUSH2 0x3797 DUP2 PUSH2 0x3791 DUP5 SLOAD PUSH2 0x3609 JUMP JUMPDEST DUP5 PUSH2 0x3723 JUMP JUMPDEST PUSH1 0x20 DUP1 PUSH1 0x1F DUP4 GT PUSH1 0x1 DUP2 EQ PUSH2 0x37CC JUMPI PUSH1 0x0 DUP5 ISZERO PUSH2 0x37B4 JUMPI POP DUP6 DUP4 ADD MLOAD JUMPDEST PUSH1 0x0 NOT PUSH1 0x3 DUP7 SWAP1 SHL SHR NOT AND PUSH1 0x1 DUP6 SWAP1 SHL OR DUP6 SSTORE PUSH2 0x15D3 JUMP JUMPDEST PUSH1 0x0 DUP6 DUP2 MSTORE PUSH1 0x20 DUP2 KECCAK256 PUSH1 0x1F NOT DUP7 AND SWAP2 JUMPDEST DUP3 DUP2 LT ISZERO PUSH2 0x37FB JUMPI DUP9 DUP7 ADD MLOAD DUP3 SSTORE SWAP5 DUP5 ADD SWAP5 PUSH1 0x1 SWAP1 SWAP2 ADD SWAP1 DUP5 ADD PUSH2 0x37DC JUMP JUMPDEST POP DUP6 DUP3 LT ISZERO PUSH2 0x3819 JUMPI DUP8 DUP6 ADD MLOAD PUSH1 0x0 NOT PUSH1 0x3 DUP9 SWAP1 SHL PUSH1 0xF8 AND SHR NOT AND DUP2 SSTORE JUMPDEST POP POP POP POP POP PUSH1 0x1 SWAP1 DUP2 SHL ADD SWAP1 SSTORE POP JUMP JUMPDEST PUSH1 0x60 DUP2 MSTORE PUSH1 0x0 PUSH2 0x383C PUSH1 0x60 DUP4 ADD DUP7 PUSH2 0x3254 JUMP JUMPDEST DUP3 DUP2 SUB PUSH1 0x20 DUP5 ADD MSTORE PUSH2 0x384E DUP2 DUP7 PUSH2 0x3254 JUMP JUMPDEST SWAP2 POP POP DUP3 PUSH1 0x40 DUP4 ADD MSTORE SWAP5 SWAP4 POP POP POP POP JUMP JUMPDEST DUP2 MLOAD PUSH1 0x1 PUSH1 0x1 PUSH1 0xA0 SHL SUB SWAP1 DUP2 AND DUP3 MSTORE PUSH1 0x20 DUP1 DUP5 ADD MLOAD DUP3 AND SWAP1 DUP4 ADD MSTORE PUSH1 0x40 DUP1 DUP5 ADD MLOAD PUSH3 0xFFFFFF AND SWAP1 DUP4 ADD MSTORE PUSH1 0x60 DUP1 DUP5 ADD MLOAD DUP3 AND SWAP1 DUP4 ADD MSTORE PUSH1 0x80 DUP1 DUP5 ADD MLOAD SWAP1 DUP4 ADD MSTORE PUSH1 0xA0 DUP4 DUP2 ADD MLOAD SWAP1 DUP4 ADD MSTORE PUSH1 0xC0 SWAP3 DUP4 ADD MLOAD AND SWAP2 DUP2 ADD SWAP2 SWAP1 SWAP2 MSTORE PUSH1 0xE0 ADD SWAP1 JUMP JUMPDEST PUSH1 0x1 PUSH1 0x1 PUSH1 0xA0 SHL SUB DUP6 DUP2 AND DUP3 MSTORE DUP5 AND PUSH1 0x20 DUP3 ADD MSTORE PUSH1 0x40 DUP2 ADD DUP4 SWAP1 MSTORE PUSH1 0x80 PUSH1 0x60 DUP3 ADD DUP2 SWAP1 MSTORE PUSH1 0x0 SWAP1 PUSH2 0x30F2 SWAP1 DUP4 ADD DUP5 PUSH2 0x3254 JUMP JUMPDEST PUSH1 0x0 PUSH1 0x20 DUP3 DUP5 SUB SLT ISZERO PUSH2 0x3902 JUMPI PUSH1 0x0 DUP1 REVERT JUMPDEST DUP2 MLOAD PUSH2 0x1143 DUP2 PUSH2 0x31FD JUMP JUMPDEST PUSH1 0x0 DUP4 MLOAD PUSH2 0x391F DUP2 DUP5 PUSH1 0x20 DUP9 ADD PUSH2 0x3230 JUMP JUMPDEST DUP4 MLOAD SWAP1 DUP4 ADD SWAP1 PUSH2 0x3933 DUP2 DUP4 PUSH1 0x20 DUP9 ADD PUSH2 0x3230 JUMP JUMPDEST ADD SWAP5 SWAP4 POP POP POP POP JUMP INVALID DUP1 0xBB 0x2B PUSH4 0x8CC20BC4 0xD0 0xA6 0xD PUSH7 0x940F3AB4A00C1D PUSH28 0x313497CA82FB0B4AB0079300360894A13BA1A3210667C828492DB98D 0xCA RETURNDATACOPY KECCAK256 PUSH23 0xCC3735A920A3CA505D382BBC9B779B17422D0DF9222301 DUP12 ORIGIN 0xB4 0xD1 STATICCALL CHAINID 0xE0 PUSH18 0x723D6817E2486D003BECC55F00A264697066 PUSH20 0x58221220C1623BAE20190E9CBBD12B6432D62C2C 0xD4 0x4F 0x24 PUSH3 0xE1DE96 POP 0xB9 STATICCALL SWAP1 0x2E OR EXTCODECOPY TIMESTAMP PUSH32 0x64736F6C63430008140033000000000000000000000000000000000000000000 "},"methodIdentifiers":{"HDT()":"56b1ddbb","UPGRADE_INTERFACE_VERSION()":"ad3cb1cc","WETH()":"ad5c4648","approve(address,uint256)":"095ea7b3","balanceOf(address)":"70a08231","burn(uint256)":"42966c68","burnToken(uint256)":"7b47ec1a","donate(uint256,address,uint256,uint256,uint256)":"6998a0c2","fees()":"9af1d35a","getApproved(uint256)":"081812fc","getHDT()":"5fea0294","getOwnerByProjectTitle(string)":"91f7e397","getPercentage()":"0b2accb2","getTokenId(string)":"1e7663bc","getUpgradeCount()":"6fa2fd59","getWETH()":"cae5f11e","getWhiteListHash()":"94b17436","get_mintRate()":"e8ba1dff","initialize(address)":"c4d66de8","isApprovedForAll(address,address)":"e985e9c5","latestTokenId()":"8c0e8349","mintRate()":"ca0dcf16","name()":"06fdde03","owner()":"8da5cb5b","ownerOf(uint256)":"6352211e","poolFee()":"089fe6aa","projectTitleToTokenId(string)":"cd99b010","proxiableUUID()":"52d1902d","renounceOwnership()":"715018a6","safeMint(address,string,string)":"eca81d42","safeTransferFrom(address,address,uint256)":"42842e0e","safeTransferFrom(address,address,uint256,bytes)":"b88d4fde","setApprovalForAll(address,bool)":"a22cb465","setHDT(address)":"930baae8","setTaxPercentage(uint256)":"699abb3c","setWETH(address)":"5b769f3c","setWhiteList(uint256)":"18485476","set_mintRate(uint256)":"4744f619","supportsInterface(bytes4)":"01ffc9a7","swapRouter()":"c31c9c07","symbol()":"95d89b41","taxPercentage()":"ae7b6d16","tokenIdToProjectTitle(uint256)":"9f4a7c10","tokenURI(uint256)":"c87b56dd","transferFrom(address,address,uint256)":"23b872dd","transferOwnership(address)":"f2fde38b","upgradeCount()":"c4128b6d","upgradeToAndCall(address,bytes)":"4f1ef286","whiteList()":"3544a864","withdraw()":"3ccfd60b","withdrawToken(address,uint256)":"9e281a98"}},"storageLayout":{"storage":[{"astId":5419,"contract":"contracts/HumbleDonations.sol:HumbleDonations","label":"tokenIdToProjectTitle","offset":0,"slot":"0","type":"t_mapping(t_uint256,t_string_storage)"},{"astId":5423,"contract":"contracts/HumbleDonations.sol:HumbleDonations","label":"projectTitleToTokenId","offset":0,"slot":"1","type":"t_mapping(t_string_memory_ptr,t_uint256)"},{"astId":5431,"contract":"contracts/HumbleDonations.sol:HumbleDonations","label":"upgradeCount","offset":0,"slot":"2","type":"t_uint256"},{"astId":5433,"contract":"contracts/HumbleDonations.sol:HumbleDonations","label":"HDT","offset":0,"slot":"3","type":"t_address"},{"astId":5435,"contract":"contracts/HumbleDonations.sol:HumbleDonations","label":"WETH","offset":0,"slot":"4","type":"t_address"},{"astId":5437,"contract":"contracts/HumbleDonations.sol:HumbleDonations","label":"taxPercentage","offset":0,"slot":"5","type":"t_uint256"},{"astId":5439,"contract":"contracts/HumbleDonations.sol:HumbleDonations","label":"mintRate","offset":0,"slot":"6","type":"t_uint256"},{"astId":5441,"contract":"contracts/HumbleDonations.sol:HumbleDonations","label":"fees","offset":0,"slot":"7","type":"t_uint256"},{"astId":5446,"contract":"contracts/HumbleDonations.sol:HumbleDonations","label":"_tokenIdCounter","offset":0,"slot":"8","type":"t_uint256"},{"astId":5448,"contract":"contracts/HumbleDonations.sol:HumbleDonations","label":"whiteList","offset":0,"slot":"9","type":"t_uint256"},{"astId":6307,"contract":"contracts/HumbleDonations.sol:HumbleDonations","label":"__gap","offset":0,"slot":"10","type":"t_array(t_uint256)50_storage"}],"types":{"t_address":{"encoding":"inplace","label":"address","numberOfBytes":"20"},"t_array(t_uint256)50_storage":{"base":"t_uint256","encoding":"inplace","label":"uint256[50]","numberOfBytes":"1600"},"t_mapping(t_string_memory_ptr,t_uint256)":{"encoding":"mapping","key":"t_string_memory_ptr","label":"mapping(string => uint256)","numberOfBytes":"32","value":"t_uint256"},"t_mapping(t_uint256,t_string_storage)":{"encoding":"mapping","key":"t_uint256","label":"mapping(uint256 => string)","numberOfBytes":"32","value":"t_string_storage"},"t_string_memory_ptr":{"encoding":"bytes","label":"string","numberOfBytes":"32"},"t_string_storage":{"encoding":"bytes","label":"string","numberOfBytes":"32"},"t_uint256":{"encoding":"inplace","label":"uint256","numberOfBytes":"32"}}}}}}